{
  "contractName": "maincontract",
  "abi": [
    {
      "inputs": [
        {
          "internalType": "uint256",
          "name": "",
          "type": "uint256"
        }
      ],
      "name": "users",
      "outputs": [
        {
          "internalType": "string",
          "name": "firstname",
          "type": "string"
        },
        {
          "internalType": "string",
          "name": "lastname",
          "type": "string"
        },
        {
          "internalType": "string",
          "name": "uid",
          "type": "string"
        },
        {
          "internalType": "string",
          "name": "phone",
          "type": "string"
        },
        {
          "internalType": "string",
          "name": "email",
          "type": "string"
        },
        {
          "internalType": "string",
          "name": "username",
          "type": "string"
        },
        {
          "internalType": "string",
          "name": "password",
          "type": "string"
        },
        {
          "internalType": "string",
          "name": "e1",
          "type": "string"
        },
        {
          "internalType": "uint256",
          "name": "id",
          "type": "uint256"
        }
      ],
      "stateMutability": "view",
      "type": "function",
      "constant": true
    },
    {
      "inputs": [
        {
          "internalType": "string",
          "name": "_firstname",
          "type": "string"
        },
        {
          "internalType": "string",
          "name": "_lastname",
          "type": "string"
        },
        {
          "internalType": "string",
          "name": "_uid",
          "type": "string"
        },
        {
          "internalType": "string",
          "name": "_phone",
          "type": "string"
        },
        {
          "internalType": "string",
          "name": "_email",
          "type": "string"
        },
        {
          "internalType": "string",
          "name": "_username",
          "type": "string"
        },
        {
          "internalType": "string",
          "name": "_password",
          "type": "string"
        }
      ],
      "name": "register",
      "outputs": [],
      "stateMutability": "nonpayable",
      "type": "function"
    },
    {
      "inputs": [
        {
          "internalType": "string",
          "name": "_uid",
          "type": "string"
        }
      ],
      "name": "getAllData",
      "outputs": [
        {
          "internalType": "string",
          "name": "",
          "type": "string"
        },
        {
          "internalType": "string",
          "name": "",
          "type": "string"
        },
        {
          "internalType": "string",
          "name": "",
          "type": "string"
        }
      ],
      "stateMutability": "view",
      "type": "function",
      "constant": true
    },
    {
      "inputs": [
        {
          "internalType": "string",
          "name": "_uid",
          "type": "string"
        }
      ],
      "name": "getData",
      "outputs": [
        {
          "components": [
            {
              "internalType": "string",
              "name": "firstname",
              "type": "string"
            },
            {
              "internalType": "string",
              "name": "lastname",
              "type": "string"
            },
            {
              "internalType": "string",
              "name": "username",
              "type": "string"
            },
            {
              "internalType": "string",
              "name": "uid",
              "type": "string"
            }
          ],
          "internalType": "struct maincontract.userdata[]",
          "name": "",
          "type": "tuple[]"
        }
      ],
      "stateMutability": "view",
      "type": "function",
      "constant": true
    },
    {
      "inputs": [
        {
          "internalType": "string",
          "name": "_phone",
          "type": "string"
        },
        {
          "internalType": "string",
          "name": "_email",
          "type": "string"
        }
      ],
      "name": "check_data",
      "outputs": [
        {
          "internalType": "bool",
          "name": "",
          "type": "bool"
        },
        {
          "internalType": "bool",
          "name": "",
          "type": "bool"
        }
      ],
      "stateMutability": "view",
      "type": "function",
      "constant": true
    },
    {
      "inputs": [],
      "name": "send_user",
      "outputs": [
        {
          "internalType": "string[]",
          "name": "",
          "type": "string[]"
        }
      ],
      "stateMutability": "view",
      "type": "function",
      "constant": true
    },
    {
      "inputs": [
        {
          "internalType": "string",
          "name": "_phone",
          "type": "string"
        },
        {
          "internalType": "string",
          "name": "_password",
          "type": "string"
        }
      ],
      "name": "login",
      "outputs": [
        {
          "internalType": "bool",
          "name": "",
          "type": "bool"
        },
        {
          "internalType": "string",
          "name": "",
          "type": "string"
        },
        {
          "internalType": "string",
          "name": "",
          "type": "string"
        },
        {
          "internalType": "string",
          "name": "",
          "type": "string"
        },
        {
          "internalType": "string",
          "name": "",
          "type": "string"
        }
      ],
      "stateMutability": "view",
      "type": "function",
      "constant": true
    }
  ],
  "bytecode": "0x6080604052600160005534801561001557600080fd5b50612334806100256000396000f3fe608060405234801561001057600080fd5b506004361061007d5760003560e01c80639ba3944f1161005b5780639ba3944f146101205780639d0c9fca1461013e578063ae55c8881461015a578063bf6ef2f51461018a5761007d565b8063365b98b21461008257806358467dbc146100ba578063939fa322146100ee575b600080fd5b61009c60048036038101906100979190611b6a565b6101bb565b6040516100b199989796959493929190611f6b565b60405180910390f35b6100d460048036038101906100cf91906119b8565b610659565b6040516100e5959493929190611eb0565b60405180910390f35b61010860048036038101906101039190611977565b610ae7565b60405161011793929190611f1f565b60405180910390f35b610128610e17565b6040516101359190611e43565b60405180910390f35b61015860048036038101906101539190611a24565b610fd9565b005b610174600480360381019061016f9190611977565b611190565b6040516101819190611e65565b60405180910390f35b6101a4600480360381019061019f91906119b8565b611710565b6040516101b2929190611e87565b60405180910390f35b600181815481106101cb57600080fd5b90600052602060002090600902016000915090508060000180546101ee9061219d565b80601f016020809104026020016040519081016040528092919081815260200182805461021a9061219d565b80156102675780601f1061023c57610100808354040283529160200191610267565b820191906000526020600020905b81548152906001019060200180831161024a57829003601f168201915b50505050509080600101805461027c9061219d565b80601f01602080910402602001604051908101604052809291908181526020018280546102a89061219d565b80156102f55780601f106102ca576101008083540402835291602001916102f5565b820191906000526020600020905b8154815290600101906020018083116102d857829003601f168201915b50505050509080600201805461030a9061219d565b80601f01602080910402602001604051908101604052809291908181526020018280546103369061219d565b80156103835780601f1061035857610100808354040283529160200191610383565b820191906000526020600020905b81548152906001019060200180831161036657829003601f168201915b5050505050908060030180546103989061219d565b80601f01602080910402602001604051908101604052809291908181526020018280546103c49061219d565b80156104115780601f106103e657610100808354040283529160200191610411565b820191906000526020600020905b8154815290600101906020018083116103f457829003601f168201915b5050505050908060040180546104269061219d565b80601f01602080910402602001604051908101604052809291908181526020018280546104529061219d565b801561049f5780601f106104745761010080835404028352916020019161049f565b820191906000526020600020905b81548152906001019060200180831161048257829003601f168201915b5050505050908060050180546104b49061219d565b80601f01602080910402602001604051908101604052809291908181526020018280546104e09061219d565b801561052d5780601f106105025761010080835404028352916020019161052d565b820191906000526020600020905b81548152906001019060200180831161051057829003601f168201915b5050505050908060060180546105429061219d565b80601f016020809104026020016040519081016040528092919081815260200182805461056e9061219d565b80156105bb5780601f10610590576101008083540402835291602001916105bb565b820191906000526020600020905b81548152906001019060200180831161059e57829003601f168201915b5050505050908060070180546105d09061219d565b80601f01602080910402602001604051908101604052809291908181526020018280546105fc9061219d565b80156106495780601f1061061e57610100808354040283529160200191610649565b820191906000526020600020905b81548152906001019060200180831161062c57829003601f168201915b5050505050908060080154905089565b6000606080606080600060608060608060005b600180549050811015610ac857600181815481106106b3577f4e487b7100000000000000000000000000000000000000000000000000000000600052603260045260246000fd5b90600052602060002090600902016003016040516106d19190611e2c565b60405180910390208d80519060200120148015610753575060018181548110610723577f4e487b7100000000000000000000000000000000000000000000000000000000600052603260045260246000fd5b90600052602060002090600902016006016040516107419190611e2c565b60405180910390208c80519060200120145b15610ab5576001955060018181548110610796577f4e487b7100000000000000000000000000000000000000000000000000000000600052603260045260246000fd5b906000526020600020906009020160000180546107b29061219d565b80601f01602080910402602001604051908101604052809291908181526020018280546107de9061219d565b801561082b5780601f106108005761010080835404028352916020019161082b565b820191906000526020600020905b81548152906001019060200180831161080e57829003601f168201915b505050505094506001818154811061086c577f4e487b7100000000000000000000000000000000000000000000000000000000600052603260045260246000fd5b906000526020600020906009020160010180546108889061219d565b80601f01602080910402602001604051908101604052809291908181526020018280546108b49061219d565b80156109015780601f106108d657610100808354040283529160200191610901565b820191906000526020600020905b8154815290600101906020018083116108e457829003601f168201915b5050505050935060018181548110610942577f4e487b7100000000000000000000000000000000000000000000000000000000600052603260045260246000fd5b9060005260206000209060090201600201805461095e9061219d565b80601f016020809104026020016040519081016040528092919081815260200182805461098a9061219d565b80156109d75780601f106109ac576101008083540402835291602001916109d7565b820191906000526020600020905b8154815290600101906020018083116109ba57829003601f168201915b5050505050925060018181548110610a18577f4e487b7100000000000000000000000000000000000000000000000000000000600052603260045260246000fd5b90600052602060002090600902016005018054610a349061219d565b80601f0160208091040260200160405190810160405280929190818152602001828054610a609061219d565b8015610aad5780601f10610a8257610100808354040283529160200191610aad565b820191906000526020600020905b815481529060010190602001808311610a9057829003601f168201915b505050505091505b8080610ac090612200565b91505061066c565b5084828585849950995099509950995050505050509295509295909350565b606080606060005b600180549050811015610e0e57848051906020012060018281548110610b3e577f4e487b7100000000000000000000000000000000000000000000000000000000600052603260045260246000fd5b9060005260206000209060090201600201604051610b5c9190611e2c565b60405180910390201415610dfb5760018181548110610ba4577f4e487b7100000000000000000000000000000000000000000000000000000000600052603260045260246000fd5b906000526020600020906009020160000160018281548110610bef577f4e487b7100000000000000000000000000000000000000000000000000000000600052603260045260246000fd5b906000526020600020906009020160010160018381548110610c3a577f4e487b7100000000000000000000000000000000000000000000000000000000600052603260045260246000fd5b9060005260206000209060090201600501828054610c579061219d565b80601f0160208091040260200160405190810160405280929190818152602001828054610c839061219d565b8015610cd05780601f10610ca557610100808354040283529160200191610cd0565b820191906000526020600020905b815481529060010190602001808311610cb357829003601f168201915b50505050509250818054610ce39061219d565b80601f0160208091040260200160405190810160405280929190818152602001828054610d0f9061219d565b8015610d5c5780601f10610d3157610100808354040283529160200191610d5c565b820191906000526020600020905b815481529060010190602001808311610d3f57829003601f168201915b50505050509150808054610d6f9061219d565b80601f0160208091040260200160405190810160405280929190818152602001828054610d9b9061219d565b8015610de85780601f10610dbd57610100808354040283529160200191610de8565b820191906000526020600020905b815481529060010190602001808311610dcb57829003601f168201915b5050505050905093509350935050610e10565b8080610e0690612200565b915050610aef565b505b9193909250565b6060600060018054905067ffffffffffffffff811115610e60577f4e487b7100000000000000000000000000000000000000000000000000000000600052604160045260246000fd5b604051908082528060200260200182016040528015610e9357816020015b6060815260200190600190039081610e7e5790505b50905060005b600180549050811015610fd15760018181548110610ee0577f4e487b7100000000000000000000000000000000000000000000000000000000600052603260045260246000fd5b90600052602060002090600902016005018054610efc9061219d565b80601f0160208091040260200160405190810160405280929190818152602001828054610f289061219d565b8015610f755780601f10610f4a57610100808354040283529160200191610f75565b820191906000526020600020905b815481529060010190602001808311610f5857829003601f168201915b5050505050828281518110610fb3577f4e487b7100000000000000000000000000000000000000000000000000000000600052603260045260246000fd5b60200260200101819052508080610fc990612200565b915050610e99565b508091505090565b60016040518061012001604052808981526020018881526020018781526020018681526020018581526020018481526020018381526020016040518060400160405280600181526020017f300000000000000000000000000000000000000000000000000000000000000081525081526020016000548152509080600181540180825580915050600190039060005260206000209060090201600090919091909150600082015181600001908051906020019061109792919061182f565b5060208201518160010190805190602001906110b492919061182f565b5060408201518160020190805190602001906110d192919061182f565b5060608201518160030190805190602001906110ee92919061182f565b50608082015181600401908051906020019061110b92919061182f565b5060a082015181600501908051906020019061112892919061182f565b5060c082015181600601908051906020019061114592919061182f565b5060e082015181600701908051906020019061116292919061182f565b506101008201518160080155505060008081548092919061118290612200565b919050555050505050505050565b60606000805b600180549050811015611232578380519060200120600182815481106111e5577f4e487b7100000000000000000000000000000000000000000000000000000000600052603260045260246000fd5b90600052602060002090600902016002016040516112039190611e2c565b60405180910390201461121f57818061121b90612200565b9250505b808061122a90612200565b915050611196565b5060008167ffffffffffffffff811115611275577f4e487b7100000000000000000000000000000000000000000000000000000000600052604160045260246000fd5b6040519080825280602002602001820160405280156112ae57816020015b61129b6118b5565b8152602001906001900390816112935790505b5090506000915060005b60018054905081101561170557848051906020012060018281548110611307577f4e487b7100000000000000000000000000000000000000000000000000000000600052603260045260246000fd5b90600052602060002090600902016002016040516113259190611e2c565b6040518091039020146116f257604051806080016040528060018381548110611377577f4e487b7100000000000000000000000000000000000000000000000000000000600052603260045260246000fd5b906000526020600020906009020160000180546113939061219d565b80601f01602080910402602001604051908101604052809291908181526020018280546113bf9061219d565b801561140c5780601f106113e15761010080835404028352916020019161140c565b820191906000526020600020905b8154815290600101906020018083116113ef57829003601f168201915b5050505050815260200160018381548110611450577f4e487b7100000000000000000000000000000000000000000000000000000000600052603260045260246000fd5b9060005260206000209060090201600101805461146c9061219d565b80601f01602080910402602001604051908101604052809291908181526020018280546114989061219d565b80156114e55780601f106114ba576101008083540402835291602001916114e5565b820191906000526020600020905b8154815290600101906020018083116114c857829003601f168201915b5050505050815260200160018381548110611529577f4e487b7100000000000000000000000000000000000000000000000000000000600052603260045260246000fd5b906000526020600020906009020160050180546115459061219d565b80601f01602080910402602001604051908101604052809291908181526020018280546115719061219d565b80156115be5780601f10611593576101008083540402835291602001916115be565b820191906000526020600020905b8154815290600101906020018083116115a157829003601f168201915b5050505050815260200160018381548110611602577f4e487b7100000000000000000000000000000000000000000000000000000000600052603260045260246000fd5b9060005260206000209060090201600201805461161e9061219d565b80601f016020809104026020016040519081016040528092919081815260200182805461164a9061219d565b80156116975780601f1061166c57610100808354040283529160200191611697565b820191906000526020600020905b81548152906001019060200180831161167a57829003601f168201915b50505050508152508284815181106116d8577f4e487b7100000000000000000000000000000000000000000000000000000000600052603260045260246000fd5b602002602001018190525082806116ee90612200565b9350505b80806116fd90612200565b9150506112b8565b508092505050919050565b60008060008060005b60018054905081101561181f57868051906020012060018281548110611768577f4e487b7100000000000000000000000000000000000000000000000000000000600052603260045260246000fd5b90600052602060002090600902016003016040516117869190611e2c565b6040518091039020141561179957600192505b8580519060200120600182815481106117db577f4e487b7100000000000000000000000000000000000000000000000000000000600052603260045260246000fd5b90600052602060002090600902016004016040516117f99190611e2c565b6040518091039020141561180c57600191505b808061181790612200565b915050611719565b5081819350935050509250929050565b82805461183b9061219d565b90600052602060002090601f01602090048101928261185d57600085556118a4565b82601f1061187657805160ff19168380011785556118a4565b828001600101855582156118a4579182015b828111156118a3578251825591602001919060010190611888565b5b5090506118b191906118dd565b5090565b6040518060800160405280606081526020016060815260200160608152602001606081525090565b5b808211156118f65760008160009055506001016118de565b5090565b600061190d61190884612055565b612030565b90508281526020810184848401111561192557600080fd5b61193084828561215b565b509392505050565b600082601f83011261194957600080fd5b81356119598482602086016118fa565b91505092915050565b600081359050611971816122e7565b92915050565b60006020828403121561198957600080fd5b600082013567ffffffffffffffff8111156119a357600080fd5b6119af84828501611938565b91505092915050565b600080604083850312156119cb57600080fd5b600083013567ffffffffffffffff8111156119e557600080fd5b6119f185828601611938565b925050602083013567ffffffffffffffff811115611a0e57600080fd5b611a1a85828601611938565b9150509250929050565b600080600080600080600060e0888a031215611a3f57600080fd5b600088013567ffffffffffffffff811115611a5957600080fd5b611a658a828b01611938565b975050602088013567ffffffffffffffff811115611a8257600080fd5b611a8e8a828b01611938565b965050604088013567ffffffffffffffff811115611aab57600080fd5b611ab78a828b01611938565b955050606088013567ffffffffffffffff811115611ad457600080fd5b611ae08a828b01611938565b945050608088013567ffffffffffffffff811115611afd57600080fd5b611b098a828b01611938565b93505060a088013567ffffffffffffffff811115611b2657600080fd5b611b328a828b01611938565b92505060c088013567ffffffffffffffff811115611b4f57600080fd5b611b5b8a828b01611938565b91505092959891949750929550565b600060208284031215611b7c57600080fd5b6000611b8a84828501611962565b91505092915050565b6000611b9f8383611d33565b905092915050565b6000611bb38383611da5565b905092915050565b6000611bc6826120bb565b611bd081856120f6565b935083602082028501611be285612086565b8060005b85811015611c1e5784840389528151611bff8582611b93565b9450611c0a836120dc565b925060208a01995050600181019050611be6565b50829750879550505050505092915050565b6000611c3b826120c6565b611c458185612107565b935083602082028501611c5785612096565b8060005b85811015611c935784840389528151611c748582611ba7565b9450611c7f836120e9565b925060208a01995050600181019050611c5b565b50829750879550505050505092915050565b611cae81612145565b82525050565b60008154611cc18161219d565b611ccb8186612118565b94506001821660008114611ce65760018114611cf757611d2a565b60ff19831686528186019350611d2a565b611d00856120a6565b60005b83811015611d2257815481890152600182019150602081019050611d03565b838801955050505b50505092915050565b6000611d3e826120d1565b611d488185612123565b9350611d5881856020860161216a565b611d61816122d6565b840191505092915050565b6000611d77826120d1565b611d818185612134565b9350611d9181856020860161216a565b611d9a816122d6565b840191505092915050565b60006080830160008301518482036000860152611dc28282611d33565b91505060208301518482036020860152611ddc8282611d33565b91505060408301518482036040860152611df68282611d33565b91505060608301518482036060860152611e108282611d33565b9150508091505092915050565b611e2681612151565b82525050565b6000611e388284611cb4565b915081905092915050565b60006020820190508181036000830152611e5d8184611bbb565b905092915050565b60006020820190508181036000830152611e7f8184611c30565b905092915050565b6000604082019050611e9c6000830185611ca5565b611ea96020830184611ca5565b9392505050565b600060a082019050611ec56000830188611ca5565b8181036020830152611ed78187611d6c565b90508181036040830152611eeb8186611d6c565b90508181036060830152611eff8185611d6c565b90508181036080830152611f138184611d6c565b90509695505050505050565b60006060820190508181036000830152611f398186611d6c565b90508181036020830152611f4d8185611d6c565b90508181036040830152611f618184611d6c565b9050949350505050565b6000610120820190508181036000830152611f86818c611d6c565b90508181036020830152611f9a818b611d6c565b90508181036040830152611fae818a611d6c565b90508181036060830152611fc28189611d6c565b90508181036080830152611fd68188611d6c565b905081810360a0830152611fea8187611d6c565b905081810360c0830152611ffe8186611d6c565b905081810360e08301526120128185611d6c565b9050612022610100830184611e1d565b9a9950505050505050505050565b600061203a61204b565b905061204682826121cf565b919050565b6000604051905090565b600067ffffffffffffffff8211156120705761206f6122a7565b5b612079826122d6565b9050602081019050919050565b6000819050602082019050919050565b6000819050602082019050919050565b60008190508160005260206000209050919050565b600081519050919050565b600081519050919050565b600081519050919050565b6000602082019050919050565b6000602082019050919050565b600082825260208201905092915050565b600082825260208201905092915050565b600081905092915050565b600082825260208201905092915050565b600082825260208201905092915050565b60008115159050919050565b6000819050919050565b82818337600083830152505050565b60005b8381101561218857808201518184015260208101905061216d565b83811115612197576000848401525b50505050565b600060028204905060018216806121b557607f821691505b602082108114156121c9576121c8612278565b5b50919050565b6121d8826122d6565b810181811067ffffffffffffffff821117156121f7576121f66122a7565b5b80604052505050565b600061220b82612151565b91507fffffffffffffffffffffffffffffffffffffffffffffffffffffffffffffffff82141561223e5761223d612249565b5b600182019050919050565b7f4e487b7100000000000000000000000000000000000000000000000000000000600052601160045260246000fd5b7f4e487b7100000000000000000000000000000000000000000000000000000000600052602260045260246000fd5b7f4e487b7100000000000000000000000000000000000000000000000000000000600052604160045260246000fd5b6000601f19601f8301169050919050565b6122f081612151565b81146122fb57600080fd5b5056fea26469706673582212204656f6f9dcadf356d9a65c6d0fee49de340d64446ca940ecbf688340122b4f6964736f6c63430008030033",
  "immutableReferences": {},
  "source": "// SPDX-License-Identifier: MIT\r\npragma solidity >=0.4.22 <0.9.0;\r\ncontract maincontract\r\n{\r\n    struct Users {\r\n        string firstname;\r\n        string lastname;\r\n        string uid;\r\n        string phone;\r\n        string email;\r\n        string username;\r\n        string password;\r\n        string e1;\r\n        uint id;\r\n    }\r\n    struct userdata{\r\n        string firstname;\r\n        string lastname;\r\n        string username;\r\n        string uid;\r\n    }\r\n    uint new_id = 1;\r\n    Users[] public users;\r\n    function register(string memory _firstname,string memory _lastname,string memory _uid,string memory _phone ,string memory _email,string memory _username,string memory  _password)  public\r\n    {\r\n        users.push(Users(_firstname,_lastname,_uid,_phone,_email,_username,_password,\"0\",new_id));\r\n        new_id++;\r\n    }\r\n    function getAllData(string memory _uid) view public returns(string memory,string memory,string memory)\r\n    {\r\n        for(uint i =0;i<users.length;i++)\r\n        {\r\n            if(keccak256(bytes(users[i].uid)) == keccak256(bytes(_uid)))\r\n            {\r\n                return(users[i].firstname,users[i].lastname,users[i].username);\r\n            }\r\n        }\r\n    }\r\n  function getData(string memory _uid) view public returns(userdata[] memory)\r\n    {\r\n        uint c = 0;\r\n        for(uint i =0;i<users.length;i++)\r\n        {\r\n            if(keccak256(bytes(users[i].uid)) != keccak256(bytes(_uid)))\r\n            {\r\n                c++;\r\n            }\r\n        }\r\n        userdata[] memory hello = new userdata[](c);\r\n          c=0;\r\n          for(uint i =0;i<users.length;i++)\r\n        {\r\n            if(keccak256(bytes(users[i].uid)) != keccak256(bytes(_uid)))\r\n            {\r\n                hello[c] = userdata(users[i].firstname,users[i].lastname,users[i].username,users[i].uid);\r\n                c++;\r\n            }\r\n        }\r\n        return(hello);\r\n    }\r\n    function check_data(string memory _phone,string memory _email) view public returns(bool,bool)\r\n    {\r\n        bool nm = false;\r\n        bool em = false;\r\n        for(uint i = 0;i<users.length;i++)\r\n        {\r\n            if(keccak256(bytes(users[i].phone))==keccak256(bytes(_phone)))\r\n            {\r\n                nm = true;\r\n            }\r\n             if(keccak256(bytes(users[i].email))==keccak256(bytes(_email)))\r\n            {\r\n                em = true;\r\n            }\r\n        }\r\n        return (nm,em);\r\n    }\r\n\r\n    function send_user() view public returns(string[] memory)\r\n    {\r\n        string[] memory usernames = new string[](users.length);\r\n        for(uint i =0;i<users.length;i++)\r\n        {\r\n         usernames[i] = users[i].username;\r\n        }\r\n        return usernames;\r\n\r\n\r\n    }\r\n    function login(string memory _phone,string memory _password) view public returns(bool,string memory,string memory,string memory,string memory) \r\n    {\r\n        bool hello = false;\r\n        string memory firstname;\r\n        string memory lastname;\r\n        string memory uid;\r\n        string memory username;\r\n         for(uint i =0;i<users.length;i++)\r\n         {\r\n             if(keccak256(bytes(_phone))==keccak256(bytes(users[i].phone))&&keccak256(bytes(_password))==keccak256(bytes(users[i].password)))\r\n             {\r\n                 hello = true;\r\n                 firstname = users[i].firstname;\r\n                 lastname = users[i].lastname;\r\n                 uid = users[i].uid;\r\n                 username = users[i].username;\r\n             }\r\n         }\r\n         return(hello,uid,firstname,lastname,username);\r\n    }\r\n}",
  "sourcePath": "C:/Users/aadit/tdn1/contracts/maincontract.sol",
  "compiler": {
    "name": "solc",
    "version": "0.8.3+commit.8d00100c.Emscripten.clang"
  },
  "schemaVersion": "3.3.4",
  "updatedAt": "2021-05-29T12:45:10.869Z",
  "networkType": "ethereum",
  "devdoc": {
    "kind": "dev",
    "methods": {},
    "version": 1
  },
  "userdoc": {
    "kind": "user",
    "methods": {},
    "version": 1
  }
}