{
  "contractName": "notification",
  "abi": [
    {
      "inputs": [
        {
          "internalType": "uint256",
          "name": "",
          "type": "uint256"
        }
      ],
      "name": "pushmention",
      "outputs": [
        {
          "internalType": "string",
          "name": "uid",
          "type": "string"
        },
        {
          "internalType": "string",
          "name": "type1",
          "type": "string"
        },
        {
          "internalType": "string",
          "name": "status",
          "type": "string"
        },
        {
          "internalType": "string",
          "name": "sid",
          "type": "string"
        },
        {
          "internalType": "string",
          "name": "notification2",
          "type": "string"
        },
        {
          "internalType": "string",
          "name": "attachment",
          "type": "string"
        },
        {
          "internalType": "string",
          "name": "e1",
          "type": "string"
        },
        {
          "internalType": "string",
          "name": "timestamp",
          "type": "string"
        },
        {
          "internalType": "uint256",
          "name": "extra",
          "type": "uint256"
        }
      ],
      "stateMutability": "view",
      "type": "function",
      "constant": true
    },
    {
      "inputs": [
        {
          "internalType": "uint256",
          "name": "",
          "type": "uint256"
        }
      ],
      "name": "pushnotification",
      "outputs": [
        {
          "internalType": "string",
          "name": "uid",
          "type": "string"
        },
        {
          "internalType": "string",
          "name": "type1",
          "type": "string"
        },
        {
          "internalType": "string",
          "name": "status",
          "type": "string"
        },
        {
          "internalType": "string",
          "name": "sid",
          "type": "string"
        },
        {
          "internalType": "string",
          "name": "notification2",
          "type": "string"
        },
        {
          "internalType": "string",
          "name": "attachment",
          "type": "string"
        },
        {
          "internalType": "string",
          "name": "e1",
          "type": "string"
        },
        {
          "internalType": "string",
          "name": "timestamp",
          "type": "string"
        },
        {
          "internalType": "uint256",
          "name": "extra",
          "type": "uint256"
        }
      ],
      "stateMutability": "view",
      "type": "function",
      "constant": true
    },
    {
      "inputs": [
        {
          "internalType": "string[]",
          "name": "ar",
          "type": "string[]"
        },
        {
          "internalType": "string[]",
          "name": "rid",
          "type": "string[]"
        }
      ],
      "name": "insertNotification",
      "outputs": [],
      "stateMutability": "nonpayable",
      "type": "function"
    },
    {
      "inputs": [
        {
          "internalType": "string[]",
          "name": "ar",
          "type": "string[]"
        },
        {
          "internalType": "string[]",
          "name": "mid",
          "type": "string[]"
        }
      ],
      "name": "insertMention",
      "outputs": [],
      "stateMutability": "nonpayable",
      "type": "function"
    },
    {
      "inputs": [],
      "name": "getAllNotification",
      "outputs": [
        {
          "components": [
            {
              "internalType": "string",
              "name": "uid",
              "type": "string"
            },
            {
              "internalType": "string",
              "name": "type1",
              "type": "string"
            },
            {
              "internalType": "string",
              "name": "status",
              "type": "string"
            },
            {
              "internalType": "string",
              "name": "sid",
              "type": "string"
            },
            {
              "internalType": "string[]",
              "name": "rid",
              "type": "string[]"
            },
            {
              "internalType": "string",
              "name": "notification2",
              "type": "string"
            },
            {
              "internalType": "string",
              "name": "attachment",
              "type": "string"
            },
            {
              "internalType": "string",
              "name": "e1",
              "type": "string"
            },
            {
              "internalType": "string",
              "name": "timestamp",
              "type": "string"
            },
            {
              "internalType": "uint256",
              "name": "extra",
              "type": "uint256"
            }
          ],
          "internalType": "struct notification.notification1[]",
          "name": "",
          "type": "tuple[]"
        }
      ],
      "stateMutability": "view",
      "type": "function",
      "constant": true
    },
    {
      "inputs": [],
      "name": "getAllMentions",
      "outputs": [
        {
          "components": [
            {
              "internalType": "string",
              "name": "uid",
              "type": "string"
            },
            {
              "internalType": "string",
              "name": "type1",
              "type": "string"
            },
            {
              "internalType": "string",
              "name": "status",
              "type": "string"
            },
            {
              "internalType": "string",
              "name": "sid",
              "type": "string"
            },
            {
              "internalType": "string[]",
              "name": "rid",
              "type": "string[]"
            },
            {
              "internalType": "string",
              "name": "notification2",
              "type": "string"
            },
            {
              "internalType": "string",
              "name": "attachment",
              "type": "string"
            },
            {
              "internalType": "string",
              "name": "e1",
              "type": "string"
            },
            {
              "internalType": "string",
              "name": "timestamp",
              "type": "string"
            },
            {
              "internalType": "uint256",
              "name": "extra",
              "type": "uint256"
            }
          ],
          "internalType": "struct notification.mention[]",
          "name": "",
          "type": "tuple[]"
        }
      ],
      "stateMutability": "view",
      "type": "function",
      "constant": true
    },
    {
      "inputs": [
        {
          "internalType": "string",
          "name": "uid",
          "type": "string"
        }
      ],
      "name": "getNotification",
      "outputs": [
        {
          "components": [
            {
              "internalType": "string",
              "name": "uid",
              "type": "string"
            },
            {
              "internalType": "string",
              "name": "type1",
              "type": "string"
            },
            {
              "internalType": "string",
              "name": "status",
              "type": "string"
            },
            {
              "internalType": "string",
              "name": "sid",
              "type": "string"
            },
            {
              "internalType": "string[]",
              "name": "rid",
              "type": "string[]"
            },
            {
              "internalType": "string",
              "name": "notification2",
              "type": "string"
            },
            {
              "internalType": "string",
              "name": "attachment",
              "type": "string"
            },
            {
              "internalType": "string",
              "name": "e1",
              "type": "string"
            },
            {
              "internalType": "string",
              "name": "timestamp",
              "type": "string"
            },
            {
              "internalType": "uint256",
              "name": "extra",
              "type": "uint256"
            }
          ],
          "internalType": "struct notification.notification1[]",
          "name": "",
          "type": "tuple[]"
        }
      ],
      "stateMutability": "view",
      "type": "function",
      "constant": true
    },
    {
      "inputs": [
        {
          "internalType": "string",
          "name": "username",
          "type": "string"
        }
      ],
      "name": "getMention",
      "outputs": [
        {
          "components": [
            {
              "internalType": "string",
              "name": "uid",
              "type": "string"
            },
            {
              "internalType": "string",
              "name": "type1",
              "type": "string"
            },
            {
              "internalType": "string",
              "name": "status",
              "type": "string"
            },
            {
              "internalType": "string",
              "name": "sid",
              "type": "string"
            },
            {
              "internalType": "string[]",
              "name": "rid",
              "type": "string[]"
            },
            {
              "internalType": "string",
              "name": "notification2",
              "type": "string"
            },
            {
              "internalType": "string",
              "name": "attachment",
              "type": "string"
            },
            {
              "internalType": "string",
              "name": "e1",
              "type": "string"
            },
            {
              "internalType": "string",
              "name": "timestamp",
              "type": "string"
            },
            {
              "internalType": "uint256",
              "name": "extra",
              "type": "uint256"
            }
          ],
          "internalType": "struct notification.mention[]",
          "name": "",
          "type": "tuple[]"
        }
      ],
      "stateMutability": "view",
      "type": "function",
      "constant": true
    }
  ],
  "bytecode": "0x608060405234801561001057600080fd5b50613fe7806100206000396000f3fe608060405234801561001057600080fd5b50600436106100885760003560e01c8063b094f8501161005b578063b094f8501461012d578063c1ba99b61461015d578063cf0e4b171461017b578063dd9fe8fb1461019957610088565b80630f4e5dc51461008d57806319f0491f146100a95780637a63d039146100d9578063952806a6146100f5575b600080fd5b6100a760048036038101906100a291906135c6565b6101d1565b005b6100c360048036038101906100be9190613632565b610562565b6040516100d09190613b81565b60405180910390f35b6100f360048036038101906100ee91906135c6565b610fd2565b005b61010f600480360381019061010a9190613673565b611363565b60405161012499989796959493929190613bc5565b60405180910390f35b61014760048036038101906101429190613632565b611801565b6040516101549190613ba3565b60405180910390f35b610165612271565b6040516101729190613b81565b60405180910390f35b610183612844565b6040516101909190613ba3565b60405180910390f35b6101b360048036038101906101ae9190613673565b612e17565b6040516101c899989796959493929190613bc5565b60405180910390f35b600160405180610140016040528084600081518110610219577f4e487b7100000000000000000000000000000000000000000000000000000000600052603260045260246000fd5b6020026020010151815260200184600181518110610260577f4e487b7100000000000000000000000000000000000000000000000000000000600052603260045260246000fd5b60200260200101518152602001846002815181106102a7577f4e487b7100000000000000000000000000000000000000000000000000000000600052603260045260246000fd5b60200260200101518152602001846003815181106102ee577f4e487b7100000000000000000000000000000000000000000000000000000000600052603260045260246000fd5b602002602001015181526020018381526020018460058151811061033b577f4e487b7100000000000000000000000000000000000000000000000000000000600052603260045260246000fd5b6020026020010151815260200184600681518110610382577f4e487b7100000000000000000000000000000000000000000000000000000000600052603260045260246000fd5b60200260200101518152602001846007815181106103c9577f4e487b7100000000000000000000000000000000000000000000000000000000600052603260045260246000fd5b6020026020010151815260200184600881518110610410577f4e487b7100000000000000000000000000000000000000000000000000000000600052603260045260246000fd5b60200260200101518152602001600081525090806001815401808255809150506001900390600052602060002090600a020160009091909190915060008201518160000190805190602001906104679291906132b5565b5060208201518160010190805190602001906104849291906132b5565b5060408201518160020190805190602001906104a19291906132b5565b5060608201518160030190805190602001906104be9291906132b5565b5060808201518160040190805190602001906104db92919061333b565b5060a08201518160050190805190602001906104f89291906132b5565b5060c08201518160060190805190602001906105159291906132b5565b5060e08201518160070190805190602001906105329291906132b5565b506101008201518160080190805190602001906105509291906132b5565b50610120820151816009015550505050565b60606000805b600180549050811015610758576040518060400160405280600181526020017f300000000000000000000000000000000000000000000000000000000000000081525080519060200120600182815481106105ec577f4e487b7100000000000000000000000000000000000000000000000000000000600052603260045260246000fd5b90600052602060002090600a020160020160405161060a9190613b6a565b604051809103902014156107455760005b60008281548110610655577f4e487b7100000000000000000000000000000000000000000000000000000000600052603260045260246000fd5b90600052602060002090600a02016004018054905081101561074357600082815481106106ab577f4e487b7100000000000000000000000000000000000000000000000000000000600052603260045260246000fd5b90600052602060002090600a020160040181815481106106f4577f4e487b7100000000000000000000000000000000000000000000000000000000600052603260045260246000fd5b9060005260206000200160405161070b9190613b6a565b60405180910390208580519060200120141561073057828061072c90613eb3565b9350505b808061073b90613eb3565b91505061061b565b505b808061075090613eb3565b915050610568565b5060008167ffffffffffffffff81111561079b577f4e487b7100000000000000000000000000000000000000000000000000000000600052604160045260246000fd5b6040519080825280602002602001820160405280156107d457816020015b6107c161339b565b8152602001906001900390816107b95790505b50905060005b600180549050811015610fc7576040518060400160405280600181526020017f3000000000000000000000000000000000000000000000000000000000000000815250805190602001206001828154811061085e577f4e487b7100000000000000000000000000000000000000000000000000000000600052603260045260246000fd5b90600052602060002090600a020160020160405161087c9190613b6a565b60405180910390201415610fb45760005b600182815481106108c7577f4e487b7100000000000000000000000000000000000000000000000000000000600052603260045260246000fd5b90600052602060002090600a020160040180549050811015610fb2576001828154811061091d577f4e487b7100000000000000000000000000000000000000000000000000000000600052603260045260246000fd5b90600052602060002090600a02016004018181548110610966577f4e487b7100000000000000000000000000000000000000000000000000000000600052603260045260246000fd5b9060005260206000200160405161097d9190613b6a565b604051809103902086805190602001201415610f9f57600182815481106109cd577f4e487b7100000000000000000000000000000000000000000000000000000000600052603260045260246000fd5b90600052602060002090600a0201604051806101400160405290816000820180546109f790613e50565b80601f0160208091040260200160405190810160405280929190818152602001828054610a2390613e50565b8015610a705780601f10610a4557610100808354040283529160200191610a70565b820191906000526020600020905b815481529060010190602001808311610a5357829003601f168201915b50505050508152602001600182018054610a8990613e50565b80601f0160208091040260200160405190810160405280929190818152602001828054610ab590613e50565b8015610b025780601f10610ad757610100808354040283529160200191610b02565b820191906000526020600020905b815481529060010190602001808311610ae557829003601f168201915b50505050508152602001600282018054610b1b90613e50565b80601f0160208091040260200160405190810160405280929190818152602001828054610b4790613e50565b8015610b945780601f10610b6957610100808354040283529160200191610b94565b820191906000526020600020905b815481529060010190602001808311610b7757829003601f168201915b50505050508152602001600382018054610bad90613e50565b80601f0160208091040260200160405190810160405280929190818152602001828054610bd990613e50565b8015610c265780601f10610bfb57610100808354040283529160200191610c26565b820191906000526020600020905b815481529060010190602001808311610c0957829003601f168201915b5050505050815260200160048201805480602002602001604051908101604052809291908181526020016000905b82821015610d00578382906000526020600020018054610c7390613e50565b80601f0160208091040260200160405190810160405280929190818152602001828054610c9f90613e50565b8015610cec5780601f10610cc157610100808354040283529160200191610cec565b820191906000526020600020905b815481529060010190602001808311610ccf57829003601f168201915b505050505081526020019060010190610c54565b505050508152602001600582018054610d1890613e50565b80601f0160208091040260200160405190810160405280929190818152602001828054610d4490613e50565b8015610d915780601f10610d6657610100808354040283529160200191610d91565b820191906000526020600020905b815481529060010190602001808311610d7457829003601f168201915b50505050508152602001600682018054610daa90613e50565b80601f0160208091040260200160405190810160405280929190818152602001828054610dd690613e50565b8015610e235780601f10610df857610100808354040283529160200191610e23565b820191906000526020600020905b815481529060010190602001808311610e0657829003601f168201915b50505050508152602001600782018054610e3c90613e50565b80601f0160208091040260200160405190810160405280929190818152602001828054610e6890613e50565b8015610eb55780601f10610e8a57610100808354040283529160200191610eb5565b820191906000526020600020905b815481529060010190602001808311610e9857829003601f168201915b50505050508152602001600882018054610ece90613e50565b80601f0160208091040260200160405190810160405280929190818152602001828054610efa90613e50565b8015610f475780601f10610f1c57610100808354040283529160200191610f47565b820191906000526020600020905b815481529060010190602001808311610f2a57829003601f168201915b50505050508152602001600982015481525050838381518110610f93577f4e487b7100000000000000000000000000000000000000000000000000000000600052603260045260246000fd5b60200260200101819052505b8080610faa90613eb3565b91505061088d565b505b8080610fbf90613eb3565b9150506107da565b508092505050919050565b60006040518061014001604052808460008151811061101a577f4e487b7100000000000000000000000000000000000000000000000000000000600052603260045260246000fd5b6020026020010151815260200184600181518110611061577f4e487b7100000000000000000000000000000000000000000000000000000000600052603260045260246000fd5b60200260200101518152602001846002815181106110a8577f4e487b7100000000000000000000000000000000000000000000000000000000600052603260045260246000fd5b60200260200101518152602001846003815181106110ef577f4e487b7100000000000000000000000000000000000000000000000000000000600052603260045260246000fd5b602002602001015181526020018381526020018460058151811061113c577f4e487b7100000000000000000000000000000000000000000000000000000000600052603260045260246000fd5b6020026020010151815260200184600681518110611183577f4e487b7100000000000000000000000000000000000000000000000000000000600052603260045260246000fd5b60200260200101518152602001846007815181106111ca577f4e487b7100000000000000000000000000000000000000000000000000000000600052603260045260246000fd5b6020026020010151815260200184600881518110611211577f4e487b7100000000000000000000000000000000000000000000000000000000600052603260045260246000fd5b60200260200101518152602001600081525090806001815401808255809150506001900390600052602060002090600a020160009091909190915060008201518160000190805190602001906112689291906132b5565b5060208201518160010190805190602001906112859291906132b5565b5060408201518160020190805190602001906112a29291906132b5565b5060608201518160030190805190602001906112bf9291906132b5565b5060808201518160040190805190602001906112dc92919061333b565b5060a08201518160050190805190602001906112f99291906132b5565b5060c08201518160060190805190602001906113169291906132b5565b5060e08201518160070190805190602001906113339291906132b5565b506101008201518160080190805190602001906113519291906132b5565b50610120820151816009015550505050565b6000818154811061137357600080fd5b90600052602060002090600a020160009150905080600001805461139690613e50565b80601f01602080910402602001604051908101604052809291908181526020018280546113c290613e50565b801561140f5780601f106113e45761010080835404028352916020019161140f565b820191906000526020600020905b8154815290600101906020018083116113f257829003601f168201915b50505050509080600101805461142490613e50565b80601f016020809104026020016040519081016040528092919081815260200182805461145090613e50565b801561149d5780601f106114725761010080835404028352916020019161149d565b820191906000526020600020905b81548152906001019060200180831161148057829003601f168201915b5050505050908060020180546114b290613e50565b80601f01602080910402602001604051908101604052809291908181526020018280546114de90613e50565b801561152b5780601f106115005761010080835404028352916020019161152b565b820191906000526020600020905b81548152906001019060200180831161150e57829003601f168201915b50505050509080600301805461154090613e50565b80601f016020809104026020016040519081016040528092919081815260200182805461156c90613e50565b80156115b95780601f1061158e576101008083540402835291602001916115b9565b820191906000526020600020905b81548152906001019060200180831161159c57829003601f168201915b5050505050908060050180546115ce90613e50565b80601f01602080910402602001604051908101604052809291908181526020018280546115fa90613e50565b80156116475780601f1061161c57610100808354040283529160200191611647565b820191906000526020600020905b81548152906001019060200180831161162a57829003601f168201915b50505050509080600601805461165c90613e50565b80601f016020809104026020016040519081016040528092919081815260200182805461168890613e50565b80156116d55780601f106116aa576101008083540402835291602001916116d5565b820191906000526020600020905b8154815290600101906020018083116116b857829003601f168201915b5050505050908060070180546116ea90613e50565b80601f016020809104026020016040519081016040528092919081815260200182805461171690613e50565b80156117635780601f1061173857610100808354040283529160200191611763565b820191906000526020600020905b81548152906001019060200180831161174657829003601f168201915b50505050509080600801805461177890613e50565b80601f01602080910402602001604051908101604052809291908181526020018280546117a490613e50565b80156117f15780601f106117c6576101008083540402835291602001916117f1565b820191906000526020600020905b8154815290600101906020018083116117d457829003601f168201915b5050505050908060090154905089565b60606000805b6000805490508110156119f7576040518060400160405280600181526020017f3000000000000000000000000000000000000000000000000000000000000000815250805190602001206000828154811061188b577f4e487b7100000000000000000000000000000000000000000000000000000000600052603260045260246000fd5b90600052602060002090600a02016002016040516118a99190613b6a565b604051809103902014156119e45760005b600082815481106118f4577f4e487b7100000000000000000000000000000000000000000000000000000000600052603260045260246000fd5b90600052602060002090600a0201600401805490508110156119e2576000828154811061194a577f4e487b7100000000000000000000000000000000000000000000000000000000600052603260045260246000fd5b90600052602060002090600a02016004018181548110611993577f4e487b7100000000000000000000000000000000000000000000000000000000600052603260045260246000fd5b906000526020600020016040516119aa9190613b6a565b6040518091039020858051906020012014156119cf5782806119cb90613eb3565b9350505b80806119da90613eb3565b9150506118ba565b505b80806119ef90613eb3565b915050611807565b5060008167ffffffffffffffff811115611a3a577f4e487b7100000000000000000000000000000000000000000000000000000000600052604160045260246000fd5b604051908082528060200260200182016040528015611a7357816020015b611a606133ee565b815260200190600190039081611a585790505b50905060005b600080549050811015612266576040518060400160405280600181526020017f30000000000000000000000000000000000000000000000000000000000000008152508051906020012060008281548110611afd577f4e487b7100000000000000000000000000000000000000000000000000000000600052603260045260246000fd5b90600052602060002090600a0201600201604051611b1b9190613b6a565b604051809103902014156122535760005b60008281548110611b66577f4e487b7100000000000000000000000000000000000000000000000000000000600052603260045260246000fd5b90600052602060002090600a0201600401805490508110156122515760008281548110611bbc577f4e487b7100000000000000000000000000000000000000000000000000000000600052603260045260246000fd5b90600052602060002090600a02016004018181548110611c05577f4e487b7100000000000000000000000000000000000000000000000000000000600052603260045260246000fd5b90600052602060002001604051611c1c9190613b6a565b60405180910390208680519060200120141561223e5760008281548110611c6c577f4e487b7100000000000000000000000000000000000000000000000000000000600052603260045260246000fd5b90600052602060002090600a020160405180610140016040529081600082018054611c9690613e50565b80601f0160208091040260200160405190810160405280929190818152602001828054611cc290613e50565b8015611d0f5780601f10611ce457610100808354040283529160200191611d0f565b820191906000526020600020905b815481529060010190602001808311611cf257829003601f168201915b50505050508152602001600182018054611d2890613e50565b80601f0160208091040260200160405190810160405280929190818152602001828054611d5490613e50565b8015611da15780601f10611d7657610100808354040283529160200191611da1565b820191906000526020600020905b815481529060010190602001808311611d8457829003601f168201915b50505050508152602001600282018054611dba90613e50565b80601f0160208091040260200160405190810160405280929190818152602001828054611de690613e50565b8015611e335780601f10611e0857610100808354040283529160200191611e33565b820191906000526020600020905b815481529060010190602001808311611e1657829003601f168201915b50505050508152602001600382018054611e4c90613e50565b80601f0160208091040260200160405190810160405280929190818152602001828054611e7890613e50565b8015611ec55780601f10611e9a57610100808354040283529160200191611ec5565b820191906000526020600020905b815481529060010190602001808311611ea857829003601f168201915b5050505050815260200160048201805480602002602001604051908101604052809291908181526020016000905b82821015611f9f578382906000526020600020018054611f1290613e50565b80601f0160208091040260200160405190810160405280929190818152602001828054611f3e90613e50565b8015611f8b5780601f10611f6057610100808354040283529160200191611f8b565b820191906000526020600020905b815481529060010190602001808311611f6e57829003601f168201915b505050505081526020019060010190611ef3565b505050508152602001600582018054611fb790613e50565b80601f0160208091040260200160405190810160405280929190818152602001828054611fe390613e50565b80156120305780601f1061200557610100808354040283529160200191612030565b820191906000526020600020905b81548152906001019060200180831161201357829003601f168201915b5050505050815260200160068201805461204990613e50565b80601f016020809104026020016040519081016040528092919081815260200182805461207590613e50565b80156120c25780601f10612097576101008083540402835291602001916120c2565b820191906000526020600020905b8154815290600101906020018083116120a557829003601f168201915b505050505081526020016007820180546120db90613e50565b80601f016020809104026020016040519081016040528092919081815260200182805461210790613e50565b80156121545780601f1061212957610100808354040283529160200191612154565b820191906000526020600020905b81548152906001019060200180831161213757829003601f168201915b5050505050815260200160088201805461216d90613e50565b80601f016020809104026020016040519081016040528092919081815260200182805461219990613e50565b80156121e65780601f106121bb576101008083540402835291602001916121e6565b820191906000526020600020905b8154815290600101906020018083116121c957829003601f168201915b50505050508152602001600982015481525050838381518110612232577f4e487b7100000000000000000000000000000000000000000000000000000000600052603260045260246000fd5b60200260200101819052505b808061224990613eb3565b915050611b2c565b505b808061225e90613eb3565b915050611a79565b508092505050919050565b60606001805480602002602001604051908101604052809291908181526020016000905b8282101561283b57838290600052602060002090600a0201604051806101400160405290816000820180546122c990613e50565b80601f01602080910402602001604051908101604052809291908181526020018280546122f590613e50565b80156123425780601f1061231757610100808354040283529160200191612342565b820191906000526020600020905b81548152906001019060200180831161232557829003601f168201915b5050505050815260200160018201805461235b90613e50565b80601f016020809104026020016040519081016040528092919081815260200182805461238790613e50565b80156123d45780601f106123a9576101008083540402835291602001916123d4565b820191906000526020600020905b8154815290600101906020018083116123b757829003601f168201915b505050505081526020016002820180546123ed90613e50565b80601f016020809104026020016040519081016040528092919081815260200182805461241990613e50565b80156124665780601f1061243b57610100808354040283529160200191612466565b820191906000526020600020905b81548152906001019060200180831161244957829003601f168201915b5050505050815260200160038201805461247f90613e50565b80601f01602080910402602001604051908101604052809291908181526020018280546124ab90613e50565b80156124f85780601f106124cd576101008083540402835291602001916124f8565b820191906000526020600020905b8154815290600101906020018083116124db57829003601f168201915b5050505050815260200160048201805480602002602001604051908101604052809291908181526020016000905b828210156125d257838290600052602060002001805461254590613e50565b80601f016020809104026020016040519081016040528092919081815260200182805461257190613e50565b80156125be5780601f10612593576101008083540402835291602001916125be565b820191906000526020600020905b8154815290600101906020018083116125a157829003601f168201915b505050505081526020019060010190612526565b5050505081526020016005820180546125ea90613e50565b80601f016020809104026020016040519081016040528092919081815260200182805461261690613e50565b80156126635780601f1061263857610100808354040283529160200191612663565b820191906000526020600020905b81548152906001019060200180831161264657829003601f168201915b5050505050815260200160068201805461267c90613e50565b80601f01602080910402602001604051908101604052809291908181526020018280546126a890613e50565b80156126f55780601f106126ca576101008083540402835291602001916126f5565b820191906000526020600020905b8154815290600101906020018083116126d857829003601f168201915b5050505050815260200160078201805461270e90613e50565b80601f016020809104026020016040519081016040528092919081815260200182805461273a90613e50565b80156127875780601f1061275c57610100808354040283529160200191612787565b820191906000526020600020905b81548152906001019060200180831161276a57829003601f168201915b505050505081526020016008820180546127a090613e50565b80601f01602080910402602001604051908101604052809291908181526020018280546127cc90613e50565b80156128195780601f106127ee57610100808354040283529160200191612819565b820191906000526020600020905b8154815290600101906020018083116127fc57829003601f168201915b5050505050815260200160098201548152505081526020019060010190612295565b50505050905090565b60606000805480602002602001604051908101604052809291908181526020016000905b82821015612e0e57838290600052602060002090600a02016040518061014001604052908160008201805461289c90613e50565b80601f01602080910402602001604051908101604052809291908181526020018280546128c890613e50565b80156129155780601f106128ea57610100808354040283529160200191612915565b820191906000526020600020905b8154815290600101906020018083116128f857829003601f168201915b5050505050815260200160018201805461292e90613e50565b80601f016020809104026020016040519081016040528092919081815260200182805461295a90613e50565b80156129a75780601f1061297c576101008083540402835291602001916129a7565b820191906000526020600020905b81548152906001019060200180831161298a57829003601f168201915b505050505081526020016002820180546129c090613e50565b80601f01602080910402602001604051908101604052809291908181526020018280546129ec90613e50565b8015612a395780601f10612a0e57610100808354040283529160200191612a39565b820191906000526020600020905b815481529060010190602001808311612a1c57829003601f168201915b50505050508152602001600382018054612a5290613e50565b80601f0160208091040260200160405190810160405280929190818152602001828054612a7e90613e50565b8015612acb5780601f10612aa057610100808354040283529160200191612acb565b820191906000526020600020905b815481529060010190602001808311612aae57829003601f168201915b5050505050815260200160048201805480602002602001604051908101604052809291908181526020016000905b82821015612ba5578382906000526020600020018054612b1890613e50565b80601f0160208091040260200160405190810160405280929190818152602001828054612b4490613e50565b8015612b915780601f10612b6657610100808354040283529160200191612b91565b820191906000526020600020905b815481529060010190602001808311612b7457829003601f168201915b505050505081526020019060010190612af9565b505050508152602001600582018054612bbd90613e50565b80601f0160208091040260200160405190810160405280929190818152602001828054612be990613e50565b8015612c365780601f10612c0b57610100808354040283529160200191612c36565b820191906000526020600020905b815481529060010190602001808311612c1957829003601f168201915b50505050508152602001600682018054612c4f90613e50565b80601f0160208091040260200160405190810160405280929190818152602001828054612c7b90613e50565b8015612cc85780601f10612c9d57610100808354040283529160200191612cc8565b820191906000526020600020905b815481529060010190602001808311612cab57829003601f168201915b50505050508152602001600782018054612ce190613e50565b80601f0160208091040260200160405190810160405280929190818152602001828054612d0d90613e50565b8015612d5a5780601f10612d2f57610100808354040283529160200191612d5a565b820191906000526020600020905b815481529060010190602001808311612d3d57829003601f168201915b50505050508152602001600882018054612d7390613e50565b80601f0160208091040260200160405190810160405280929190818152602001828054612d9f90613e50565b8015612dec5780601f10612dc157610100808354040283529160200191612dec565b820191906000526020600020905b815481529060010190602001808311612dcf57829003601f168201915b5050505050815260200160098201548152505081526020019060010190612868565b50505050905090565b60018181548110612e2757600080fd5b90600052602060002090600a0201600091509050806000018054612e4a90613e50565b80601f0160208091040260200160405190810160405280929190818152602001828054612e7690613e50565b8015612ec35780601f10612e9857610100808354040283529160200191612ec3565b820191906000526020600020905b815481529060010190602001808311612ea657829003601f168201915b505050505090806001018054612ed890613e50565b80601f0160208091040260200160405190810160405280929190818152602001828054612f0490613e50565b8015612f515780601f10612f2657610100808354040283529160200191612f51565b820191906000526020600020905b815481529060010190602001808311612f3457829003601f168201915b505050505090806002018054612f6690613e50565b80601f0160208091040260200160405190810160405280929190818152602001828054612f9290613e50565b8015612fdf5780601f10612fb457610100808354040283529160200191612fdf565b820191906000526020600020905b815481529060010190602001808311612fc257829003601f168201915b505050505090806003018054612ff490613e50565b80601f016020809104026020016040519081016040528092919081815260200182805461302090613e50565b801561306d5780601f106130425761010080835404028352916020019161306d565b820191906000526020600020905b81548152906001019060200180831161305057829003601f168201915b50505050509080600501805461308290613e50565b80601f01602080910402602001604051908101604052809291908181526020018280546130ae90613e50565b80156130fb5780601f106130d0576101008083540402835291602001916130fb565b820191906000526020600020905b8154815290600101906020018083116130de57829003601f168201915b50505050509080600601805461311090613e50565b80601f016020809104026020016040519081016040528092919081815260200182805461313c90613e50565b80156131895780601f1061315e57610100808354040283529160200191613189565b820191906000526020600020905b81548152906001019060200180831161316c57829003601f168201915b50505050509080600701805461319e90613e50565b80601f01602080910402602001604051908101604052809291908181526020018280546131ca90613e50565b80156132175780601f106131ec57610100808354040283529160200191613217565b820191906000526020600020905b8154815290600101906020018083116131fa57829003601f168201915b50505050509080600801805461322c90613e50565b80601f016020809104026020016040519081016040528092919081815260200182805461325890613e50565b80156132a55780601f1061327a576101008083540402835291602001916132a5565b820191906000526020600020905b81548152906001019060200180831161328857829003601f168201915b5050505050908060090154905089565b8280546132c190613e50565b90600052602060002090601f0160209004810192826132e3576000855561332a565b82601f106132fc57805160ff191683800117855561332a565b8280016001018555821561332a579182015b8281111561332957825182559160200191906001019061330e565b5b5090506133379190613441565b5090565b82805482825590600052602060002090810192821561338a579160200282015b828111156133895782518290805190602001906133799291906132b5565b509160200191906001019061335b565b5b509050613397919061345e565b5090565b604051806101400160405280606081526020016060815260200160608152602001606081526020016060815260200160608152602001606081526020016060815260200160608152602001600081525090565b604051806101400160405280606081526020016060815260200160608152602001606081526020016060815260200160608152602001606081526020016060815260200160608152602001600081525090565b5b8082111561345a576000816000905550600101613442565b5090565b5b8082111561347e57600081816134759190613482565b5060010161345f565b5090565b50805461348e90613e50565b6000825580601f106134a057506134bf565b601f0160209004906000526020600020908101906134be9190613441565b5b50565b60006134d56134d084613caf565b613c8a565b9050808382526020820190508260005b8581101561351557813585016134fb8882613587565b8452602084019350602083019250506001810190506134e5565b5050509392505050565b600061353261352d84613cdb565b613c8a565b90508281526020810184848401111561354a57600080fd5b613555848285613e0e565b509392505050565b600082601f83011261356e57600080fd5b813561357e8482602086016134c2565b91505092915050565b600082601f83011261359857600080fd5b81356135a884826020860161351f565b91505092915050565b6000813590506135c081613f9a565b92915050565b600080604083850312156135d957600080fd5b600083013567ffffffffffffffff8111156135f357600080fd5b6135ff8582860161355d565b925050602083013567ffffffffffffffff81111561361c57600080fd5b6136288582860161355d565b9150509250929050565b60006020828403121561364457600080fd5b600082013567ffffffffffffffff81111561365e57600080fd5b61366a84828501613587565b91505092915050565b60006020828403121561368557600080fd5b6000613693848285016135b1565b91505092915050565b60006136a883836138b6565b905092915050565b60006136bc8383613928565b905092915050565b60006136d08383613a3a565b905092915050565b60006136e382613d51565b6136ed8185613da4565b9350836020820285016136ff85613d0c565b8060005b8581101561373b578484038952815161371c858261369c565b945061372783613d7d565b925060208a01995050600181019050613703565b50829750879550505050505092915050565b600061375882613d5c565b6137628185613db5565b93508360208202850161377485613d1c565b8060005b858110156137b0578484038952815161379185826136b0565b945061379c83613d8a565b925060208a01995050600181019050613778565b50829750879550505050505092915050565b60006137cd82613d67565b6137d78185613dc6565b9350836020820285016137e985613d2c565b8060005b85811015613825578484038952815161380685826136c4565b945061381183613d97565b925060208a019950506001810190506137ed565b50829750879550505050505092915050565b6000815461384481613e50565b61384e8186613dd7565b94506001821660008114613869576001811461387a576138ad565b60ff198316865281860193506138ad565b61388385613d3c565b60005b838110156138a557815481890152600182019150602081019050613886565b838801955050505b50505092915050565b60006138c182613d72565b6138cb8185613de2565b93506138db818560208601613e1d565b6138e481613f89565b840191505092915050565b60006138fa82613d72565b6139048185613df3565b9350613914818560208601613e1d565b61391d81613f89565b840191505092915050565b600061014083016000830151848203600086015261394682826138b6565b9150506020830151848203602086015261396082826138b6565b9150506040830151848203604086015261397a82826138b6565b9150506060830151848203606086015261399482826138b6565b915050608083015184820360808601526139ae82826136d8565b91505060a083015184820360a08601526139c882826138b6565b91505060c083015184820360c08601526139e282826138b6565b91505060e083015184820360e08601526139fc82826138b6565b915050610100830151848203610100860152613a1882826138b6565b915050610120830151613a2f610120860182613b4c565b508091505092915050565b6000610140830160008301518482036000860152613a5882826138b6565b91505060208301518482036020860152613a7282826138b6565b91505060408301518482036040860152613a8c82826138b6565b91505060608301518482036060860152613aa682826138b6565b91505060808301518482036080860152613ac082826136d8565b91505060a083015184820360a0860152613ada82826138b6565b91505060c083015184820360c0860152613af482826138b6565b91505060e083015184820360e0860152613b0e82826138b6565b915050610100830151848203610100860152613b2a82826138b6565b915050610120830151613b41610120860182613b4c565b508091505092915050565b613b5581613e04565b82525050565b613b6481613e04565b82525050565b6000613b768284613837565b915081905092915050565b60006020820190508181036000830152613b9b818461374d565b905092915050565b60006020820190508181036000830152613bbd81846137c2565b905092915050565b6000610120820190508181036000830152613be0818c6138ef565b90508181036020830152613bf4818b6138ef565b90508181036040830152613c08818a6138ef565b90508181036060830152613c1c81896138ef565b90508181036080830152613c3081886138ef565b905081810360a0830152613c4481876138ef565b905081810360c0830152613c5881866138ef565b905081810360e0830152613c6c81856138ef565b9050613c7c610100830184613b5b565b9a9950505050505050505050565b6000613c94613ca5565b9050613ca08282613e82565b919050565b6000604051905090565b600067ffffffffffffffff821115613cca57613cc9613f5a565b5b602082029050602081019050919050565b600067ffffffffffffffff821115613cf657613cf5613f5a565b5b613cff82613f89565b9050602081019050919050565b6000819050602082019050919050565b6000819050602082019050919050565b6000819050602082019050919050565b60008190508160005260206000209050919050565b600081519050919050565b600081519050919050565b600081519050919050565b600081519050919050565b6000602082019050919050565b6000602082019050919050565b6000602082019050919050565b600082825260208201905092915050565b600082825260208201905092915050565b600082825260208201905092915050565b600081905092915050565b600082825260208201905092915050565b600082825260208201905092915050565b6000819050919050565b82818337600083830152505050565b60005b83811015613e3b578082015181840152602081019050613e20565b83811115613e4a576000848401525b50505050565b60006002820490506001821680613e6857607f821691505b60208210811415613e7c57613e7b613f2b565b5b50919050565b613e8b82613f89565b810181811067ffffffffffffffff82111715613eaa57613ea9613f5a565b5b80604052505050565b6000613ebe82613e04565b91507fffffffffffffffffffffffffffffffffffffffffffffffffffffffffffffffff821415613ef157613ef0613efc565b5b600182019050919050565b7f4e487b7100000000000000000000000000000000000000000000000000000000600052601160045260246000fd5b7f4e487b7100000000000000000000000000000000000000000000000000000000600052602260045260246000fd5b7f4e487b7100000000000000000000000000000000000000000000000000000000600052604160045260246000fd5b6000601f19601f8301169050919050565b613fa381613e04565b8114613fae57600080fd5b5056fea26469706673582212206dc180e2721cab49422b2a8a7f62d7dfc8988d0e6ad96be3b8029b17a6f37ad864736f6c63430008030033",
  "immutableReferences": {},
  "source": "// SPDX-License-Identifier: MIT\r\npragma solidity >=0.4.22 <0.9.0;\r\ncontract notification\r\n{\r\n    struct notification1{\r\n        string uid;\r\n        string type1;\r\n        string status;\r\n        string sid;\r\n        string[] rid;\r\n        string notification2;\r\n        string attachment;\r\n        string e1;\r\n        string timestamp;\r\n        uint extra;\r\n    }\r\n    struct mention{\r\n        string uid;\r\n        string type1;\r\n        string status;\r\n        string sid;\r\n        string[] rid;\r\n        string notification2;\r\n        string attachment;\r\n        string e1;\r\n        string timestamp;\r\n        uint extra;\r\n    }\r\n    notification1[] public pushnotification;\r\n    mention[] public pushmention;\r\n\r\n    function insertNotification(string[] memory ar,string[] memory rid) public\r\n    {\r\n        pushnotification.push(notification1(ar[0],ar[1],ar[2],ar[3],rid,ar[5],ar[6],ar[7],ar[8],0));\r\n    }\r\n    function insertMention(string[] memory ar,string[] memory mid) public\r\n    {\r\n        pushmention.push(mention(ar[0],ar[1],ar[2],ar[3],mid,ar[5],ar[6],ar[7],ar[8],0));\r\n    }\r\n    function getAllNotification() public  view returns(notification1[] memory)\r\n    {\r\n        return(pushnotification);\r\n    }\r\n    function getAllMentions() public view returns(mention[] memory)\r\n    {\r\n        return(pushmention);\r\n    }\r\n    function getNotification(string memory uid) view  public returns(notification1[] memory)\r\n    {\r\n        uint c = 0;\r\n        for(uint i = 0;i<pushnotification.length;i++)\r\n        {\r\n            if(keccak256(bytes(pushnotification[i].status))==keccak256(bytes(\"0\")))\r\n            {\r\n                for(uint j = 0;j<pushnotification[i].rid.length;j++)\r\n                {\r\n                    if(keccak256(bytes(uid))==keccak256(bytes(pushnotification[i].rid[j])))\r\n                    {\r\n                        c++;\r\n                    }\r\n                }\r\n            }\r\n        }\r\n        notification1[] memory  a =  new notification1[](c);\r\n          for(uint i = 0;i<pushnotification.length;i++)\r\n        {\r\n            if(keccak256(bytes(pushnotification[i].status))==keccak256(bytes(\"0\")))\r\n            {\r\n                for(uint j = 0;j<pushnotification[i].rid.length;j++)\r\n                {\r\n                    if(keccak256(bytes(uid))==keccak256(bytes(pushnotification[i].rid[j])))\r\n                    {\r\n                            a[i] = pushnotification[i];\r\n                    }\r\n                }\r\n            }\r\n        }\r\n           return(a);\r\n    }\r\n\r\n    function getMention(string memory username) view  public returns(mention[] memory)\r\n    {\r\n        uint c = 0;\r\n        for(uint i = 0;i<pushmention.length;i++)\r\n        {\r\n            if(keccak256(bytes(pushmention[i].status))==keccak256(bytes(\"0\")))\r\n            {\r\n                for(uint j = 0;j<pushnotification[i].rid.length;j++)\r\n                {\r\n                    if(keccak256(bytes(username))==keccak256(bytes(pushnotification[i].rid[j])))\r\n                    {\r\n                        c++;\r\n                    }\r\n                }\r\n            }\r\n        }\r\n        mention[] memory  a =  new mention[](c);\r\n          for(uint i = 0;i<pushmention.length;i++)\r\n        {\r\n            if(keccak256(bytes(pushmention[i].status))==keccak256(bytes(\"0\")))\r\n            {\r\n                for(uint j = 0;j<pushmention[i].rid.length;j++)\r\n                {\r\n                    if(keccak256(bytes(username))==keccak256(bytes(pushmention[i].rid[j])))\r\n                    {\r\n                            a[i] = pushmention[i];\r\n                    }\r\n                }\r\n            }\r\n        }\r\n           return(a);\r\n    }\r\n}",
  "sourcePath": "C:/Users/aadit/tdn1/contracts/notification.sol",
  "compiler": {
    "name": "solc",
    "version": "0.8.3+commit.8d00100c.Emscripten.clang"
  },
  "schemaVersion": "3.3.4",
  "updatedAt": "2021-05-29T12:47:37.726Z",
  "networkType": "ethereum",
  "devdoc": {
    "kind": "dev",
    "methods": {},
    "version": 1
  },
  "userdoc": {
    "kind": "user",
    "methods": {},
    "version": 1
  }
}