{
  "contractName": "profilecontract",
  "abi": [
    {
      "inputs": [
        {
          "internalType": "uint256",
          "name": "",
          "type": "uint256"
        }
      ],
      "name": "_follower",
      "outputs": [
        {
          "internalType": "string",
          "name": "uid",
          "type": "string"
        },
        {
          "internalType": "string",
          "name": "fid",
          "type": "string"
        },
        {
          "internalType": "string",
          "name": "firstname",
          "type": "string"
        },
        {
          "internalType": "string",
          "name": "lastname",
          "type": "string"
        },
        {
          "internalType": "string",
          "name": "username",
          "type": "string"
        },
        {
          "internalType": "string",
          "name": "status",
          "type": "string"
        },
        {
          "internalType": "string",
          "name": "profile",
          "type": "string"
        }
      ],
      "stateMutability": "view",
      "type": "function",
      "constant": true
    },
    {
      "inputs": [
        {
          "internalType": "uint256",
          "name": "",
          "type": "uint256"
        }
      ],
      "name": "_profile",
      "outputs": [
        {
          "internalType": "string",
          "name": "uid",
          "type": "string"
        },
        {
          "internalType": "string",
          "name": "profile",
          "type": "string"
        },
        {
          "internalType": "string",
          "name": "cover",
          "type": "string"
        }
      ],
      "stateMutability": "view",
      "type": "function",
      "constant": true
    },
    {
      "inputs": [
        {
          "internalType": "string",
          "name": "_phone",
          "type": "string"
        },
        {
          "internalType": "string",
          "name": "_email",
          "type": "string"
        }
      ],
      "name": "check_data",
      "outputs": [
        {
          "internalType": "bool",
          "name": "",
          "type": "bool"
        },
        {
          "internalType": "bool",
          "name": "",
          "type": "bool"
        }
      ],
      "stateMutability": "view",
      "type": "function",
      "constant": true
    },
    {
      "inputs": [
        {
          "internalType": "string",
          "name": "_uid",
          "type": "string"
        }
      ],
      "name": "getAllData",
      "outputs": [
        {
          "internalType": "string",
          "name": "",
          "type": "string"
        },
        {
          "internalType": "string",
          "name": "",
          "type": "string"
        },
        {
          "internalType": "string",
          "name": "",
          "type": "string"
        }
      ],
      "stateMutability": "view",
      "type": "function",
      "constant": true
    },
    {
      "inputs": [
        {
          "internalType": "string",
          "name": "_uid",
          "type": "string"
        }
      ],
      "name": "getData",
      "outputs": [
        {
          "components": [
            {
              "internalType": "string",
              "name": "firstname",
              "type": "string"
            },
            {
              "internalType": "string",
              "name": "lastname",
              "type": "string"
            },
            {
              "internalType": "string",
              "name": "username",
              "type": "string"
            },
            {
              "internalType": "string",
              "name": "uid",
              "type": "string"
            }
          ],
          "internalType": "struct maincontract.userdata[]",
          "name": "",
          "type": "tuple[]"
        }
      ],
      "stateMutability": "view",
      "type": "function",
      "constant": true
    },
    {
      "inputs": [
        {
          "internalType": "string",
          "name": "_phone",
          "type": "string"
        },
        {
          "internalType": "string",
          "name": "_password",
          "type": "string"
        }
      ],
      "name": "login",
      "outputs": [
        {
          "internalType": "bool",
          "name": "",
          "type": "bool"
        },
        {
          "internalType": "string",
          "name": "",
          "type": "string"
        },
        {
          "internalType": "string",
          "name": "",
          "type": "string"
        },
        {
          "internalType": "string",
          "name": "",
          "type": "string"
        },
        {
          "internalType": "string",
          "name": "",
          "type": "string"
        }
      ],
      "stateMutability": "view",
      "type": "function",
      "constant": true
    },
    {
      "inputs": [
        {
          "internalType": "string",
          "name": "_firstname",
          "type": "string"
        },
        {
          "internalType": "string",
          "name": "_lastname",
          "type": "string"
        },
        {
          "internalType": "string",
          "name": "_uid",
          "type": "string"
        },
        {
          "internalType": "string",
          "name": "_phone",
          "type": "string"
        },
        {
          "internalType": "string",
          "name": "_email",
          "type": "string"
        },
        {
          "internalType": "string",
          "name": "_username",
          "type": "string"
        },
        {
          "internalType": "string",
          "name": "_password",
          "type": "string"
        }
      ],
      "name": "register",
      "outputs": [],
      "stateMutability": "nonpayable",
      "type": "function"
    },
    {
      "inputs": [],
      "name": "send_user",
      "outputs": [
        {
          "internalType": "string[]",
          "name": "",
          "type": "string[]"
        }
      ],
      "stateMutability": "view",
      "type": "function",
      "constant": true
    },
    {
      "inputs": [
        {
          "internalType": "uint256",
          "name": "",
          "type": "uint256"
        }
      ],
      "name": "users",
      "outputs": [
        {
          "internalType": "string",
          "name": "firstname",
          "type": "string"
        },
        {
          "internalType": "string",
          "name": "lastname",
          "type": "string"
        },
        {
          "internalType": "string",
          "name": "uid",
          "type": "string"
        },
        {
          "internalType": "string",
          "name": "phone",
          "type": "string"
        },
        {
          "internalType": "string",
          "name": "email",
          "type": "string"
        },
        {
          "internalType": "string",
          "name": "username",
          "type": "string"
        },
        {
          "internalType": "string",
          "name": "password",
          "type": "string"
        },
        {
          "internalType": "string",
          "name": "e1",
          "type": "string"
        },
        {
          "internalType": "uint256",
          "name": "id",
          "type": "uint256"
        }
      ],
      "stateMutability": "view",
      "type": "function",
      "constant": true
    },
    {
      "inputs": [
        {
          "internalType": "string",
          "name": "_uid",
          "type": "string"
        }
      ],
      "name": "getProfile",
      "outputs": [
        {
          "internalType": "string",
          "name": "",
          "type": "string"
        },
        {
          "internalType": "string",
          "name": "",
          "type": "string"
        }
      ],
      "stateMutability": "view",
      "type": "function",
      "constant": true
    },
    {
      "inputs": [],
      "name": "sendAllFollowerData",
      "outputs": [
        {
          "components": [
            {
              "internalType": "string",
              "name": "uid",
              "type": "string"
            },
            {
              "internalType": "string",
              "name": "fid",
              "type": "string"
            },
            {
              "internalType": "string",
              "name": "firstname",
              "type": "string"
            },
            {
              "internalType": "string",
              "name": "lastname",
              "type": "string"
            },
            {
              "internalType": "string",
              "name": "username",
              "type": "string"
            },
            {
              "internalType": "string",
              "name": "status",
              "type": "string"
            },
            {
              "internalType": "string",
              "name": "profile",
              "type": "string"
            }
          ],
          "internalType": "struct profilecontract.follower[]",
          "name": "",
          "type": "tuple[]"
        }
      ],
      "stateMutability": "view",
      "type": "function",
      "constant": true
    },
    {
      "inputs": [],
      "name": "sendAllProfile",
      "outputs": [
        {
          "components": [
            {
              "internalType": "string",
              "name": "uid",
              "type": "string"
            },
            {
              "internalType": "string",
              "name": "profile",
              "type": "string"
            },
            {
              "internalType": "string",
              "name": "cover",
              "type": "string"
            }
          ],
          "internalType": "struct profilecontract.profile[]",
          "name": "",
          "type": "tuple[]"
        }
      ],
      "stateMutability": "view",
      "type": "function",
      "constant": true
    },
    {
      "inputs": [
        {
          "internalType": "string",
          "name": "_uid",
          "type": "string"
        },
        {
          "internalType": "string",
          "name": "_e12",
          "type": "string"
        }
      ],
      "name": "updateProfile",
      "outputs": [],
      "stateMutability": "nonpayable",
      "type": "function"
    },
    {
      "inputs": [
        {
          "internalType": "string",
          "name": "_uid",
          "type": "string"
        },
        {
          "internalType": "string",
          "name": "_e12",
          "type": "string"
        }
      ],
      "name": "updateCover",
      "outputs": [],
      "stateMutability": "nonpayable",
      "type": "function"
    },
    {
      "inputs": [
        {
          "internalType": "string",
          "name": "_uid",
          "type": "string"
        }
      ],
      "name": "checkProfile",
      "outputs": [
        {
          "internalType": "bool",
          "name": "",
          "type": "bool"
        },
        {
          "internalType": "bool",
          "name": "",
          "type": "bool"
        },
        {
          "internalType": "uint256",
          "name": "",
          "type": "uint256"
        }
      ],
      "stateMutability": "view",
      "type": "function",
      "constant": true
    },
    {
      "inputs": [
        {
          "internalType": "string",
          "name": "_uid",
          "type": "string"
        },
        {
          "internalType": "string",
          "name": "_fid",
          "type": "string"
        }
      ],
      "name": "checkFriend",
      "outputs": [
        {
          "internalType": "bool",
          "name": "",
          "type": "bool"
        },
        {
          "internalType": "string",
          "name": "",
          "type": "string"
        }
      ],
      "stateMutability": "view",
      "type": "function",
      "constant": true
    },
    {
      "inputs": [
        {
          "internalType": "string",
          "name": "_uid",
          "type": "string"
        },
        {
          "internalType": "string",
          "name": "_fid",
          "type": "string"
        }
      ],
      "name": "deleteFriend",
      "outputs": [],
      "stateMutability": "nonpayable",
      "type": "function"
    },
    {
      "inputs": [
        {
          "internalType": "string",
          "name": "_uid",
          "type": "string"
        },
        {
          "internalType": "string",
          "name": "_fid",
          "type": "string"
        }
      ],
      "name": "bothFriend",
      "outputs": [],
      "stateMutability": "nonpayable",
      "type": "function"
    },
    {
      "inputs": [
        {
          "internalType": "string",
          "name": "_uid",
          "type": "string"
        },
        {
          "internalType": "string",
          "name": "_fid",
          "type": "string"
        },
        {
          "internalType": "string",
          "name": "firstname1",
          "type": "string"
        },
        {
          "internalType": "string",
          "name": "lastname1",
          "type": "string"
        },
        {
          "internalType": "string",
          "name": "username1",
          "type": "string"
        },
        {
          "internalType": "string",
          "name": "profile1",
          "type": "string"
        },
        {
          "internalType": "string",
          "name": "firstname2",
          "type": "string"
        },
        {
          "internalType": "string",
          "name": "lastname2",
          "type": "string"
        },
        {
          "internalType": "string",
          "name": "username2",
          "type": "string"
        },
        {
          "internalType": "string",
          "name": "profile2",
          "type": "string"
        }
      ],
      "name": "insert_follower",
      "outputs": [],
      "stateMutability": "nonpayable",
      "type": "function"
    },
    {
      "inputs": [
        {
          "internalType": "string",
          "name": "_uid",
          "type": "string"
        },
        {
          "internalType": "string",
          "name": "_profile1",
          "type": "string"
        },
        {
          "internalType": "string",
          "name": "_cover",
          "type": "string"
        }
      ],
      "name": "insert_profile",
      "outputs": [],
      "stateMutability": "nonpayable",
      "type": "function"
    },
    {
      "inputs": [
        {
          "internalType": "string",
          "name": "_uid",
          "type": "string"
        }
      ],
      "name": "getFriendCount",
      "outputs": [
        {
          "internalType": "uint256",
          "name": "",
          "type": "uint256"
        },
        {
          "internalType": "uint256",
          "name": "",
          "type": "uint256"
        }
      ],
      "stateMutability": "view",
      "type": "function",
      "constant": true
    },
    {
      "inputs": [
        {
          "internalType": "string",
          "name": "_uid",
          "type": "string"
        }
      ],
      "name": "getfriend",
      "outputs": [
        {
          "components": [
            {
              "internalType": "string",
              "name": "uid",
              "type": "string"
            },
            {
              "internalType": "string",
              "name": "fid",
              "type": "string"
            },
            {
              "internalType": "string",
              "name": "firstname",
              "type": "string"
            },
            {
              "internalType": "string",
              "name": "lastname",
              "type": "string"
            },
            {
              "internalType": "string",
              "name": "username",
              "type": "string"
            },
            {
              "internalType": "string",
              "name": "status",
              "type": "string"
            },
            {
              "internalType": "string",
              "name": "profile",
              "type": "string"
            }
          ],
          "internalType": "struct profilecontract.follower[]",
          "name": "",
          "type": "tuple[]"
        }
      ],
      "stateMutability": "view",
      "type": "function",
      "constant": true
    }
  ],
  "bytecode": "0x6080604052600160005534801561001557600080fd5b506156f780620000266000396000f3fe608060405234801561001057600080fd5b50600436106101425760003560e01c8063939fa322116100b8578063bf6ef2f51161007c578063bf6ef2f5146103da578063c9d3cc6a1461040b578063d557c03214610427578063dfc25d4314610443578063edeb11901461045f578063fd0486a71461049057610142565b8063939fa322146103205780639ba3944f146103525780639d0c9fca14610370578063ae55c8881461038c578063b2dd0186146103bc57610142565b806358467dbc1161010a57806358467dbc1461021a5780635d0aa2581461024e578063727a5e841461026a5780637378c48c1461029a57806374675547146102d05780638e54ca4a1461030257610142565b8063019269e2146101475780630de986931461016357806321472cce146101945780632becedac146101c6578063365b98b2146101e2575b600080fd5b610161600480360381019061015c91906146c6565b6104c1565b005b61017d60048036038101906101789190614685565b610765565b60405161018b929190615170565b60405180910390f35b6101ae60048036038101906101a99190614685565b6109b8565b6040516101bd9392919061509a565b60405180910390f35b6101e060048036038101906101db9190614732565b610bc9565b005b6101fc60048036038101906101f79190614ada565b610c6d565b60405161021199989796959493929190615293565b60405180910390f35b610234600480360381019061022f91906146c6565b61110b565b604051610245959493929190615101565b60405180910390f35b6102686004803603810190610263919061490f565b611599565b005b610284600480360381019061027f9190614685565b611865565b604051610291919061500b565b60405180910390f35b6102b460048036038101906102af9190614ada565b612102565b6040516102c797969594939291906151f3565b60405180910390f35b6102ea60048036038101906102e59190614ada565b61250c565b6040516102f9939291906151a7565b60405180910390f35b61030a6126de565b604051610317919061500b565b60405180910390f35b61033a60048036038101906103359190614685565b612b3b565b604051610349939291906151a7565b60405180910390f35b61035a612e6b565b6040516103679190614fe9565b60405180910390f35b61038a600480360381019061038591906147c9565b61302d565b005b6103a660048036038101906103a19190614685565b6131e4565b6040516103b3919061504f565b60405180910390f35b6103c4613764565b6040516103d1919061502d565b60405180910390f35b6103f460048036038101906103ef91906146c6565b613979565b604051610402929190615071565b60405180910390f35b610425600480360381019061042091906146c6565b613a98565b005b610441600480360381019061043c91906146c6565b613b8f565b005b61045d600480360381019061045891906146c6565b613c86565b005b61047960048036038101906104749190614685565b613f04565b604051610487929190615358565b60405180910390f35b6104aa60048036038101906104a591906146c6565b6142cb565b6040516104b89291906150d1565b60405180910390f35b60005b60028054905081101561076057828051906020012060028281548110610513577f4e487b7100000000000000000000000000000000000000000000000000000000600052603260045260246000fd5b90600052602060002090600702016000016040516105319190614fd2565b60405180910390201480156105ab5750818051906020012060028281548110610583577f4e487b7100000000000000000000000000000000000000000000000000000000600052603260045260246000fd5b90600052602060002090600702016001016040516105a19190614fd2565b6040518091039020145b8061068c57508180519060200120600282815481106105f3577f4e487b7100000000000000000000000000000000000000000000000000000000600052603260045260246000fd5b90600052602060002090600702016000016040516106119190614fd2565b604051809103902014801561068b5750828051906020012060028281548110610663577f4e487b7100000000000000000000000000000000000000000000000000000000600052603260045260246000fd5b90600052602060002090600702016001016040516106819190614fd2565b6040518091039020145b5b1561074d57600281815481106106cb577f4e487b7100000000000000000000000000000000000000000000000000000000600052603260045260246000fd5b9060005260206000209060070201600080820160006106ea91906144c0565b6001820160006106fa91906144c0565b60028201600061070a91906144c0565b60038201600061071a91906144c0565b60048201600061072a91906144c0565b60058201600061073a91906144c0565b60068201600061074a91906144c0565b50505b8080610758906155c3565b9150506104c4565b505050565b60608060005b6003805490508110156109b157600381815481106107b2577f4e487b7100000000000000000000000000000000000000000000000000000000600052603260045260246000fd5b90600052602060002090600302016000016040516107d09190614fd2565b60405180910390208480519060200120141561099e5760038181548110610820577f4e487b7100000000000000000000000000000000000000000000000000000000600052603260045260246000fd5b90600052602060002090600302016001016003828154811061086b577f4e487b7100000000000000000000000000000000000000000000000000000000600052603260045260246000fd5b906000526020600020906003020160020181805461088890615560565b80601f01602080910402602001604051908101604052809291908181526020018280546108b490615560565b80156109015780601f106108d657610100808354040283529160200191610901565b820191906000526020600020905b8154815290600101906020018083116108e457829003601f168201915b5050505050915080805461091490615560565b80601f016020809104026020016040519081016040528092919081815260200182805461094090615560565b801561098d5780601f106109625761010080835404028352916020019161098d565b820191906000526020600020905b81548152906001019060200180831161097057829003601f168201915b5050505050905092509250506109b3565b80806109a9906155c3565b91505061076b565b505b915091565b6000806000806000905060008060005b600380549050811015610bb55760038181548110610a0f577f4e487b7100000000000000000000000000000000000000000000000000000000600052603260045260246000fd5b9060005260206000209060030201600001604051610a2d9190614fd2565b604051809103902088805190602001201415610ba2578180610a4e906155c3565b9250506040518060400160405280600181526020017f30000000000000000000000000000000000000000000000000000000000000008152508051906020012060038281548110610ac8577f4e487b7100000000000000000000000000000000000000000000000000000000600052603260045260246000fd5b9060005260206000209060030201600101604051610ae69190614fd2565b60405180910390201415610af957600193505b6040518060400160405280600181526020017f30000000000000000000000000000000000000000000000000000000000000008152508051906020012060038281548110610b70577f4e487b7100000000000000000000000000000000000000000000000000000000600052603260045260246000fd5b9060005260206000209060030201600201604051610b8e9190614fd2565b60405180910390201415610ba157600192505b5b8080610bad906155c3565b9150506109c8565b508282829550955095505050509193909250565b600360405180606001604052808581526020018481526020018381525090806001815401808255809150506001900390600052602060002090600302016000909190919091506000820151816000019080519060200190610c2b929190614500565b506020820151816001019080519060200190610c48929190614500565b506040820151816002019080519060200190610c65929190614500565b505050505050565b60018181548110610c7d57600080fd5b9060005260206000209060090201600091509050806000018054610ca090615560565b80601f0160208091040260200160405190810160405280929190818152602001828054610ccc90615560565b8015610d195780601f10610cee57610100808354040283529160200191610d19565b820191906000526020600020905b815481529060010190602001808311610cfc57829003601f168201915b505050505090806001018054610d2e90615560565b80601f0160208091040260200160405190810160405280929190818152602001828054610d5a90615560565b8015610da75780601f10610d7c57610100808354040283529160200191610da7565b820191906000526020600020905b815481529060010190602001808311610d8a57829003601f168201915b505050505090806002018054610dbc90615560565b80601f0160208091040260200160405190810160405280929190818152602001828054610de890615560565b8015610e355780601f10610e0a57610100808354040283529160200191610e35565b820191906000526020600020905b815481529060010190602001808311610e1857829003601f168201915b505050505090806003018054610e4a90615560565b80601f0160208091040260200160405190810160405280929190818152602001828054610e7690615560565b8015610ec35780601f10610e9857610100808354040283529160200191610ec3565b820191906000526020600020905b815481529060010190602001808311610ea657829003601f168201915b505050505090806004018054610ed890615560565b80601f0160208091040260200160405190810160405280929190818152602001828054610f0490615560565b8015610f515780601f10610f2657610100808354040283529160200191610f51565b820191906000526020600020905b815481529060010190602001808311610f3457829003601f168201915b505050505090806005018054610f6690615560565b80601f0160208091040260200160405190810160405280929190818152602001828054610f9290615560565b8015610fdf5780601f10610fb457610100808354040283529160200191610fdf565b820191906000526020600020905b815481529060010190602001808311610fc257829003601f168201915b505050505090806006018054610ff490615560565b80601f016020809104026020016040519081016040528092919081815260200182805461102090615560565b801561106d5780601f106110425761010080835404028352916020019161106d565b820191906000526020600020905b81548152906001019060200180831161105057829003601f168201915b50505050509080600701805461108290615560565b80601f01602080910402602001604051908101604052809291908181526020018280546110ae90615560565b80156110fb5780601f106110d0576101008083540402835291602001916110fb565b820191906000526020600020905b8154815290600101906020018083116110de57829003601f168201915b5050505050908060080154905089565b6000606080606080600060608060608060005b60018054905081101561157a5760018181548110611165577f4e487b7100000000000000000000000000000000000000000000000000000000600052603260045260246000fd5b90600052602060002090600902016003016040516111839190614fd2565b60405180910390208d805190602001201480156112055750600181815481106111d5577f4e487b7100000000000000000000000000000000000000000000000000000000600052603260045260246000fd5b90600052602060002090600902016006016040516111f39190614fd2565b60405180910390208c80519060200120145b15611567576001955060018181548110611248577f4e487b7100000000000000000000000000000000000000000000000000000000600052603260045260246000fd5b9060005260206000209060090201600001805461126490615560565b80601f016020809104026020016040519081016040528092919081815260200182805461129090615560565b80156112dd5780601f106112b2576101008083540402835291602001916112dd565b820191906000526020600020905b8154815290600101906020018083116112c057829003601f168201915b505050505094506001818154811061131e577f4e487b7100000000000000000000000000000000000000000000000000000000600052603260045260246000fd5b9060005260206000209060090201600101805461133a90615560565b80601f016020809104026020016040519081016040528092919081815260200182805461136690615560565b80156113b35780601f10611388576101008083540402835291602001916113b3565b820191906000526020600020905b81548152906001019060200180831161139657829003601f168201915b50505050509350600181815481106113f4577f4e487b7100000000000000000000000000000000000000000000000000000000600052603260045260246000fd5b9060005260206000209060090201600201805461141090615560565b80601f016020809104026020016040519081016040528092919081815260200182805461143c90615560565b80156114895780601f1061145e57610100808354040283529160200191611489565b820191906000526020600020905b81548152906001019060200180831161146c57829003601f168201915b50505050509250600181815481106114ca577f4e487b7100000000000000000000000000000000000000000000000000000000600052603260045260246000fd5b906000526020600020906009020160050180546114e690615560565b80601f016020809104026020016040519081016040528092919081815260200182805461151290615560565b801561155f5780601f106115345761010080835404028352916020019161155f565b820191906000526020600020905b81548152906001019060200180831161154257829003601f168201915b505050505091505b8080611572906155c3565b91505061111e565b5084828585849950995099509950995050505050509295509295909350565b60026040518060e001604052808c81526020018b81526020018681526020018581526020018481526020016040518060400160405280600181526020017f310000000000000000000000000000000000000000000000000000000000000081525081526020018381525090806001815401808255809150506001900390600052602060002090600702016000909190919091506000820151816000019080519060200190611648929190614500565b506020820151816001019080519060200190611665929190614500565b506040820151816002019080519060200190611682929190614500565b50606082015181600301908051906020019061169f929190614500565b5060808201518160040190805190602001906116bc929190614500565b5060a08201518160050190805190602001906116d9929190614500565b5060c08201518160060190805190602001906116f6929190614500565b50505060026040518060e001604052808b81526020018c81526020018a81526020018981526020018881526020016040518060400160405280600181526020017f3200000000000000000000000000000000000000000000000000000000000000815250815260200187815250908060018154018082558091505060019003906000526020600020906007020160009091909190915060008201518160000190805190602001906117a8929190614500565b5060208201518160010190805190602001906117c5929190614500565b5060408201518160020190805190602001906117e2929190614500565b5060608201518160030190805190602001906117ff929190614500565b50608082015181600401908051906020019061181c929190614500565b5060a0820151816005019080519060200190611839929190614500565b5060c0820151816006019080519060200190611856929190614500565b50505050505050505050505050565b60606000805b60028054905081101561190857600281815481106118b2577f4e487b7100000000000000000000000000000000000000000000000000000000600052603260045260246000fd5b90600052602060002090600702016000016040516118d09190614fd2565b6040518091039020848051906020012014156118f55781806118f1906155c3565b9250505b8080611900906155c3565b91505061186b565b5060008111156120795760008167ffffffffffffffff811115611954577f4e487b7100000000000000000000000000000000000000000000000000000000600052604160045260246000fd5b60405190808252806020026020018201604052801561198d57816020015b61197a614586565b8152602001906001900390816119725790505b5090506000805b60028054905081101561206d57600281815481106119db577f4e487b7100000000000000000000000000000000000000000000000000000000600052603260045260246000fd5b90600052602060002090600702016000016040516119f99190614fd2565b60405180910390208680519060200120141561205a576040518060e0016040528060028381548110611a54577f4e487b7100000000000000000000000000000000000000000000000000000000600052603260045260246000fd5b90600052602060002090600702016000018054611a7090615560565b80601f0160208091040260200160405190810160405280929190818152602001828054611a9c90615560565b8015611ae95780601f10611abe57610100808354040283529160200191611ae9565b820191906000526020600020905b815481529060010190602001808311611acc57829003601f168201915b5050505050815260200160028381548110611b2d577f4e487b7100000000000000000000000000000000000000000000000000000000600052603260045260246000fd5b90600052602060002090600702016001018054611b4990615560565b80601f0160208091040260200160405190810160405280929190818152602001828054611b7590615560565b8015611bc25780601f10611b9757610100808354040283529160200191611bc2565b820191906000526020600020905b815481529060010190602001808311611ba557829003601f168201915b5050505050815260200160028381548110611c06577f4e487b7100000000000000000000000000000000000000000000000000000000600052603260045260246000fd5b90600052602060002090600702016002018054611c2290615560565b80601f0160208091040260200160405190810160405280929190818152602001828054611c4e90615560565b8015611c9b5780601f10611c7057610100808354040283529160200191611c9b565b820191906000526020600020905b815481529060010190602001808311611c7e57829003601f168201915b5050505050815260200160028381548110611cdf577f4e487b7100000000000000000000000000000000000000000000000000000000600052603260045260246000fd5b90600052602060002090600702016003018054611cfb90615560565b80601f0160208091040260200160405190810160405280929190818152602001828054611d2790615560565b8015611d745780601f10611d4957610100808354040283529160200191611d74565b820191906000526020600020905b815481529060010190602001808311611d5757829003601f168201915b5050505050815260200160028381548110611db8577f4e487b7100000000000000000000000000000000000000000000000000000000600052603260045260246000fd5b90600052602060002090600702016004018054611dd490615560565b80601f0160208091040260200160405190810160405280929190818152602001828054611e0090615560565b8015611e4d5780601f10611e2257610100808354040283529160200191611e4d565b820191906000526020600020905b815481529060010190602001808311611e3057829003601f168201915b5050505050815260200160028381548110611e91577f4e487b7100000000000000000000000000000000000000000000000000000000600052603260045260246000fd5b90600052602060002090600702016005018054611ead90615560565b80601f0160208091040260200160405190810160405280929190818152602001828054611ed990615560565b8015611f265780601f10611efb57610100808354040283529160200191611f26565b820191906000526020600020905b815481529060010190602001808311611f0957829003601f168201915b5050505050815260200160028381548110611f6a577f4e487b7100000000000000000000000000000000000000000000000000000000600052603260045260246000fd5b90600052602060002090600702016006018054611f8690615560565b80601f0160208091040260200160405190810160405280929190818152602001828054611fb290615560565b8015611fff5780601f10611fd457610100808354040283529160200191611fff565b820191906000526020600020905b815481529060010190602001808311611fe257829003601f168201915b5050505050815250838381518110612040577f4e487b7100000000000000000000000000000000000000000000000000000000600052603260045260246000fd5b60200260200101819052508180612056906155c3565b9250505b8080612065906155c3565b915050611994565b508193505050506120fd565b60008067ffffffffffffffff8111156120bb577f4e487b7100000000000000000000000000000000000000000000000000000000600052604160045260246000fd5b6040519080825280602002602001820160405280156120f457816020015b6120e1614586565b8152602001906001900390816120d95790505b50905080925050505b919050565b6002818154811061211257600080fd5b906000526020600020906007020160009150905080600001805461213590615560565b80601f016020809104026020016040519081016040528092919081815260200182805461216190615560565b80156121ae5780601f10612183576101008083540402835291602001916121ae565b820191906000526020600020905b81548152906001019060200180831161219157829003601f168201915b5050505050908060010180546121c390615560565b80601f01602080910402602001604051908101604052809291908181526020018280546121ef90615560565b801561223c5780601f106122115761010080835404028352916020019161223c565b820191906000526020600020905b81548152906001019060200180831161221f57829003601f168201915b50505050509080600201805461225190615560565b80601f016020809104026020016040519081016040528092919081815260200182805461227d90615560565b80156122ca5780601f1061229f576101008083540402835291602001916122ca565b820191906000526020600020905b8154815290600101906020018083116122ad57829003601f168201915b5050505050908060030180546122df90615560565b80601f016020809104026020016040519081016040528092919081815260200182805461230b90615560565b80156123585780601f1061232d57610100808354040283529160200191612358565b820191906000526020600020905b81548152906001019060200180831161233b57829003601f168201915b50505050509080600401805461236d90615560565b80601f016020809104026020016040519081016040528092919081815260200182805461239990615560565b80156123e65780601f106123bb576101008083540402835291602001916123e6565b820191906000526020600020905b8154815290600101906020018083116123c957829003601f168201915b5050505050908060050180546123fb90615560565b80601f016020809104026020016040519081016040528092919081815260200182805461242790615560565b80156124745780601f1061244957610100808354040283529160200191612474565b820191906000526020600020905b81548152906001019060200180831161245757829003601f168201915b50505050509080600601805461248990615560565b80601f01602080910402602001604051908101604052809291908181526020018280546124b590615560565b80156125025780601f106124d757610100808354040283529160200191612502565b820191906000526020600020905b8154815290600101906020018083116124e557829003601f168201915b5050505050905087565b6003818154811061251c57600080fd5b906000526020600020906003020160009150905080600001805461253f90615560565b80601f016020809104026020016040519081016040528092919081815260200182805461256b90615560565b80156125b85780601f1061258d576101008083540402835291602001916125b8565b820191906000526020600020905b81548152906001019060200180831161259b57829003601f168201915b5050505050908060010180546125cd90615560565b80601f01602080910402602001604051908101604052809291908181526020018280546125f990615560565b80156126465780601f1061261b57610100808354040283529160200191612646565b820191906000526020600020905b81548152906001019060200180831161262957829003601f168201915b50505050509080600201805461265b90615560565b80601f016020809104026020016040519081016040528092919081815260200182805461268790615560565b80156126d45780601f106126a9576101008083540402835291602001916126d4565b820191906000526020600020905b8154815290600101906020018083116126b757829003601f168201915b5050505050905083565b60606002805480602002602001604051908101604052809291908181526020016000905b82821015612b3257838290600052602060002090600702016040518060e001604052908160008201805461273590615560565b80601f016020809104026020016040519081016040528092919081815260200182805461276190615560565b80156127ae5780601f10612783576101008083540402835291602001916127ae565b820191906000526020600020905b81548152906001019060200180831161279157829003601f168201915b505050505081526020016001820180546127c790615560565b80601f01602080910402602001604051908101604052809291908181526020018280546127f390615560565b80156128405780601f1061281557610100808354040283529160200191612840565b820191906000526020600020905b81548152906001019060200180831161282357829003601f168201915b5050505050815260200160028201805461285990615560565b80601f016020809104026020016040519081016040528092919081815260200182805461288590615560565b80156128d25780601f106128a7576101008083540402835291602001916128d2565b820191906000526020600020905b8154815290600101906020018083116128b557829003601f168201915b505050505081526020016003820180546128eb90615560565b80601f016020809104026020016040519081016040528092919081815260200182805461291790615560565b80156129645780601f1061293957610100808354040283529160200191612964565b820191906000526020600020905b81548152906001019060200180831161294757829003601f168201915b5050505050815260200160048201805461297d90615560565b80601f01602080910402602001604051908101604052809291908181526020018280546129a990615560565b80156129f65780601f106129cb576101008083540402835291602001916129f6565b820191906000526020600020905b8154815290600101906020018083116129d957829003601f168201915b50505050508152602001600582018054612a0f90615560565b80601f0160208091040260200160405190810160405280929190818152602001828054612a3b90615560565b8015612a885780601f10612a5d57610100808354040283529160200191612a88565b820191906000526020600020905b815481529060010190602001808311612a6b57829003601f168201915b50505050508152602001600682018054612aa190615560565b80601f0160208091040260200160405190810160405280929190818152602001828054612acd90615560565b8015612b1a5780601f10612aef57610100808354040283529160200191612b1a565b820191906000526020600020905b815481529060010190602001808311612afd57829003601f168201915b50505050508152505081526020019060010190612702565b50505050905090565b606080606060005b600180549050811015612e6257848051906020012060018281548110612b92577f4e487b7100000000000000000000000000000000000000000000000000000000600052603260045260246000fd5b9060005260206000209060090201600201604051612bb09190614fd2565b60405180910390201415612e4f5760018181548110612bf8577f4e487b7100000000000000000000000000000000000000000000000000000000600052603260045260246000fd5b906000526020600020906009020160000160018281548110612c43577f4e487b7100000000000000000000000000000000000000000000000000000000600052603260045260246000fd5b906000526020600020906009020160010160018381548110612c8e577f4e487b7100000000000000000000000000000000000000000000000000000000600052603260045260246000fd5b9060005260206000209060090201600501828054612cab90615560565b80601f0160208091040260200160405190810160405280929190818152602001828054612cd790615560565b8015612d245780601f10612cf957610100808354040283529160200191612d24565b820191906000526020600020905b815481529060010190602001808311612d0757829003601f168201915b50505050509250818054612d3790615560565b80601f0160208091040260200160405190810160405280929190818152602001828054612d6390615560565b8015612db05780601f10612d8557610100808354040283529160200191612db0565b820191906000526020600020905b815481529060010190602001808311612d9357829003601f168201915b50505050509150808054612dc390615560565b80601f0160208091040260200160405190810160405280929190818152602001828054612def90615560565b8015612e3c5780601f10612e1157610100808354040283529160200191612e3c565b820191906000526020600020905b815481529060010190602001808311612e1f57829003601f168201915b5050505050905093509350935050612e64565b8080612e5a906155c3565b915050612b43565b505b9193909250565b6060600060018054905067ffffffffffffffff811115612eb4577f4e487b7100000000000000000000000000000000000000000000000000000000600052604160045260246000fd5b604051908082528060200260200182016040528015612ee757816020015b6060815260200190600190039081612ed25790505b50905060005b6001805490508110156130255760018181548110612f34577f4e487b7100000000000000000000000000000000000000000000000000000000600052603260045260246000fd5b90600052602060002090600902016005018054612f5090615560565b80601f0160208091040260200160405190810160405280929190818152602001828054612f7c90615560565b8015612fc95780601f10612f9e57610100808354040283529160200191612fc9565b820191906000526020600020905b815481529060010190602001808311612fac57829003601f168201915b5050505050828281518110613007577f4e487b7100000000000000000000000000000000000000000000000000000000600052603260045260246000fd5b6020026020010181905250808061301d906155c3565b915050612eed565b508091505090565b60016040518061012001604052808981526020018881526020018781526020018681526020018581526020018481526020018381526020016040518060400160405280600181526020017f30000000000000000000000000000000000000000000000000000000000000008152508152602001600054815250908060018154018082558091505060019003906000526020600020906009020160009091909190915060008201518160000190805190602001906130eb929190614500565b506020820151816001019080519060200190613108929190614500565b506040820151816002019080519060200190613125929190614500565b506060820151816003019080519060200190613142929190614500565b50608082015181600401908051906020019061315f929190614500565b5060a082015181600501908051906020019061317c929190614500565b5060c0820151816006019080519060200190613199929190614500565b5060e08201518160070190805190602001906131b6929190614500565b50610100820151816008015550506000808154809291906131d6906155c3565b919050555050505050505050565b60606000805b60018054905081101561328657838051906020012060018281548110613239577f4e487b7100000000000000000000000000000000000000000000000000000000600052603260045260246000fd5b90600052602060002090600902016002016040516132579190614fd2565b60405180910390201461327357818061326f906155c3565b9250505b808061327e906155c3565b9150506131ea565b5060008167ffffffffffffffff8111156132c9577f4e487b7100000000000000000000000000000000000000000000000000000000600052604160045260246000fd5b60405190808252806020026020018201604052801561330257816020015b6132ef6145c3565b8152602001906001900390816132e75790505b5090506000915060005b6001805490508110156137595784805190602001206001828154811061335b577f4e487b7100000000000000000000000000000000000000000000000000000000600052603260045260246000fd5b90600052602060002090600902016002016040516133799190614fd2565b604051809103902014613746576040518060800160405280600183815481106133cb577f4e487b7100000000000000000000000000000000000000000000000000000000600052603260045260246000fd5b906000526020600020906009020160000180546133e790615560565b80601f016020809104026020016040519081016040528092919081815260200182805461341390615560565b80156134605780601f1061343557610100808354040283529160200191613460565b820191906000526020600020905b81548152906001019060200180831161344357829003601f168201915b50505050508152602001600183815481106134a4577f4e487b7100000000000000000000000000000000000000000000000000000000600052603260045260246000fd5b906000526020600020906009020160010180546134c090615560565b80601f01602080910402602001604051908101604052809291908181526020018280546134ec90615560565b80156135395780601f1061350e57610100808354040283529160200191613539565b820191906000526020600020905b81548152906001019060200180831161351c57829003601f168201915b505050505081526020016001838154811061357d577f4e487b7100000000000000000000000000000000000000000000000000000000600052603260045260246000fd5b9060005260206000209060090201600501805461359990615560565b80601f01602080910402602001604051908101604052809291908181526020018280546135c590615560565b80156136125780601f106135e757610100808354040283529160200191613612565b820191906000526020600020905b8154815290600101906020018083116135f557829003601f168201915b5050505050815260200160018381548110613656577f4e487b7100000000000000000000000000000000000000000000000000000000600052603260045260246000fd5b9060005260206000209060090201600201805461367290615560565b80601f016020809104026020016040519081016040528092919081815260200182805461369e90615560565b80156136eb5780601f106136c0576101008083540402835291602001916136eb565b820191906000526020600020905b8154815290600101906020018083116136ce57829003601f168201915b505050505081525082848151811061372c577f4e487b7100000000000000000000000000000000000000000000000000000000600052603260045260246000fd5b60200260200101819052508280613742906155c3565b9350505b8080613751906155c3565b91505061330c565b508092505050919050565b60606003805480602002602001604051908101604052809291908181526020016000905b8282101561397057838290600052602060002090600302016040518060600160405290816000820180546137bb90615560565b80601f01602080910402602001604051908101604052809291908181526020018280546137e790615560565b80156138345780601f1061380957610100808354040283529160200191613834565b820191906000526020600020905b81548152906001019060200180831161381757829003601f168201915b5050505050815260200160018201805461384d90615560565b80601f016020809104026020016040519081016040528092919081815260200182805461387990615560565b80156138c65780601f1061389b576101008083540402835291602001916138c6565b820191906000526020600020905b8154815290600101906020018083116138a957829003601f168201915b505050505081526020016002820180546138df90615560565b80601f016020809104026020016040519081016040528092919081815260200182805461390b90615560565b80156139585780601f1061392d57610100808354040283529160200191613958565b820191906000526020600020905b81548152906001019060200180831161393b57829003601f168201915b50505050508152505081526020019060010190613788565b50505050905090565b60008060008060005b600180549050811015613a88578680519060200120600182815481106139d1577f4e487b7100000000000000000000000000000000000000000000000000000000600052603260045260246000fd5b90600052602060002090600902016003016040516139ef9190614fd2565b60405180910390201415613a0257600192505b858051906020012060018281548110613a44577f4e487b7100000000000000000000000000000000000000000000000000000000600052603260045260246000fd5b9060005260206000209060090201600401604051613a629190614fd2565b60405180910390201415613a7557600191505b8080613a80906155c3565b915050613982565b5081819350935050509250929050565b60005b600380549050811015613b8a5760038181548110613ae2577f4e487b7100000000000000000000000000000000000000000000000000000000600052603260045260246000fd5b9060005260206000209060030201600001604051613b009190614fd2565b604051809103902083805190602001201415613b77578160038281548110613b51577f4e487b7100000000000000000000000000000000000000000000000000000000600052603260045260246000fd5b90600052602060002090600302016001019080519060200190613b75929190614500565b505b8080613b82906155c3565b915050613a9b565b505050565b60005b600380549050811015613c815760038181548110613bd9577f4e487b7100000000000000000000000000000000000000000000000000000000600052603260045260246000fd5b9060005260206000209060030201600001604051613bf79190614fd2565b604051809103902083805190602001201415613c6e578160038281548110613c48577f4e487b7100000000000000000000000000000000000000000000000000000000600052603260045260246000fd5b90600052602060002090600302016002019080519060200190613c6c929190614500565b505b8080613c79906155c3565b915050613b92565b505050565b60005b600280549050811015613eff57828051906020012060028281548110613cd8577f4e487b7100000000000000000000000000000000000000000000000000000000600052603260045260246000fd5b9060005260206000209060070201600001604051613cf69190614fd2565b6040518091039020148015613d705750818051906020012060028281548110613d48577f4e487b7100000000000000000000000000000000000000000000000000000000600052603260045260246000fd5b9060005260206000209060070201600101604051613d669190614fd2565b6040518091039020145b80613e515750818051906020012060028281548110613db8577f4e487b7100000000000000000000000000000000000000000000000000000000600052603260045260246000fd5b9060005260206000209060070201600001604051613dd69190614fd2565b6040518091039020148015613e505750828051906020012060028281548110613e28577f4e487b7100000000000000000000000000000000000000000000000000000000600052603260045260246000fd5b9060005260206000209060070201600101604051613e469190614fd2565b6040518091039020145b5b15613eec576040518060400160405280600181526020017f330000000000000000000000000000000000000000000000000000000000000081525060028281548110613ec6577f4e487b7100000000000000000000000000000000000000000000000000000000600052603260045260246000fd5b90600052602060002090600702016005019080519060200190613eea929190614500565b505b8080613ef7906155c3565b915050613c89565b505050565b60008060008060005b6002805490508110156142bd5760028181548110613f54577f4e487b7100000000000000000000000000000000000000000000000000000000600052603260045260246000fd5b9060005260206000209060070201600001604051613f729190614fd2565b60405180910390208680519060200120148015614029575060028181548110613fc4577f4e487b7100000000000000000000000000000000000000000000000000000000600052603260045260246000fd5b9060005260206000209060070201600501604051613fe29190614fd2565b60405180910390206040518060400160405280600181526020017f310000000000000000000000000000000000000000000000000000000000000081525080519060200120145b806140ce575060028181548110614069577f4e487b7100000000000000000000000000000000000000000000000000000000600052603260045260246000fd5b90600052602060002090600702016005016040516140879190614fd2565b60405180910390206040518060400160405280600181526020017f330000000000000000000000000000000000000000000000000000000000000081525080519060200120145b156140e25782806140de906155c3565b9350505b6002818154811061411c577f4e487b7100000000000000000000000000000000000000000000000000000000600052603260045260246000fd5b906000526020600020906007020160000160405161413a9190614fd2565b604051809103902086805190602001201480156141f157506002818154811061418c577f4e487b7100000000000000000000000000000000000000000000000000000000600052603260045260246000fd5b90600052602060002090600702016005016040516141aa9190614fd2565b60405180910390206040518060400160405280600181526020017f320000000000000000000000000000000000000000000000000000000000000081525080519060200120145b80614296575060028181548110614231577f4e487b7100000000000000000000000000000000000000000000000000000000600052603260045260246000fd5b906000526020600020906007020160050160405161424f9190614fd2565b60405180910390206040518060400160405280600181526020017f330000000000000000000000000000000000000000000000000000000000000081525080519060200120145b156142aa5781806142a6906155c3565b9250505b80806142b5906155c3565b915050613f0d565b508181935093505050915091565b600060606000606060005b6002805490508110156144b057868051906020012060028281548110614325577f4e487b7100000000000000000000000000000000000000000000000000000000600052603260045260246000fd5b90600052602060002090600702016000016040516143439190614fd2565b60405180910390201480156143bd5750858051906020012060028281548110614395577f4e487b7100000000000000000000000000000000000000000000000000000000600052603260045260246000fd5b90600052602060002090600702016001016040516143b39190614fd2565b6040518091039020145b1561449d576001925060028181548110614400577f4e487b7100000000000000000000000000000000000000000000000000000000600052603260045260246000fd5b9060005260206000209060070201600501805461441c90615560565b80601f016020809104026020016040519081016040528092919081815260200182805461444890615560565b80156144955780601f1061446a57610100808354040283529160200191614495565b820191906000526020600020905b81548152906001019060200180831161447857829003601f168201915b505050505091505b80806144a8906155c3565b9150506142d6565b5081819350935050509250929050565b5080546144cc90615560565b6000825580601f106144de57506144fd565b601f0160209004906000526020600020908101906144fc91906145eb565b5b50565b82805461450c90615560565b90600052602060002090601f01602090048101928261452e5760008555614575565b82601f1061454757805160ff1916838001178555614575565b82800160010185558215614575579182015b82811115614574578251825591602001919060010190614559565b5b50905061458291906145eb565b5090565b6040518060e00160405280606081526020016060815260200160608152602001606081526020016060815260200160608152602001606081525090565b6040518060800160405280606081526020016060815260200160608152602001606081525090565b5b808211156146045760008160009055506001016145ec565b5090565b600061461b614616846153a6565b615381565b90508281526020810184848401111561463357600080fd5b61463e84828561551e565b509392505050565b600082601f83011261465757600080fd5b8135614667848260208601614608565b91505092915050565b60008135905061467f816156aa565b92915050565b60006020828403121561469757600080fd5b600082013567ffffffffffffffff8111156146b157600080fd5b6146bd84828501614646565b91505092915050565b600080604083850312156146d957600080fd5b600083013567ffffffffffffffff8111156146f357600080fd5b6146ff85828601614646565b925050602083013567ffffffffffffffff81111561471c57600080fd5b61472885828601614646565b9150509250929050565b60008060006060848603121561474757600080fd5b600084013567ffffffffffffffff81111561476157600080fd5b61476d86828701614646565b935050602084013567ffffffffffffffff81111561478a57600080fd5b61479686828701614646565b925050604084013567ffffffffffffffff8111156147b357600080fd5b6147bf86828701614646565b9150509250925092565b600080600080600080600060e0888a0312156147e457600080fd5b600088013567ffffffffffffffff8111156147fe57600080fd5b61480a8a828b01614646565b975050602088013567ffffffffffffffff81111561482757600080fd5b6148338a828b01614646565b965050604088013567ffffffffffffffff81111561485057600080fd5b61485c8a828b01614646565b955050606088013567ffffffffffffffff81111561487957600080fd5b6148858a828b01614646565b945050608088013567ffffffffffffffff8111156148a257600080fd5b6148ae8a828b01614646565b93505060a088013567ffffffffffffffff8111156148cb57600080fd5b6148d78a828b01614646565b92505060c088013567ffffffffffffffff8111156148f457600080fd5b6149008a828b01614646565b91505092959891949750929550565b6000806000806000806000806000806101408b8d03121561492f57600080fd5b60008b013567ffffffffffffffff81111561494957600080fd5b6149558d828e01614646565b9a505060208b013567ffffffffffffffff81111561497257600080fd5b61497e8d828e01614646565b99505060408b013567ffffffffffffffff81111561499b57600080fd5b6149a78d828e01614646565b98505060608b013567ffffffffffffffff8111156149c457600080fd5b6149d08d828e01614646565b97505060808b013567ffffffffffffffff8111156149ed57600080fd5b6149f98d828e01614646565b96505060a08b013567ffffffffffffffff811115614a1657600080fd5b614a228d828e01614646565b95505060c08b013567ffffffffffffffff811115614a3f57600080fd5b614a4b8d828e01614646565b94505060e08b013567ffffffffffffffff811115614a6857600080fd5b614a748d828e01614646565b9350506101008b013567ffffffffffffffff811115614a9257600080fd5b614a9e8d828e01614646565b9250506101208b013567ffffffffffffffff811115614abc57600080fd5b614ac88d828e01614646565b9150509295989b9194979a5092959850565b600060208284031215614aec57600080fd5b6000614afa84828501614670565b91505092915050565b6000614b0f8383614db5565b905092915050565b6000614b238383614e27565b905092915050565b6000614b378383614eed565b905092915050565b6000614b4b8383614f4b565b905092915050565b6000614b5e8261542c565b614b688185615497565b935083602082028501614b7a856153d7565b8060005b85811015614bb65784840389528151614b978582614b03565b9450614ba283615463565b925060208a01995050600181019050614b7e565b50829750879550505050505092915050565b6000614bd382615437565b614bdd81856154a8565b935083602082028501614bef856153e7565b8060005b85811015614c2b5784840389528151614c0c8582614b17565b9450614c1783615470565b925060208a01995050600181019050614bf3565b50829750879550505050505092915050565b6000614c4882615442565b614c5281856154b9565b935083602082028501614c64856153f7565b8060005b85811015614ca05784840389528151614c818582614b2b565b9450614c8c8361547d565b925060208a01995050600181019050614c68565b50829750879550505050505092915050565b6000614cbd8261544d565b614cc781856154ca565b935083602082028501614cd985615407565b8060005b85811015614d155784840389528151614cf68582614b3f565b9450614d018361548a565b925060208a01995050600181019050614cdd565b50829750879550505050505092915050565b614d3081615508565b82525050565b60008154614d4381615560565b614d4d81866154db565b94506001821660008114614d685760018114614d7957614dac565b60ff19831686528186019350614dac565b614d8285615417565b60005b83811015614da457815481890152600182019150602081019050614d85565b838801955050505b50505092915050565b6000614dc082615458565b614dca81856154e6565b9350614dda81856020860161552d565b614de381615699565b840191505092915050565b6000614df982615458565b614e0381856154f7565b9350614e1381856020860161552d565b614e1c81615699565b840191505092915050565b600060e0830160008301518482036000860152614e448282614db5565b91505060208301518482036020860152614e5e8282614db5565b91505060408301518482036040860152614e788282614db5565b91505060608301518482036060860152614e928282614db5565b91505060808301518482036080860152614eac8282614db5565b91505060a083015184820360a0860152614ec68282614db5565b91505060c083015184820360c0860152614ee08282614db5565b9150508091505092915050565b60006060830160008301518482036000860152614f0a8282614db5565b91505060208301518482036020860152614f248282614db5565b91505060408301518482036040860152614f3e8282614db5565b9150508091505092915050565b60006080830160008301518482036000860152614f688282614db5565b91505060208301518482036020860152614f828282614db5565b91505060408301518482036040860152614f9c8282614db5565b91505060608301518482036060860152614fb68282614db5565b9150508091505092915050565b614fcc81615514565b82525050565b6000614fde8284614d36565b915081905092915050565b600060208201905081810360008301526150038184614b53565b905092915050565b600060208201905081810360008301526150258184614bc8565b905092915050565b600060208201905081810360008301526150478184614c3d565b905092915050565b600060208201905081810360008301526150698184614cb2565b905092915050565b60006040820190506150866000830185614d27565b6150936020830184614d27565b9392505050565b60006060820190506150af6000830186614d27565b6150bc6020830185614d27565b6150c96040830184614fc3565b949350505050565b60006040820190506150e66000830185614d27565b81810360208301526150f88184614dee565b90509392505050565b600060a0820190506151166000830188614d27565b81810360208301526151288187614dee565b9050818103604083015261513c8186614dee565b905081810360608301526151508185614dee565b905081810360808301526151648184614dee565b90509695505050505050565b6000604082019050818103600083015261518a8185614dee565b9050818103602083015261519e8184614dee565b90509392505050565b600060608201905081810360008301526151c18186614dee565b905081810360208301526151d58185614dee565b905081810360408301526151e98184614dee565b9050949350505050565b600060e082019050818103600083015261520d818a614dee565b905081810360208301526152218189614dee565b905081810360408301526152358188614dee565b905081810360608301526152498187614dee565b9050818103608083015261525d8186614dee565b905081810360a08301526152718185614dee565b905081810360c08301526152858184614dee565b905098975050505050505050565b60006101208201905081810360008301526152ae818c614dee565b905081810360208301526152c2818b614dee565b905081810360408301526152d6818a614dee565b905081810360608301526152ea8189614dee565b905081810360808301526152fe8188614dee565b905081810360a08301526153128187614dee565b905081810360c08301526153268186614dee565b905081810360e083015261533a8185614dee565b905061534a610100830184614fc3565b9a9950505050505050505050565b600060408201905061536d6000830185614fc3565b61537a6020830184614fc3565b9392505050565b600061538b61539c565b90506153978282615592565b919050565b6000604051905090565b600067ffffffffffffffff8211156153c1576153c061566a565b5b6153ca82615699565b9050602081019050919050565b6000819050602082019050919050565b6000819050602082019050919050565b6000819050602082019050919050565b6000819050602082019050919050565b60008190508160005260206000209050919050565b600081519050919050565b600081519050919050565b600081519050919050565b600081519050919050565b600081519050919050565b6000602082019050919050565b6000602082019050919050565b6000602082019050919050565b6000602082019050919050565b600082825260208201905092915050565b600082825260208201905092915050565b600082825260208201905092915050565b600082825260208201905092915050565b600081905092915050565b600082825260208201905092915050565b600082825260208201905092915050565b60008115159050919050565b6000819050919050565b82818337600083830152505050565b60005b8381101561554b578082015181840152602081019050615530565b8381111561555a576000848401525b50505050565b6000600282049050600182168061557857607f821691505b6020821081141561558c5761558b61563b565b5b50919050565b61559b82615699565b810181811067ffffffffffffffff821117156155ba576155b961566a565b5b80604052505050565b60006155ce82615514565b91507fffffffffffffffffffffffffffffffffffffffffffffffffffffffffffffffff8214156156015761560061560c565b5b600182019050919050565b7f4e487b7100000000000000000000000000000000000000000000000000000000600052601160045260246000fd5b7f4e487b7100000000000000000000000000000000000000000000000000000000600052602260045260246000fd5b7f4e487b7100000000000000000000000000000000000000000000000000000000600052604160045260246000fd5b6000601f19601f8301169050919050565b6156b381615514565b81146156be57600080fd5b5056fea26469706673582212204f148c975410273abf7782a8ccfdfa00ff8f6c918ac43fab0b1364181ab6a5ba64736f6c63430008030033",
  "immutableReferences": {},
  "source": "// SPDX-License-Identifier: MIT\r\npragma solidity >=0.4.22 <0.9.0;\r\nimport \"./maincontract.sol\";\r\ncontract profilecontract is maincontract\r\n{\r\n    struct follower{\r\n        string uid;\r\n        string fid;\r\n        string firstname;\r\n        string lastname;\r\n        string username;\r\n        string status;\r\n        string profile;\r\n        }\r\n    struct profile{\r\n        string uid;\r\n        string profile;\r\n        string cover;\r\n    }\r\n    follower[]  public _follower;\r\n    profile[] public  _profile;\r\n    function getProfile(string memory _uid) view public returns(string memory,string memory)\r\n    {\r\n        for(uint i = 0;i<_profile.length;i++)\r\n        {\r\n            if(keccak256(bytes(_uid))==keccak256(bytes(_profile[i].uid)))\r\n            {\r\n                return(_profile[i].profile,_profile[i].cover);\r\n            }\r\n        }\r\n    }\r\n\r\n    function sendAllFollowerData() view public returns(follower[] memory)\r\n    {\r\n        return(_follower);\r\n    }\r\n    function sendAllProfile() view public returns(profile[] memory)\r\n    {\r\n        return(_profile);\r\n    }\r\n\r\n   function updateProfile(string memory _uid,string memory _e12)  public\r\n    {\r\n        for(uint i = 0;i<_profile.length;i++)\r\n        {\r\n            if(keccak256(bytes(_uid))==keccak256(bytes(_profile[i].uid)))\r\n            {\r\n                _profile[i].profile = _e12;\r\n            }\r\n        }\r\n    }\r\n function updateCover(string memory _uid,string memory _e12)  public\r\n    {\r\n        for(uint i = 0;i<_profile.length;i++)\r\n        {\r\n            if(keccak256(bytes(_uid))==keccak256(bytes(_profile[i].uid)))\r\n            {\r\n                _profile[i].cover = _e12;\r\n            }\r\n        }\r\n    }\r\n\r\n      function checkProfile(string memory _uid) view public returns(bool,bool,uint)\r\n    {\r\n        bool hello1 = false;\r\n        bool hello2 = false;\r\n        uint c = 0;\r\n        for(uint i = 0;i<_profile.length;i++)\r\n        {\r\n            if(keccak256(bytes(_uid))==keccak256(bytes(_profile[i].uid)))\r\n            {\r\n                 c++;\r\n                if(keccak256(bytes(_profile[i].profile))==keccak256(bytes(\"0\")))\r\n                {\r\n                    hello1 = true;\r\n                }\r\n\r\n                 if(keccak256(bytes(_profile[i].cover))==keccak256(bytes(\"0\")))\r\n                {\r\n                    hello2 = true;\r\n                }\r\n\r\n            }\r\n        }\r\n        return (hello1,hello2,c);\r\n    }\r\n\r\n\r\n\r\n\r\n    function checkFriend(string memory _uid,string memory _fid) view public returns(bool,string memory)\r\n    {\r\n        bool hello = false;\r\n        string memory status;\r\n        for(uint i = 0 ; i<_follower.length;i++)\r\n        {\r\n            if(keccak256(bytes(_follower[i].uid))==keccak256(bytes(_uid))&&keccak256(bytes(_follower[i].fid))==keccak256(bytes(_fid)))\r\n            {\r\n                hello = true;\r\n                status = _follower[i].status;\r\n            }\r\n        }\r\n        return (hello,status);\r\n    }\r\n\r\nfunction deleteFriend(string memory _uid,string memory _fid)  public\r\n{\r\n    for(uint i =0;i<_follower.length;i++)\r\n    {\r\n        if(keccak256(bytes(_follower[i].uid))==keccak256(bytes(_uid))&&keccak256(bytes(_follower[i].fid))==keccak256(bytes(_fid))||keccak256(bytes(_follower[i].uid))==keccak256(bytes(_fid))&&keccak256(bytes(_follower[i].fid))==keccak256(bytes(_uid)))\r\n        {\r\n            delete _follower[i];\r\n        }\r\n    }\r\n\r\n}\r\n\r\nfunction bothFriend(string memory _uid,string memory _fid)  public\r\n{\r\n    for(uint i =0;i<_follower.length;i++)\r\n    {\r\n        if(keccak256(bytes(_follower[i].uid))==keccak256(bytes(_uid))&&keccak256(bytes(_follower[i].fid))==keccak256(bytes(_fid))||keccak256(bytes(_follower[i].uid))==keccak256(bytes(_fid))&&keccak256(bytes(_follower[i].fid))==keccak256(bytes(_uid)))\r\n        {\r\n            _follower[i].status = \"3\";\r\n        }\r\n    }\r\n\r\n}\r\n\r\n\r\n\r\n\r\n    function insert_follower(string  memory _uid, string memory _fid,string memory firstname1,string memory lastname1,string memory username1,string memory profile1,string memory firstname2,string memory lastname2,string memory username2,string memory profile2) public\r\n    {\r\n\r\n        _follower.push(follower(_uid,_fid,firstname2,lastname2,username2,\"1\",profile2));\r\n        _follower.push(follower(_fid,_uid,firstname1,lastname1,username1,\"2\",profile1));\r\n    }\r\n\r\n    function insert_profile(string memory _uid,string memory _profile1,string memory _cover) public\r\n    {\r\n        _profile.push(profile(_uid,_profile1,_cover));\r\n    }\r\n\r\n    function getFriendCount(string memory _uid) view public returns(uint , uint)\r\n    {\r\n        uint c= 0;\r\n        uint c1 = 0;\r\n        for(uint i =0;i<_follower.length;i++)\r\n        {\r\n            if(keccak256(bytes(_uid))==keccak256(bytes(_follower[i].uid))&&keccak256(bytes(\"1\"))==keccak256(bytes(_follower[i].status))||keccak256(bytes(\"3\"))==keccak256(bytes(_follower[i].status)))\r\n            {\r\n                c++;\r\n            }\r\n            if(keccak256(bytes(_uid))==keccak256(bytes(_follower[i].uid))&&keccak256(bytes(\"2\"))==keccak256(bytes(_follower[i].status))||keccak256(bytes(\"3\"))==keccak256(bytes(_follower[i].status)))\r\n            {\r\n                c1++;\r\n            }\r\n        }\r\n        return (c,c1);\r\n    }\r\n\r\n\r\n      function getfriend(string memory _uid) view public returns(follower[] memory)\r\n    {\r\n        uint c = 0;\r\n        for(uint i = 0;i<_follower.length;i++)\r\n        {\r\n            if(keccak256(bytes(_uid))==keccak256(bytes(_follower[i].uid)))\r\n            {\r\n                c++;\r\n            }\r\n        }\r\n        if(c>0)\r\n        {\r\n         follower[] memory new_follower = new follower[](c);\r\n         uint c1 = 0;\r\n           for(uint i = 0;i<_follower.length;i++)\r\n        {\r\n            if(keccak256(bytes(_uid))==keccak256(bytes(_follower[i].uid)))\r\n            {\r\n                new_follower[c1] = follower(_follower[i].uid,_follower[i].fid,_follower[i].firstname,_follower[i].lastname,_follower[i].username,_follower[i].status,_follower[i].profile);\r\n            c1++;\r\n            }\r\n        }\r\n        return (new_follower);\r\n        }\r\n        else\r\n        {\r\n            follower[] memory new_follower = new follower[](0);\r\n            return (new_follower);\r\n        }\r\n    }\r\n\r\n}",
  "sourcePath": "C:/Users/aadit/tdn1/contracts/profilecontract.sol",
  "compiler": {
    "name": "solc",
    "version": "0.8.3+commit.8d00100c.Emscripten.clang"
  },
  "schemaVersion": "3.3.4",
  "updatedAt": "2021-05-29T12:45:51.189Z",
  "networkType": "ethereum",
  "devdoc": {
    "kind": "dev",
    "methods": {},
    "version": 1
  },
  "userdoc": {
    "kind": "user",
    "methods": {},
    "version": 1
  }
}