{
  "contractName": "tdn",
  "abi": [
    {
      "inputs": [
        {
          "internalType": "uint256",
          "name": "",
          "type": "uint256"
        }
      ],
      "name": "Hashtagf",
      "outputs": [
        {
          "internalType": "uint256",
          "name": "hid",
          "type": "uint256"
        },
        {
          "internalType": "string",
          "name": "hashtag",
          "type": "string"
        },
        {
          "internalType": "uint256",
          "name": "freq",
          "type": "uint256"
        }
      ],
      "stateMutability": "view",
      "type": "function",
      "constant": true
    },
    {
      "inputs": [
        {
          "internalType": "uint256",
          "name": "",
          "type": "uint256"
        }
      ],
      "name": "Hashtags",
      "outputs": [
        {
          "internalType": "uint256",
          "name": "hid",
          "type": "uint256"
        },
        {
          "internalType": "string",
          "name": "uid",
          "type": "string"
        },
        {
          "internalType": "string",
          "name": "tid",
          "type": "string"
        },
        {
          "internalType": "string",
          "name": "hashtag",
          "type": "string"
        },
        {
          "internalType": "string",
          "name": "timestamp",
          "type": "string"
        }
      ],
      "stateMutability": "view",
      "type": "function",
      "constant": true
    },
    {
      "inputs": [
        {
          "internalType": "uint256",
          "name": "",
          "type": "uint256"
        }
      ],
      "name": "attachment",
      "outputs": [
        {
          "internalType": "string",
          "name": "tid",
          "type": "string"
        }
      ],
      "stateMutability": "view",
      "type": "function",
      "constant": true
    },
    {
      "inputs": [],
      "name": "count",
      "outputs": [
        {
          "internalType": "uint256",
          "name": "",
          "type": "uint256"
        }
      ],
      "stateMutability": "view",
      "type": "function",
      "constant": true
    },
    {
      "inputs": [],
      "name": "count1",
      "outputs": [
        {
          "internalType": "uint256",
          "name": "",
          "type": "uint256"
        }
      ],
      "stateMutability": "view",
      "type": "function",
      "constant": true
    },
    {
      "inputs": [
        {
          "internalType": "uint256",
          "name": "",
          "type": "uint256"
        }
      ],
      "name": "data2",
      "outputs": [
        {
          "internalType": "string",
          "name": "txt",
          "type": "string"
        },
        {
          "internalType": "string",
          "name": "data",
          "type": "string"
        },
        {
          "internalType": "string",
          "name": "image",
          "type": "string"
        },
        {
          "internalType": "string",
          "name": "type1",
          "type": "string"
        },
        {
          "internalType": "string",
          "name": "tid",
          "type": "string"
        },
        {
          "internalType": "string",
          "name": "uid",
          "type": "string"
        },
        {
          "internalType": "string",
          "name": "rid",
          "type": "string"
        },
        {
          "internalType": "string",
          "name": "mid",
          "type": "string"
        },
        {
          "internalType": "string",
          "name": "extra",
          "type": "string"
        },
        {
          "internalType": "uint256",
          "name": "ln",
          "type": "uint256"
        },
        {
          "internalType": "uint256",
          "name": "rt",
          "type": "uint256"
        },
        {
          "internalType": "uint256",
          "name": "rp",
          "type": "uint256"
        }
      ],
      "stateMutability": "view",
      "type": "function",
      "constant": true
    },
    {
      "inputs": [
        {
          "internalType": "uint256",
          "name": "",
          "type": "uint256"
        }
      ],
      "name": "image1",
      "outputs": [
        {
          "internalType": "string",
          "name": "tid",
          "type": "string"
        },
        {
          "internalType": "string",
          "name": "hash1",
          "type": "string"
        },
        {
          "internalType": "string",
          "name": "type1",
          "type": "string"
        },
        {
          "internalType": "string",
          "name": "uid",
          "type": "string"
        },
        {
          "internalType": "string",
          "name": "mid",
          "type": "string"
        }
      ],
      "stateMutability": "view",
      "type": "function",
      "constant": true
    },
    {
      "inputs": [
        {
          "internalType": "uint256",
          "name": "",
          "type": "uint256"
        }
      ],
      "name": "like",
      "outputs": [
        {
          "internalType": "string",
          "name": "lid",
          "type": "string"
        },
        {
          "internalType": "string",
          "name": "uid",
          "type": "string"
        },
        {
          "internalType": "string",
          "name": "tid",
          "type": "string"
        },
        {
          "internalType": "string",
          "name": "rid",
          "type": "string"
        },
        {
          "internalType": "string",
          "name": "e1",
          "type": "string"
        },
        {
          "internalType": "string",
          "name": "mid",
          "type": "string"
        },
        {
          "internalType": "string",
          "name": "timestamp",
          "type": "string"
        }
      ],
      "stateMutability": "view",
      "type": "function",
      "constant": true
    },
    {
      "inputs": [
        {
          "internalType": "string[]",
          "name": "_attachment",
          "type": "string[]"
        },
        {
          "internalType": "string[]",
          "name": "_link",
          "type": "string[]"
        },
        {
          "internalType": "string",
          "name": "_tid",
          "type": "string"
        }
      ],
      "name": "insertData",
      "outputs": [],
      "stateMutability": "nonpayable",
      "type": "function"
    },
    {
      "inputs": [],
      "name": "getData",
      "outputs": [
        {
          "components": [
            {
              "internalType": "string",
              "name": "tid",
              "type": "string"
            },
            {
              "internalType": "string[]",
              "name": "attachment",
              "type": "string[]"
            },
            {
              "internalType": "string[]",
              "name": "link",
              "type": "string[]"
            }
          ],
          "internalType": "struct tdn.extraData[]",
          "name": "",
          "type": "tuple[]"
        }
      ],
      "stateMutability": "view",
      "type": "function",
      "constant": true
    },
    {
      "inputs": [
        {
          "internalType": "string",
          "name": "tid",
          "type": "string"
        },
        {
          "internalType": "string",
          "name": "hash1",
          "type": "string"
        },
        {
          "internalType": "string",
          "name": "type1",
          "type": "string"
        },
        {
          "internalType": "string",
          "name": "uid",
          "type": "string"
        },
        {
          "internalType": "string",
          "name": "mid",
          "type": "string"
        }
      ],
      "name": "insertHash",
      "outputs": [],
      "stateMutability": "nonpayable",
      "type": "function"
    },
    {
      "inputs": [],
      "name": "getAllImages",
      "outputs": [
        {
          "components": [
            {
              "internalType": "string",
              "name": "tid",
              "type": "string"
            },
            {
              "internalType": "string",
              "name": "hash1",
              "type": "string"
            },
            {
              "internalType": "string",
              "name": "type1",
              "type": "string"
            },
            {
              "internalType": "string",
              "name": "uid",
              "type": "string"
            },
            {
              "internalType": "string",
              "name": "mid",
              "type": "string"
            }
          ],
          "internalType": "struct tdn.image[]",
          "name": "",
          "type": "tuple[]"
        }
      ],
      "stateMutability": "view",
      "type": "function",
      "constant": true
    },
    {
      "inputs": [],
      "name": "getAllModel",
      "outputs": [
        {
          "components": [
            {
              "internalType": "string",
              "name": "txt",
              "type": "string"
            },
            {
              "internalType": "string",
              "name": "data",
              "type": "string"
            },
            {
              "internalType": "string",
              "name": "image",
              "type": "string"
            },
            {
              "internalType": "string",
              "name": "type1",
              "type": "string"
            },
            {
              "internalType": "string",
              "name": "tid",
              "type": "string"
            },
            {
              "internalType": "string",
              "name": "uid",
              "type": "string"
            },
            {
              "internalType": "string",
              "name": "rid",
              "type": "string"
            },
            {
              "internalType": "string",
              "name": "mid",
              "type": "string"
            },
            {
              "internalType": "string",
              "name": "extra",
              "type": "string"
            },
            {
              "internalType": "uint256",
              "name": "ln",
              "type": "uint256"
            },
            {
              "internalType": "uint256",
              "name": "rt",
              "type": "uint256"
            },
            {
              "internalType": "uint256",
              "name": "rp",
              "type": "uint256"
            }
          ],
          "internalType": "struct tdn.model[]",
          "name": "",
          "type": "tuple[]"
        }
      ],
      "stateMutability": "view",
      "type": "function",
      "constant": true
    },
    {
      "inputs": [],
      "name": "getAllLikes",
      "outputs": [
        {
          "components": [
            {
              "internalType": "string",
              "name": "lid",
              "type": "string"
            },
            {
              "internalType": "string",
              "name": "uid",
              "type": "string"
            },
            {
              "internalType": "string",
              "name": "tid",
              "type": "string"
            },
            {
              "internalType": "string",
              "name": "rid",
              "type": "string"
            },
            {
              "internalType": "string",
              "name": "e1",
              "type": "string"
            },
            {
              "internalType": "string",
              "name": "mid",
              "type": "string"
            },
            {
              "internalType": "string",
              "name": "timestamp",
              "type": "string"
            }
          ],
          "internalType": "struct tdn.likes[]",
          "name": "",
          "type": "tuple[]"
        }
      ],
      "stateMutability": "view",
      "type": "function",
      "constant": true
    },
    {
      "inputs": [],
      "name": "getAllHashtags",
      "outputs": [
        {
          "components": [
            {
              "internalType": "uint256",
              "name": "hid",
              "type": "uint256"
            },
            {
              "internalType": "string",
              "name": "uid",
              "type": "string"
            },
            {
              "internalType": "string",
              "name": "tid",
              "type": "string"
            },
            {
              "internalType": "string",
              "name": "hashtag",
              "type": "string"
            },
            {
              "internalType": "string",
              "name": "timestamp",
              "type": "string"
            }
          ],
          "internalType": "struct tdn.hashtags[]",
          "name": "",
          "type": "tuple[]"
        }
      ],
      "stateMutability": "view",
      "type": "function",
      "constant": true
    },
    {
      "inputs": [],
      "name": "getAllHashtagf",
      "outputs": [
        {
          "components": [
            {
              "internalType": "uint256",
              "name": "hid",
              "type": "uint256"
            },
            {
              "internalType": "string",
              "name": "hashtag",
              "type": "string"
            },
            {
              "internalType": "uint256",
              "name": "freq",
              "type": "uint256"
            }
          ],
          "internalType": "struct tdn.hashtagf[]",
          "name": "",
          "type": "tuple[]"
        }
      ],
      "stateMutability": "view",
      "type": "function",
      "constant": true
    },
    {
      "inputs": [
        {
          "internalType": "string[]",
          "name": "_hashtag",
          "type": "string[]"
        }
      ],
      "name": "setHastagf",
      "outputs": [],
      "stateMutability": "nonpayable",
      "type": "function"
    },
    {
      "inputs": [
        {
          "internalType": "string[]",
          "name": "_hashtag",
          "type": "string[]"
        },
        {
          "internalType": "string",
          "name": "timestamp",
          "type": "string"
        },
        {
          "internalType": "string",
          "name": "uid",
          "type": "string"
        },
        {
          "internalType": "string",
          "name": "tid",
          "type": "string"
        }
      ],
      "name": "setHashtag",
      "outputs": [],
      "stateMutability": "nonpayable",
      "type": "function"
    },
    {
      "inputs": [
        {
          "internalType": "string",
          "name": "_txt",
          "type": "string"
        },
        {
          "internalType": "string",
          "name": "_data",
          "type": "string"
        },
        {
          "internalType": "string",
          "name": "_image",
          "type": "string"
        },
        {
          "internalType": "string",
          "name": "_type1",
          "type": "string"
        },
        {
          "internalType": "string",
          "name": "_tid",
          "type": "string"
        },
        {
          "internalType": "string",
          "name": "_uid",
          "type": "string"
        },
        {
          "internalType": "string",
          "name": "_rid",
          "type": "string"
        },
        {
          "internalType": "string",
          "name": "_mid",
          "type": "string"
        },
        {
          "internalType": "string",
          "name": "timestamp",
          "type": "string"
        }
      ],
      "name": "dotdn",
      "outputs": [],
      "stateMutability": "nonpayable",
      "type": "function"
    },
    {
      "inputs": [
        {
          "internalType": "string",
          "name": "_lid",
          "type": "string"
        },
        {
          "internalType": "string",
          "name": "_uid",
          "type": "string"
        },
        {
          "internalType": "string",
          "name": "_tid",
          "type": "string"
        },
        {
          "internalType": "string",
          "name": "_rid",
          "type": "string"
        },
        {
          "internalType": "string",
          "name": "_e1",
          "type": "string"
        },
        {
          "internalType": "string",
          "name": "_mid",
          "type": "string"
        },
        {
          "internalType": "string",
          "name": "timestamp",
          "type": "string"
        }
      ],
      "name": "doLike",
      "outputs": [],
      "stateMutability": "nonpayable",
      "type": "function"
    },
    {
      "inputs": [
        {
          "internalType": "string",
          "name": "_uid",
          "type": "string"
        },
        {
          "internalType": "string",
          "name": "_tid",
          "type": "string"
        }
      ],
      "name": "unlike",
      "outputs": [],
      "stateMutability": "nonpayable",
      "type": "function"
    },
    {
      "inputs": [
        {
          "internalType": "string",
          "name": "_uid",
          "type": "string"
        },
        {
          "internalType": "string",
          "name": "_fid",
          "type": "string"
        },
        {
          "internalType": "string",
          "name": "_tid",
          "type": "string"
        },
        {
          "internalType": "string",
          "name": "timestamp",
          "type": "string"
        },
        {
          "internalType": "string",
          "name": "_comment",
          "type": "string"
        }
      ],
      "name": "sendRetweet",
      "outputs": [],
      "stateMutability": "nonpayable",
      "type": "function"
    },
    {
      "inputs": [
        {
          "internalType": "string",
          "name": "_txt",
          "type": "string"
        },
        {
          "internalType": "string",
          "name": "_data",
          "type": "string"
        },
        {
          "internalType": "string",
          "name": "_image",
          "type": "string"
        },
        {
          "internalType": "string",
          "name": "_type1",
          "type": "string"
        },
        {
          "internalType": "string",
          "name": "_tid",
          "type": "string"
        },
        {
          "internalType": "string",
          "name": "_uid",
          "type": "string"
        },
        {
          "internalType": "string",
          "name": "_mid",
          "type": "string"
        },
        {
          "internalType": "string",
          "name": "extra",
          "type": "string"
        },
        {
          "internalType": "string",
          "name": "timestamp",
          "type": "string"
        }
      ],
      "name": "sendReply",
      "outputs": [],
      "stateMutability": "nonpayable",
      "type": "function"
    }
  ],
  "bytecode": "0x608060405260008055600060015534801561001957600080fd5b506157da806200002a6000396000f3fe608060405234801561001057600080fd5b506004361061014d5760003560e01c80637b7284fc116100c3578063de7aeffa1161007c578063de7aeffa14610385578063e82935da146103a3578063e901c03c146103d9578063f0b1edaa1461040d578063f2f84fa21461042b578063fefe43e4146104475761014d565b80637b7284fc146102a25780638a0eb5ab146102c05780639d41f7eb146102f4578063c6a8ae2014610312578063c8f43d161461032e578063d0c7697e146103695761014d565b80635939a6f3116101155780635939a6f3146101e457806359f8e1ad146102145780635d192940146102305780636c80a20c1461024c5780637477f7001461026857806378c95847146102865761014d565b80630157a0a41461015257806306661abd1461016e578063152904181461018c578063340849f6146101aa5780633bc5de30146101c6575b600080fd5b61016c600480360381019061016791906140d6565b610479565b005b61017661051d565b6040516101839190615247565b60405180910390f35b610194610523565b6040516101a19190614f8e565b60405180910390f35b6101c460048036038101906101bf9190614230565b6107d4565b005b6101ce610ad6565b6040516101db9190614f4a565b60405180910390f35b6101fe60048036038101906101f9919061466f565b610d79565b60405161020b9190615016565b60405180910390f35b61022e6004803603810190610229919061438b565b610e2f565b005b61024a6004803603810190610245919061429c565b6110a2565b005b61026660048036038101906102619190614095565b6115cb565b005b610270611964565b60405161027d9190615247565b60405180910390f35b6102a0600480360381019061029b91906144d1565b61196a565b005b6102aa611b1e565b6040516102b79190614fb0565b60405180910390f35b6102da60048036038101906102d5919061466f565b611e57565b6040516102eb959493929190615038565b60405180910390f35b6102fc612145565b6040516103099190614fd2565b60405180910390f35b61032c6004803603810190610327919061429c565b6125a2565b005b6103486004803603810190610343919061466f565b61268e565b6040516103609c9b9a9998979695949392919061514e565b60405180910390f35b610383600480360381019061037e919061416d565b612bc6565b005b61038d612d00565b60405161039a9190614ff4565b60405180910390f35b6103bd60048036038101906103b8919061466f565b6132a0565b6040516103d097969594939291906150ae565b60405180910390f35b6103f360048036038101906103ee919061466f565b6136aa565b604051610404959493929190615262565b60405180910390f35b610415613910565b6040516104229190614f6c565b60405180910390f35b610445600480360381019061044091906144d1565b613a15565b005b610461600480360381019061045c919061466f565b613d07565b604051610470939291906152d1565b60405180910390f35b6007604051806060016040528083815260200185815260200184815250908060018154018082558091505060019003906000526020600020906003020160009091909190915060008201518160000190805190602001906104db929190613dc9565b5060208201518160010190805190602001906104f8929190613e4f565b506040820151816002019080519060200190610515929190613e4f565b505050505050565b60005481565b60606004805480602002602001604051908101604052809291908181526020016000905b828210156107cb57838290600052602060002090600502016040518060a00160405290816000820154815260200160018201805461058490615643565b80601f01602080910402602001604051908101604052809291908181526020018280546105b090615643565b80156105fd5780601f106105d2576101008083540402835291602001916105fd565b820191906000526020600020905b8154815290600101906020018083116105e057829003601f168201915b5050505050815260200160028201805461061690615643565b80601f016020809104026020016040519081016040528092919081815260200182805461064290615643565b801561068f5780601f106106645761010080835404028352916020019161068f565b820191906000526020600020905b81548152906001019060200180831161067257829003601f168201915b505050505081526020016003820180546106a890615643565b80601f01602080910402602001604051908101604052809291908181526020018280546106d490615643565b80156107215780601f106106f657610100808354040283529160200191610721565b820191906000526020600020905b81548152906001019060200180831161070457829003601f168201915b5050505050815260200160048201805461073a90615643565b80601f016020809104026020016040519081016040528092919081815260200182805461076690615643565b80156107b35780601f10610788576101008083540402835291602001916107b3565b820191906000526020600020905b81548152906001019060200180831161079657829003601f168201915b50505050508152505081526020019060010190610547565b50505050905090565b60005b60038054905081101561099257818051906020012060038281548110610826577f4e487b7100000000000000000000000000000000000000000000000000000000600052603260045260246000fd5b90600052602060002090600702016002016040516108449190614f33565b60405180910390201480156108be5750828051906020012060038281548110610896577f4e487b7100000000000000000000000000000000000000000000000000000000600052603260045260246000fd5b90600052602060002090600702016001016040516108b49190614f33565b6040518091039020145b1561097f57600381815481106108fd577f4e487b7100000000000000000000000000000000000000000000000000000000600052603260045260246000fd5b90600052602060002090600702016000808201600061091c9190613eaf565b60018201600061092c9190613eaf565b60028201600061093c9190613eaf565b60038201600061094c9190613eaf565b60048201600061095c9190613eaf565b60058201600061096c9190613eaf565b60068201600061097c9190613eaf565b50505b808061098a906156a6565b9150506107d7565b506000805b600280549050811015610ad057600281815481106109de577f4e487b7100000000000000000000000000000000000000000000000000000000600052603260045260246000fd5b90600052602060002090600c02016004016040516109fc9190614f33565b604051809103902083805190602001201415610abd57600160028281548110610a4e577f4e487b7100000000000000000000000000000000000000000000000000000000600052603260045260246000fd5b90600052602060002090600c020160090154610a6a91906155c3565b91508160028281548110610aa7577f4e487b7100000000000000000000000000000000000000000000000000000000600052603260045260246000fd5b90600052602060002090600c0201600901819055505b8080610ac8906156a6565b915050610997565b50505050565b60606007805480602002602001604051908101604052809291908181526020016000905b82821015610d705783829060005260206000209060030201604051806060016040529081600082018054610b2d90615643565b80601f0160208091040260200160405190810160405280929190818152602001828054610b5990615643565b8015610ba65780601f10610b7b57610100808354040283529160200191610ba6565b820191906000526020600020905b815481529060010190602001808311610b8957829003601f168201915b5050505050815260200160018201805480602002602001604051908101604052809291908181526020016000905b82821015610c80578382906000526020600020018054610bf390615643565b80601f0160208091040260200160405190810160405280929190818152602001828054610c1f90615643565b8015610c6c5780601f10610c4157610100808354040283529160200191610c6c565b820191906000526020600020905b815481529060010190602001808311610c4f57829003601f168201915b505050505081526020019060010190610bd4565b50505050815260200160028201805480602002602001604051908101604052809291908181526020016000905b82821015610d59578382906000526020600020018054610ccc90615643565b80601f0160208091040260200160405190810160405280929190818152602001828054610cf890615643565b8015610d455780601f10610d1a57610100808354040283529160200191610d45565b820191906000526020600020905b815481529060010190602001808311610d2857829003601f168201915b505050505081526020019060010190610cad565b505050508152505081526020019060010190610afa565b50505050905090565b60078181548110610d8957600080fd5b9060005260206000209060030201600091509050806000018054610dac90615643565b80601f0160208091040260200160405190810160405280929190818152602001828054610dd890615643565b8015610e255780601f10610dfa57610100808354040283529160200191610e25565b820191906000526020600020905b815481529060010190602001808311610e0857829003601f168201915b5050505050905081565b60036040518060e001604052808981526020018881526020018781526020018681526020018581526020018481526020018381525090806001815401808255809150506001900390600052602060002090600702016000909190919091506000820151816000019080519060200190610ea9929190613dc9565b506020820151816001019080519060200190610ec6929190613dc9565b506040820151816002019080519060200190610ee3929190613dc9565b506060820151816003019080519060200190610f00929190613dc9565b506080820151816004019080519060200190610f1d929190613dc9565b5060a0820151816005019080519060200190610f3a929190613dc9565b5060c0820151816006019080519060200190610f57929190613dc9565b5050506000805b6002805490508110156110975760028181548110610fa5577f4e487b7100000000000000000000000000000000000000000000000000000000600052603260045260246000fd5b90600052602060002090600c0201600401604051610fc39190614f33565b60405180910390208780519060200120141561108457600160028281548110611015577f4e487b7100000000000000000000000000000000000000000000000000000000600052603260045260246000fd5b90600052602060002090600c020160090154611031919061556d565b9150816002828154811061106e577f4e487b7100000000000000000000000000000000000000000000000000000000600052603260045260246000fd5b90600052602060002090600c0201600901819055505b808061108f906156a6565b915050610f5e565b505050505050505050565b6110aa613eef565b60005b60028054905081101561146d578580519060200120600282815481106110fc577f4e487b7100000000000000000000000000000000000000000000000000000000600052603260045260246000fd5b90600052602060002090600c020160050160405161111a9190614f33565b6040518091039020148015611194575084805190602001206002828154811061116c577f4e487b7100000000000000000000000000000000000000000000000000000000600052603260045260246000fd5b90600052602060002090600c020160040160405161118a9190614f33565b6040518091039020145b1561145a576001600282815481106111d5577f4e487b7100000000000000000000000000000000000000000000000000000000600052603260045260246000fd5b90600052602060002090600c0201600a01546111f1919061556d565b6002828154811061122b577f4e487b7100000000000000000000000000000000000000000000000000000000600052603260045260246000fd5b90600052602060002090600c0201600a01819055506040518061018001604052808481526020016040518060400160405280600181526020017f300000000000000000000000000000000000000000000000000000000000000081525081526020016040518060400160405280600181526020017f300000000000000000000000000000000000000000000000000000000000000081525081526020016040518060400160405280600181526020017f300000000000000000000000000000000000000000000000000000000000000081525081526020018681526020018781526020018881526020016040518060400160405280600181526020017f3000000000000000000000000000000000000000000000000000000000000000815250815260200185815260200160028381548110611390577f4e487b7100000000000000000000000000000000000000000000000000000000600052603260045260246000fd5b90600052602060002090600c02016009015481526020016001600284815481106113e3577f4e487b7100000000000000000000000000000000000000000000000000000000600052603260045260246000fd5b90600052602060002090600c0201600a01546113ff919061556d565b81526020016002838154811061143e577f4e487b7100000000000000000000000000000000000000000000000000000000600052603260045260246000fd5b90600052602060002090600c0201600b0154815250915061146d565b8080611465906156a6565b9150506110ad565b5060028190806001815401808255809150506001900390600052602060002090600c020160009091909190915060008201518160000190805190602001906114b6929190613dc9565b5060208201518160010190805190602001906114d3929190613dc9565b5060408201518160020190805190602001906114f0929190613dc9565b50606082015181600301908051906020019061150d929190613dc9565b50608082015181600401908051906020019061152a929190613dc9565b5060a0820151816005019080519060200190611547929190613dc9565b5060c0820151816006019080519060200190611564929190613dc9565b5060e0820151816007019080519060200190611581929190613dc9565b5061010082015181600801908051906020019061159f929190613dc9565b50610120820151816009015561014082015181600a015561016082015181600b01555050505050505050565b600080600590506000600580549050111561186b5760005b83518110156118655760005b60058054905081101561177057848281518110611635577f4e487b7100000000000000000000000000000000000000000000000000000000600052603260045260246000fd5b6020026020010151805190602001206005828154811061167e577f4e487b7100000000000000000000000000000000000000000000000000000000600052603260045260246000fd5b906000526020600020906003020160010160405161169c9190614f33565b6040518091039020141561175d57600192506001600582815481106116ea577f4e487b7100000000000000000000000000000000000000000000000000000000600052603260045260246000fd5b906000526020600020906003020160020154611706919061556d565b93508360058281548110611743577f4e487b7100000000000000000000000000000000000000000000000000000000600052603260045260246000fd5b906000526020600020906003020160020181905550600093505b8080611768906156a6565b9150506115ef565b506005821415611852576005604051806060016040528060005481526020018684815181106117c8577f4e487b7100000000000000000000000000000000000000000000000000000000600052603260045260246000fd5b6020026020010151815260200160018152509080600181540180825580915050600190039060005260206000209060030201600090919091909150600082015181600001556020820151816001019080519060200190611829929190613dc9565b50604082015181600201555050600080815480929190611848906156a6565b9190505550600091505b808061185d906156a6565b9150506115e3565b5061195f565b60005b835181101561195d576005604051806060016040528060005481526020018684815181106118c5577f4e487b7100000000000000000000000000000000000000000000000000000000600052603260045260246000fd5b6020026020010151815260200160018152509080600181540180825580915050600190039060005260206000209060030201600090919091909150600082015181600001556020820151816001019080519060200190611926929190613dc9565b50604082015181600201555050600080815480929190611945906156a6565b91905055508080611955906156a6565b91505061186e565b505b505050565b60015481565b60026040518061018001604052808b81526020018a81526020018981526020018881526020018781526020018681526020018581526020018481526020018381526020016000815260200160008152602001600081525090806001815401808255809150506001900390600052602060002090600c02016000909190919091506000820151816000019080519060200190611a06929190613dc9565b506020820151816001019080519060200190611a23929190613dc9565b506040820151816002019080519060200190611a40929190613dc9565b506060820151816003019080519060200190611a5d929190613dc9565b506080820151816004019080519060200190611a7a929190613dc9565b5060a0820151816005019080519060200190611a97929190613dc9565b5060c0820151816006019080519060200190611ab4929190613dc9565b5060e0820151816007019080519060200190611ad1929190613dc9565b50610100820151816008019080519060200190611aef929190613dc9565b50610120820151816009015561014082015181600a015561016082015181600b01555050505050505050505050565b60606006805480602002602001604051908101604052809291908181526020016000905b82821015611e4e57838290600052602060002090600502016040518060a0016040529081600082018054611b7590615643565b80601f0160208091040260200160405190810160405280929190818152602001828054611ba190615643565b8015611bee5780601f10611bc357610100808354040283529160200191611bee565b820191906000526020600020905b815481529060010190602001808311611bd157829003601f168201915b50505050508152602001600182018054611c0790615643565b80601f0160208091040260200160405190810160405280929190818152602001828054611c3390615643565b8015611c805780601f10611c5557610100808354040283529160200191611c80565b820191906000526020600020905b815481529060010190602001808311611c6357829003601f168201915b50505050508152602001600282018054611c9990615643565b80601f0160208091040260200160405190810160405280929190818152602001828054611cc590615643565b8015611d125780601f10611ce757610100808354040283529160200191611d12565b820191906000526020600020905b815481529060010190602001808311611cf557829003601f168201915b50505050508152602001600382018054611d2b90615643565b80601f0160208091040260200160405190810160405280929190818152602001828054611d5790615643565b8015611da45780601f10611d7957610100808354040283529160200191611da4565b820191906000526020600020905b815481529060010190602001808311611d8757829003601f168201915b50505050508152602001600482018054611dbd90615643565b80601f0160208091040260200160405190810160405280929190818152602001828054611de990615643565b8015611e365780601f10611e0b57610100808354040283529160200191611e36565b820191906000526020600020905b815481529060010190602001808311611e1957829003601f168201915b50505050508152505081526020019060010190611b42565b50505050905090565b60068181548110611e6757600080fd5b9060005260206000209060050201600091509050806000018054611e8a90615643565b80601f0160208091040260200160405190810160405280929190818152602001828054611eb690615643565b8015611f035780601f10611ed857610100808354040283529160200191611f03565b820191906000526020600020905b815481529060010190602001808311611ee657829003601f168201915b505050505090806001018054611f1890615643565b80601f0160208091040260200160405190810160405280929190818152602001828054611f4490615643565b8015611f915780601f10611f6657610100808354040283529160200191611f91565b820191906000526020600020905b815481529060010190602001808311611f7457829003601f168201915b505050505090806002018054611fa690615643565b80601f0160208091040260200160405190810160405280929190818152602001828054611fd290615643565b801561201f5780601f10611ff45761010080835404028352916020019161201f565b820191906000526020600020905b81548152906001019060200180831161200257829003601f168201915b50505050509080600301805461203490615643565b80601f016020809104026020016040519081016040528092919081815260200182805461206090615643565b80156120ad5780601f10612082576101008083540402835291602001916120ad565b820191906000526020600020905b81548152906001019060200180831161209057829003601f168201915b5050505050908060040180546120c290615643565b80601f01602080910402602001604051908101604052809291908181526020018280546120ee90615643565b801561213b5780601f106121105761010080835404028352916020019161213b565b820191906000526020600020905b81548152906001019060200180831161211e57829003601f168201915b5050505050905085565b60606003805480602002602001604051908101604052809291908181526020016000905b8282101561259957838290600052602060002090600702016040518060e001604052908160008201805461219c90615643565b80601f01602080910402602001604051908101604052809291908181526020018280546121c890615643565b80156122155780601f106121ea57610100808354040283529160200191612215565b820191906000526020600020905b8154815290600101906020018083116121f857829003601f168201915b5050505050815260200160018201805461222e90615643565b80601f016020809104026020016040519081016040528092919081815260200182805461225a90615643565b80156122a75780601f1061227c576101008083540402835291602001916122a7565b820191906000526020600020905b81548152906001019060200180831161228a57829003601f168201915b505050505081526020016002820180546122c090615643565b80601f01602080910402602001604051908101604052809291908181526020018280546122ec90615643565b80156123395780601f1061230e57610100808354040283529160200191612339565b820191906000526020600020905b81548152906001019060200180831161231c57829003601f168201915b5050505050815260200160038201805461235290615643565b80601f016020809104026020016040519081016040528092919081815260200182805461237e90615643565b80156123cb5780601f106123a0576101008083540402835291602001916123cb565b820191906000526020600020905b8154815290600101906020018083116123ae57829003601f168201915b505050505081526020016004820180546123e490615643565b80601f016020809104026020016040519081016040528092919081815260200182805461241090615643565b801561245d5780601f106124325761010080835404028352916020019161245d565b820191906000526020600020905b81548152906001019060200180831161244057829003601f168201915b5050505050815260200160058201805461247690615643565b80601f01602080910402602001604051908101604052809291908181526020018280546124a290615643565b80156124ef5780601f106124c4576101008083540402835291602001916124ef565b820191906000526020600020905b8154815290600101906020018083116124d257829003601f168201915b5050505050815260200160068201805461250890615643565b80601f016020809104026020016040519081016040528092919081815260200182805461253490615643565b80156125815780601f1061255657610100808354040283529160200191612581565b820191906000526020600020905b81548152906001019060200180831161256457829003601f168201915b50505050508152505081526020019060010190612169565b50505050905090565b60066040518060a001604052808781526020018681526020018581526020018481526020018381525090806001815401808255809150506001900390600052602060002090600502016000909190919091506000820151816000019080519060200190612610929190613dc9565b50602082015181600101908051906020019061262d929190613dc9565b50604082015181600201908051906020019061264a929190613dc9565b506060820151816003019080519060200190612667929190613dc9565b506080820151816004019080519060200190612684929190613dc9565b5050505050505050565b6002818154811061269e57600080fd5b90600052602060002090600c02016000915090508060000180546126c190615643565b80601f01602080910402602001604051908101604052809291908181526020018280546126ed90615643565b801561273a5780601f1061270f5761010080835404028352916020019161273a565b820191906000526020600020905b81548152906001019060200180831161271d57829003601f168201915b50505050509080600101805461274f90615643565b80601f016020809104026020016040519081016040528092919081815260200182805461277b90615643565b80156127c85780601f1061279d576101008083540402835291602001916127c8565b820191906000526020600020905b8154815290600101906020018083116127ab57829003601f168201915b5050505050908060020180546127dd90615643565b80601f016020809104026020016040519081016040528092919081815260200182805461280990615643565b80156128565780601f1061282b57610100808354040283529160200191612856565b820191906000526020600020905b81548152906001019060200180831161283957829003601f168201915b50505050509080600301805461286b90615643565b80601f016020809104026020016040519081016040528092919081815260200182805461289790615643565b80156128e45780601f106128b9576101008083540402835291602001916128e4565b820191906000526020600020905b8154815290600101906020018083116128c757829003601f168201915b5050505050908060040180546128f990615643565b80601f016020809104026020016040519081016040528092919081815260200182805461292590615643565b80156129725780601f1061294757610100808354040283529160200191612972565b820191906000526020600020905b81548152906001019060200180831161295557829003601f168201915b50505050509080600501805461298790615643565b80601f01602080910402602001604051908101604052809291908181526020018280546129b390615643565b8015612a005780601f106129d557610100808354040283529160200191612a00565b820191906000526020600020905b8154815290600101906020018083116129e357829003601f168201915b505050505090806006018054612a1590615643565b80601f0160208091040260200160405190810160405280929190818152602001828054612a4190615643565b8015612a8e5780601f10612a6357610100808354040283529160200191612a8e565b820191906000526020600020905b815481529060010190602001808311612a7157829003601f168201915b505050505090806007018054612aa390615643565b80601f0160208091040260200160405190810160405280929190818152602001828054612acf90615643565b8015612b1c5780601f10612af157610100808354040283529160200191612b1c565b820191906000526020600020905b815481529060010190602001808311612aff57829003601f168201915b505050505090806008018054612b3190615643565b80601f0160208091040260200160405190810160405280929190818152602001828054612b5d90615643565b8015612baa5780601f10612b7f57610100808354040283529160200191612baa565b820191906000526020600020905b815481529060010190602001808311612b8d57829003601f168201915b50505050509080600901549080600a01549080600b015490508c565b60005b8451811015612cf95760046040518060a001604052806001548152602001858152602001848152602001878481518110612c2c577f4e487b7100000000000000000000000000000000000000000000000000000000600052603260045260246000fd5b60200260200101518152602001868152509080600181540180825580915050600190039060005260206000209060050201600090919091909150600082015181600001556020820151816001019080519060200190612c8c929190613dc9565b506040820151816002019080519060200190612ca9929190613dc9565b506060820151816003019080519060200190612cc6929190613dc9565b506080820151816004019080519060200190612ce3929190613dc9565b5050508080612cf1906156a6565b915050612bc9565b5050505050565b60606002805480602002602001604051908101604052809291908181526020016000905b8282101561329757838290600052602060002090600c020160405180610180016040529081600082018054612d5890615643565b80601f0160208091040260200160405190810160405280929190818152602001828054612d8490615643565b8015612dd15780601f10612da657610100808354040283529160200191612dd1565b820191906000526020600020905b815481529060010190602001808311612db457829003601f168201915b50505050508152602001600182018054612dea90615643565b80601f0160208091040260200160405190810160405280929190818152602001828054612e1690615643565b8015612e635780601f10612e3857610100808354040283529160200191612e63565b820191906000526020600020905b815481529060010190602001808311612e4657829003601f168201915b50505050508152602001600282018054612e7c90615643565b80601f0160208091040260200160405190810160405280929190818152602001828054612ea890615643565b8015612ef55780601f10612eca57610100808354040283529160200191612ef5565b820191906000526020600020905b815481529060010190602001808311612ed857829003601f168201915b50505050508152602001600382018054612f0e90615643565b80601f0160208091040260200160405190810160405280929190818152602001828054612f3a90615643565b8015612f875780601f10612f5c57610100808354040283529160200191612f87565b820191906000526020600020905b815481529060010190602001808311612f6a57829003601f168201915b50505050508152602001600482018054612fa090615643565b80601f0160208091040260200160405190810160405280929190818152602001828054612fcc90615643565b80156130195780601f10612fee57610100808354040283529160200191613019565b820191906000526020600020905b815481529060010190602001808311612ffc57829003601f168201915b5050505050815260200160058201805461303290615643565b80601f016020809104026020016040519081016040528092919081815260200182805461305e90615643565b80156130ab5780601f10613080576101008083540402835291602001916130ab565b820191906000526020600020905b81548152906001019060200180831161308e57829003601f168201915b505050505081526020016006820180546130c490615643565b80601f01602080910402602001604051908101604052809291908181526020018280546130f090615643565b801561313d5780601f106131125761010080835404028352916020019161313d565b820191906000526020600020905b81548152906001019060200180831161312057829003601f168201915b5050505050815260200160078201805461315690615643565b80601f016020809104026020016040519081016040528092919081815260200182805461318290615643565b80156131cf5780601f106131a4576101008083540402835291602001916131cf565b820191906000526020600020905b8154815290600101906020018083116131b257829003601f168201915b505050505081526020016008820180546131e890615643565b80601f016020809104026020016040519081016040528092919081815260200182805461321490615643565b80156132615780601f1061323657610100808354040283529160200191613261565b820191906000526020600020905b81548152906001019060200180831161324457829003601f168201915b5050505050815260200160098201548152602001600a8201548152602001600b8201548152505081526020019060010190612d24565b50505050905090565b600381815481106132b057600080fd5b90600052602060002090600702016000915090508060000180546132d390615643565b80601f01602080910402602001604051908101604052809291908181526020018280546132ff90615643565b801561334c5780601f106133215761010080835404028352916020019161334c565b820191906000526020600020905b81548152906001019060200180831161332f57829003601f168201915b50505050509080600101805461336190615643565b80601f016020809104026020016040519081016040528092919081815260200182805461338d90615643565b80156133da5780601f106133af576101008083540402835291602001916133da565b820191906000526020600020905b8154815290600101906020018083116133bd57829003601f168201915b5050505050908060020180546133ef90615643565b80601f016020809104026020016040519081016040528092919081815260200182805461341b90615643565b80156134685780601f1061343d57610100808354040283529160200191613468565b820191906000526020600020905b81548152906001019060200180831161344b57829003601f168201915b50505050509080600301805461347d90615643565b80601f01602080910402602001604051908101604052809291908181526020018280546134a990615643565b80156134f65780601f106134cb576101008083540402835291602001916134f6565b820191906000526020600020905b8154815290600101906020018083116134d957829003601f168201915b50505050509080600401805461350b90615643565b80601f016020809104026020016040519081016040528092919081815260200182805461353790615643565b80156135845780601f1061355957610100808354040283529160200191613584565b820191906000526020600020905b81548152906001019060200180831161356757829003601f168201915b50505050509080600501805461359990615643565b80601f01602080910402602001604051908101604052809291908181526020018280546135c590615643565b80156136125780601f106135e757610100808354040283529160200191613612565b820191906000526020600020905b8154815290600101906020018083116135f557829003601f168201915b50505050509080600601805461362790615643565b80601f016020809104026020016040519081016040528092919081815260200182805461365390615643565b80156136a05780601f10613675576101008083540402835291602001916136a0565b820191906000526020600020905b81548152906001019060200180831161368357829003601f168201915b5050505050905087565b600481815481106136ba57600080fd5b90600052602060002090600502016000915090508060000154908060010180546136e390615643565b80601f016020809104026020016040519081016040528092919081815260200182805461370f90615643565b801561375c5780601f106137315761010080835404028352916020019161375c565b820191906000526020600020905b81548152906001019060200180831161373f57829003601f168201915b50505050509080600201805461377190615643565b80601f016020809104026020016040519081016040528092919081815260200182805461379d90615643565b80156137ea5780601f106137bf576101008083540402835291602001916137ea565b820191906000526020600020905b8154815290600101906020018083116137cd57829003601f168201915b5050505050908060030180546137ff90615643565b80601f016020809104026020016040519081016040528092919081815260200182805461382b90615643565b80156138785780601f1061384d57610100808354040283529160200191613878565b820191906000526020600020905b81548152906001019060200180831161385b57829003601f168201915b50505050509080600401805461388d90615643565b80601f01602080910402602001604051908101604052809291908181526020018280546138b990615643565b80156139065780601f106138db57610100808354040283529160200191613906565b820191906000526020600020905b8154815290600101906020018083116138e957829003601f168201915b5050505050905085565b60606005805480602002602001604051908101604052809291908181526020016000905b82821015613a0c57838290600052602060002090600302016040518060600160405290816000820154815260200160018201805461397190615643565b80601f016020809104026020016040519081016040528092919081815260200182805461399d90615643565b80156139ea5780601f106139bf576101008083540402835291602001916139ea565b820191906000526020600020905b8154815290600101906020018083116139cd57829003601f168201915b5050505050815260200160028201548152505081526020019060010190613934565b50505050905090565b60005b600280549050811015613b5257828051906020012060028281548110613a67577f4e487b7100000000000000000000000000000000000000000000000000000000600052603260045260246000fd5b90600052602060002090600c0201600401604051613a859190614f33565b60405180910390201415613b3f57600160028281548110613acf577f4e487b7100000000000000000000000000000000000000000000000000000000600052603260045260246000fd5b90600052602060002090600c0201600b0154613aeb919061556d565b60028281548110613b25577f4e487b7100000000000000000000000000000000000000000000000000000000600052603260045260246000fd5b90600052602060002090600c0201600b0181905550613b52565b8080613b4a906156a6565b915050613a18565b5060026040518061018001604052808b81526020018a81526020018981526020018881526020018781526020018681526020018381526020018581526020018481526020016000815260200160008152602001600081525090806001815401808255809150506001900390600052602060002090600c02016000909190919091506000820151816000019080519060200190613bef929190613dc9565b506020820151816001019080519060200190613c0c929190613dc9565b506040820151816002019080519060200190613c29929190613dc9565b506060820151816003019080519060200190613c46929190613dc9565b506080820151816004019080519060200190613c63929190613dc9565b5060a0820151816005019080519060200190613c80929190613dc9565b5060c0820151816006019080519060200190613c9d929190613dc9565b5060e0820151816007019080519060200190613cba929190613dc9565b50610100820151816008019080519060200190613cd8929190613dc9565b50610120820151816009015561014082015181600a015561016082015181600b01555050505050505050505050565b60058181548110613d1757600080fd5b9060005260206000209060030201600091509050806000015490806001018054613d4090615643565b80601f0160208091040260200160405190810160405280929190818152602001828054613d6c90615643565b8015613db95780601f10613d8e57610100808354040283529160200191613db9565b820191906000526020600020905b815481529060010190602001808311613d9c57829003601f168201915b5050505050908060020154905083565b828054613dd590615643565b90600052602060002090601f016020900481019282613df75760008555613e3e565b82601f10613e1057805160ff1916838001178555613e3e565b82800160010185558215613e3e579182015b82811115613e3d578251825591602001919060010190613e22565b5b509050613e4b9190613f50565b5090565b828054828255906000526020600020908101928215613e9e579160200282015b82811115613e9d578251829080519060200190613e8d929190613dc9565b5091602001919060010190613e6f565b5b509050613eab9190613f6d565b5090565b508054613ebb90615643565b6000825580601f10613ecd5750613eec565b601f016020900490600052602060002090810190613eeb9190613f50565b5b50565b6040518061018001604052806060815260200160608152602001606081526020016060815260200160608152602001606081526020016060815260200160608152602001606081526020016000815260200160008152602001600081525090565b5b80821115613f69576000816000905550600101613f51565b5090565b5b80821115613f8d5760008181613f849190613eaf565b50600101613f6e565b5090565b6000613fa4613f9f84615334565b61530f565b9050808382526020820190508260005b85811015613fe45781358501613fca8882614056565b845260208401935060208301925050600181019050613fb4565b5050509392505050565b6000614001613ffc84615360565b61530f565b90508281526020810184848401111561401957600080fd5b614024848285615601565b509392505050565b600082601f83011261403d57600080fd5b813561404d848260208601613f91565b91505092915050565b600082601f83011261406757600080fd5b8135614077848260208601613fee565b91505092915050565b60008135905061408f8161578d565b92915050565b6000602082840312156140a757600080fd5b600082013567ffffffffffffffff8111156140c157600080fd5b6140cd8482850161402c565b91505092915050565b6000806000606084860312156140eb57600080fd5b600084013567ffffffffffffffff81111561410557600080fd5b6141118682870161402c565b935050602084013567ffffffffffffffff81111561412e57600080fd5b61413a8682870161402c565b925050604084013567ffffffffffffffff81111561415757600080fd5b61416386828701614056565b9150509250925092565b6000806000806080858703121561418357600080fd5b600085013567ffffffffffffffff81111561419d57600080fd5b6141a98782880161402c565b945050602085013567ffffffffffffffff8111156141c657600080fd5b6141d287828801614056565b935050604085013567ffffffffffffffff8111156141ef57600080fd5b6141fb87828801614056565b925050606085013567ffffffffffffffff81111561421857600080fd5b61422487828801614056565b91505092959194509250565b6000806040838503121561424357600080fd5b600083013567ffffffffffffffff81111561425d57600080fd5b61426985828601614056565b925050602083013567ffffffffffffffff81111561428657600080fd5b61429285828601614056565b9150509250929050565b600080600080600060a086880312156142b457600080fd5b600086013567ffffffffffffffff8111156142ce57600080fd5b6142da88828901614056565b955050602086013567ffffffffffffffff8111156142f757600080fd5b61430388828901614056565b945050604086013567ffffffffffffffff81111561432057600080fd5b61432c88828901614056565b935050606086013567ffffffffffffffff81111561434957600080fd5b61435588828901614056565b925050608086013567ffffffffffffffff81111561437257600080fd5b61437e88828901614056565b9150509295509295909350565b600080600080600080600060e0888a0312156143a657600080fd5b600088013567ffffffffffffffff8111156143c057600080fd5b6143cc8a828b01614056565b975050602088013567ffffffffffffffff8111156143e957600080fd5b6143f58a828b01614056565b965050604088013567ffffffffffffffff81111561441257600080fd5b61441e8a828b01614056565b955050606088013567ffffffffffffffff81111561443b57600080fd5b6144478a828b01614056565b945050608088013567ffffffffffffffff81111561446457600080fd5b6144708a828b01614056565b93505060a088013567ffffffffffffffff81111561448d57600080fd5b6144998a828b01614056565b92505060c088013567ffffffffffffffff8111156144b657600080fd5b6144c28a828b01614056565b91505092959891949750929550565b60008060008060008060008060006101208a8c0312156144f057600080fd5b60008a013567ffffffffffffffff81111561450a57600080fd5b6145168c828d01614056565b99505060208a013567ffffffffffffffff81111561453357600080fd5b61453f8c828d01614056565b98505060408a013567ffffffffffffffff81111561455c57600080fd5b6145688c828d01614056565b97505060608a013567ffffffffffffffff81111561458557600080fd5b6145918c828d01614056565b96505060808a013567ffffffffffffffff8111156145ae57600080fd5b6145ba8c828d01614056565b95505060a08a013567ffffffffffffffff8111156145d757600080fd5b6145e38c828d01614056565b94505060c08a013567ffffffffffffffff81111561460057600080fd5b61460c8c828d01614056565b93505060e08a013567ffffffffffffffff81111561462957600080fd5b6146358c828d01614056565b9250506101008a013567ffffffffffffffff81111561465357600080fd5b61465f8c828d01614056565b9150509295985092959850929598565b60006020828403121561468157600080fd5b600061468f84828501614080565b91505092915050565b60006146a48383614ad6565b905092915050565b60006146b88383614b48565b905092915050565b60006146cc8383614ba6565b905092915050565b60006146e08383614bf6565b905092915050565b60006146f48383614c81565b905092915050565b60006147088383614d13565b905092915050565b600061471c8383614dd9565b905092915050565b600061472f82615416565b61473981856154c9565b93508360208202850161474b85615391565b8060005b8581101561478757848403895281516147688582614698565b94506147738361546e565b925060208a0199505060018101905061474f565b50829750879550505050505092915050565b60006147a482615421565b6147ae81856154da565b9350836020820285016147c0856153a1565b8060005b858110156147fc57848403895281516147dd85826146ac565b94506147e88361547b565b925060208a019950506001810190506147c4565b50829750879550505050505092915050565b60006148198261542c565b61482381856154eb565b935083602082028501614835856153b1565b8060005b85811015614871578484038952815161485285826146c0565b945061485d83615488565b925060208a01995050600181019050614839565b50829750879550505050505092915050565b600061488e82615437565b61489881856154fc565b9350836020820285016148aa856153c1565b8060005b858110156148e657848403895281516148c785826146d4565b94506148d283615495565b925060208a019950506001810190506148ae565b50829750879550505050505092915050565b600061490382615442565b61490d818561550d565b93508360208202850161491f856153d1565b8060005b8581101561495b578484038952815161493c85826146e8565b9450614947836154a2565b925060208a01995050600181019050614923565b50829750879550505050505092915050565b60006149788261544d565b614982818561551e565b935083602082028501614994856153e1565b8060005b858110156149d057848403895281516149b185826146fc565b94506149bc836154af565b925060208a01995050600181019050614998565b50829750879550505050505092915050565b60006149ed82615458565b6149f7818561552f565b935083602082028501614a09856153f1565b8060005b85811015614a455784840389528151614a268582614710565b9450614a31836154bc565b925060208a01995050600181019050614a0d565b50829750879550505050505092915050565b60008154614a6481615643565b614a6e8186615540565b94506001821660008114614a895760018114614a9a57614acd565b60ff19831686528186019350614acd565b614aa385615401565b60005b83811015614ac557815481890152600182019150602081019050614aa6565b838801955050505b50505092915050565b6000614ae182615463565b614aeb818561554b565b9350614afb818560208601615610565b614b048161577c565b840191505092915050565b6000614b1a82615463565b614b24818561555c565b9350614b34818560208601615610565b614b3d8161577c565b840191505092915050565b60006060830160008301518482036000860152614b658282614ad6565b91505060208301518482036020860152614b7f8282614724565b91505060408301518482036040860152614b998282614724565b9150508091505092915050565b6000606083016000830151614bbe6000860182614f15565b5060208301518482036020860152614bd68282614ad6565b9150506040830151614beb6040860182614f15565b508091505092915050565b600060a083016000830151614c0e6000860182614f15565b5060208301518482036020860152614c268282614ad6565b91505060408301518482036040860152614c408282614ad6565b91505060608301518482036060860152614c5a8282614ad6565b91505060808301518482036080860152614c748282614ad6565b9150508091505092915050565b600060a0830160008301518482036000860152614c9e8282614ad6565b91505060208301518482036020860152614cb88282614ad6565b91505060408301518482036040860152614cd28282614ad6565b91505060608301518482036060860152614cec8282614ad6565b91505060808301518482036080860152614d068282614ad6565b9150508091505092915050565b600060e0830160008301518482036000860152614d308282614ad6565b91505060208301518482036020860152614d4a8282614ad6565b91505060408301518482036040860152614d648282614ad6565b91505060608301518482036060860152614d7e8282614ad6565b91505060808301518482036080860152614d988282614ad6565b91505060a083015184820360a0860152614db28282614ad6565b91505060c083015184820360c0860152614dcc8282614ad6565b9150508091505092915050565b6000610180830160008301518482036000860152614df78282614ad6565b91505060208301518482036020860152614e118282614ad6565b91505060408301518482036040860152614e2b8282614ad6565b91505060608301518482036060860152614e458282614ad6565b91505060808301518482036080860152614e5f8282614ad6565b91505060a083015184820360a0860152614e798282614ad6565b91505060c083015184820360c0860152614e938282614ad6565b91505060e083015184820360e0860152614ead8282614ad6565b915050610100830151848203610100860152614ec98282614ad6565b915050610120830151614ee0610120860182614f15565b50610140830151614ef5610140860182614f15565b50610160830151614f0a610160860182614f15565b508091505092915050565b614f1e816155f7565b82525050565b614f2d816155f7565b82525050565b6000614f3f8284614a57565b915081905092915050565b60006020820190508181036000830152614f648184614799565b905092915050565b60006020820190508181036000830152614f86818461480e565b905092915050565b60006020820190508181036000830152614fa88184614883565b905092915050565b60006020820190508181036000830152614fca81846148f8565b905092915050565b60006020820190508181036000830152614fec818461496d565b905092915050565b6000602082019050818103600083015261500e81846149e2565b905092915050565b600060208201905081810360008301526150308184614b0f565b905092915050565b600060a08201905081810360008301526150528188614b0f565b905081810360208301526150668187614b0f565b9050818103604083015261507a8186614b0f565b9050818103606083015261508e8185614b0f565b905081810360808301526150a28184614b0f565b90509695505050505050565b600060e08201905081810360008301526150c8818a614b0f565b905081810360208301526150dc8189614b0f565b905081810360408301526150f08188614b0f565b905081810360608301526151048187614b0f565b905081810360808301526151188186614b0f565b905081810360a083015261512c8185614b0f565b905081810360c08301526151408184614b0f565b905098975050505050505050565b6000610180820190508181036000830152615169818f614b0f565b9050818103602083015261517d818e614b0f565b90508181036040830152615191818d614b0f565b905081810360608301526151a5818c614b0f565b905081810360808301526151b9818b614b0f565b905081810360a08301526151cd818a614b0f565b905081810360c08301526151e18189614b0f565b905081810360e08301526151f58188614b0f565b905081810361010083015261520a8187614b0f565b905061521a610120830186614f24565b615228610140830185614f24565b615236610160830184614f24565b9d9c50505050505050505050505050565b600060208201905061525c6000830184614f24565b92915050565b600060a0820190506152776000830188614f24565b81810360208301526152898187614b0f565b9050818103604083015261529d8186614b0f565b905081810360608301526152b18185614b0f565b905081810360808301526152c58184614b0f565b90509695505050505050565b60006060820190506152e66000830186614f24565b81810360208301526152f88185614b0f565b90506153076040830184614f24565b949350505050565b600061531961532a565b90506153258282615675565b919050565b6000604051905090565b600067ffffffffffffffff82111561534f5761534e61574d565b5b602082029050602081019050919050565b600067ffffffffffffffff82111561537b5761537a61574d565b5b6153848261577c565b9050602081019050919050565b6000819050602082019050919050565b6000819050602082019050919050565b6000819050602082019050919050565b6000819050602082019050919050565b6000819050602082019050919050565b6000819050602082019050919050565b6000819050602082019050919050565b60008190508160005260206000209050919050565b600081519050919050565b600081519050919050565b600081519050919050565b600081519050919050565b600081519050919050565b600081519050919050565b600081519050919050565b600081519050919050565b6000602082019050919050565b6000602082019050919050565b6000602082019050919050565b6000602082019050919050565b6000602082019050919050565b6000602082019050919050565b6000602082019050919050565b600082825260208201905092915050565b600082825260208201905092915050565b600082825260208201905092915050565b600082825260208201905092915050565b600082825260208201905092915050565b600082825260208201905092915050565b600082825260208201905092915050565b600081905092915050565b600082825260208201905092915050565b600082825260208201905092915050565b6000615578826155f7565b9150615583836155f7565b9250827fffffffffffffffffffffffffffffffffffffffffffffffffffffffffffffffff038211156155b8576155b76156ef565b5b828201905092915050565b60006155ce826155f7565b91506155d9836155f7565b9250828210156155ec576155eb6156ef565b5b828203905092915050565b6000819050919050565b82818337600083830152505050565b60005b8381101561562e578082015181840152602081019050615613565b8381111561563d576000848401525b50505050565b6000600282049050600182168061565b57607f821691505b6020821081141561566f5761566e61571e565b5b50919050565b61567e8261577c565b810181811067ffffffffffffffff8211171561569d5761569c61574d565b5b80604052505050565b60006156b1826155f7565b91507fffffffffffffffffffffffffffffffffffffffffffffffffffffffffffffffff8214156156e4576156e36156ef565b5b600182019050919050565b7f4e487b7100000000000000000000000000000000000000000000000000000000600052601160045260246000fd5b7f4e487b7100000000000000000000000000000000000000000000000000000000600052602260045260246000fd5b7f4e487b7100000000000000000000000000000000000000000000000000000000600052604160045260246000fd5b6000601f19601f8301169050919050565b615796816155f7565b81146157a157600080fd5b5056fea26469706673582212203bcd10c994fbca646085f198e7a193b71a43d315220265eb33a431162267150d64736f6c63430008030033",
  "immutableReferences": {},
  "source": "// SPDX-License-Identifier: MIT\r\npragma solidity >=0.4.22 <0.9.0;\r\ncontract tdn\r\n{\r\n  struct extraData{\r\n    string tid;\r\n    string[] attachment;\r\n    string[] link;\r\n  }\r\n    //struct mention{\r\n     //string mid;\r\n     //string uid;\r\n    // string tid;\r\n  //   string timestamp;\r\n//    }\r\n\r\n    struct image{\r\n      string tid;\r\n      string hash1;\r\n      string type1;\r\n      string uid;\r\n      string mid;\r\n    }\r\n    struct model{\r\n        string txt;\r\n        string data;\r\n        string image;\r\n        string type1;\r\n        string tid;\r\n        string uid;\r\n        string rid;\r\n        string mid;\r\n        string extra;\r\n        uint ln;\r\n        uint rt;\r\n        uint rp;\r\n    }\r\n    struct likes{\r\n        string lid;\r\n        string uid;\r\n        string tid;\r\n        string rid;\r\n        string e1;\r\n        string mid;\r\n        string timestamp;\r\n    }\r\n    struct hashtags{\r\n        uint hid;\r\n        string uid;\r\n        string tid;\r\n        string hashtag;\r\n        string timestamp;\r\n    }\r\n    struct hashtagf\r\n    {\r\n        uint hid;\r\n        string hashtag;\r\n        uint freq;\r\n    }\r\n    uint256 public count  = 0;\r\n    uint256 public count1  = 0;\r\n\r\n    model[] public data2;\r\n    likes[] public like;\r\n    hashtags[] public Hashtags;\r\n    hashtagf[] public Hashtagf;\r\n    //mention[] public people1;\r\n    image[] public image1;\r\n    extraData[] public attachment;\r\n    function insertData(string[] memory _attachment,string[] memory _link,string memory  _tid) public\r\n    {\r\n      attachment.push(extraData(_tid,_attachment,_link));\r\n    }\r\n    function getData() view public returns(extraData[] memory)\r\n    {\r\n      return(attachment);\r\n    }\r\n    function insertHash(string memory tid,string memory hash1,string memory type1,string memory uid,string memory mid) public\r\n    {\r\n      image1.push(image(tid,hash1,type1,uid,mid));\r\n    }\r\n    function getAllImages() public view returns(image[] memory)\r\n    {\r\n      return (image1);\r\n    }\r\n    function getAllModel() public view returns(model[] memory)\r\n {\r\n     return(data2);\r\n }\r\n  function getAllLikes() public view returns(likes[] memory)\r\n{\r\n     return(like);\r\n}\r\n  function getAllHashtags() public view returns(hashtags[] memory)\r\n{\r\n     return(Hashtags);\r\n}\r\n  function getAllHashtagf() public view returns(hashtagf[] memory)\r\n{\r\n     return(Hashtagf);\r\n}\r\n//  function getAllMention() public view returns(mention[] memory)\r\n//{\r\n   //  return(people1);\r\n//}\r\n\r\n     //function setPeople(string[] memory _people,string memory timestamp,string memory uid,string memory tid) public\r\n    //{\r\n       // for(uint i =0;i<_people.length;i++)\r\n      //  {\r\n     //     people1.push(mention(_people[i],uid,tid,timestamp));\r\n    //    }\r\n    //}\r\n\r\n    function setHastagf(string[] memory _hashtag) public\r\n    {\r\n        uint c  = 0;\r\n        uint c1 = 5;\r\n        if(Hashtagf.length>0)\r\n        {\r\n        for(uint i = 0;i<_hashtag.length;i++)\r\n        {\r\n            for(uint j = 0;j<Hashtagf.length;j++)\r\n            {\r\n                if(keccak256(bytes(Hashtagf[j].hashtag))==keccak256(bytes(_hashtag[i])))\r\n                { c1 = 1;\r\n                    c = Hashtagf[j].freq+1;\r\n                    Hashtagf[j].freq = c;\r\n                    c=0;\r\n                }\r\n            }\r\n            if(c1==5)\r\n            {\r\n                Hashtagf.push(hashtagf(count,_hashtag[i],1));\r\n                    count++;\r\n                    c1 = 0;\r\n            }\r\n        }\r\n        }\r\n        else\r\n        {\r\n              for(uint i = 0;i<_hashtag.length;i++)\r\n        {\r\n            Hashtagf.push(hashtagf(count,_hashtag[i],1));\r\n                    count++;\r\n        }\r\n        }\r\n    }\r\n\r\n    function setHashtag(string[] memory _hashtag,string memory timestamp,string memory uid,string memory tid) public\r\n    {\r\n        for(uint i =0;i<_hashtag.length;i++)\r\n        {\r\n          Hashtags.push(hashtags(count1,uid,tid,_hashtag[i],timestamp));\r\n        }\r\n    }\r\n    function dotdn(string memory _txt,string memory _data,string memory _image,string memory _type1,string memory _tid,string memory _uid,string memory _rid,string memory _mid,string memory timestamp) public\r\n    {\r\n        data2.push(model(_txt,_data,_image,_type1,_tid,_uid,_rid,_mid,timestamp,0,0,0));\r\n    }\r\n    function doLike(string memory _lid,string memory _uid,string memory _tid,string memory _rid,string memory _e1,string memory _mid,string memory timestamp) public\r\n    {\r\n        like.push(likes(_lid,_uid,_tid,_rid,_e1,_mid,timestamp));\r\n        uint c1 = 0;\r\n        for(uint i = 0;i<data2.length;i++)\r\n        {\r\n            if(keccak256(bytes(_tid))==keccak256(bytes(data2[i].tid)))\r\n            {\r\n                c1 = data2[i].ln+1;\r\n                data2[i].ln = c1;\r\n            }\r\n        }\r\n    }\r\n    function unlike(string memory _uid,string memory _tid) public\r\n    {\r\n           for(uint i = 0;i<like.length;i++)\r\n            {\r\n                if(keccak256(bytes(like[i].tid))==keccak256(bytes(_tid))&&keccak256((bytes(like[i].uid)))==keccak256(bytes(_uid)))\r\n                {\r\n                    delete like[i];\r\n                }\r\n            }\r\n          uint c1 = 0;\r\n        for(uint i = 0;i<data2.length;i++)\r\n        {\r\n            if(keccak256(bytes(_tid))==keccak256(bytes(data2[i].tid)))\r\n            {\r\n                c1 = data2[i].ln-1;\r\n                data2[i].ln = c1;\r\n            }\r\n        }\r\n    }\r\n     function sendRetweet(string memory _uid,string memory _fid,string  memory _tid,string memory timestamp,string memory _comment) public\r\n    {\r\n        model memory m1;\r\n        for(uint i = 0;i<data2.length;i++)\r\n        {\r\n           if(keccak256(bytes(data2[i].uid))==keccak256(bytes(_fid))&&keccak256(bytes(data2[i].tid))==keccak256(bytes(_tid)))\r\n           {\r\n             data2[i].rt = data2[i].rt+1;\r\n               m1 = model(_comment,\"0\",\"0\",\"0\",_tid,_fid,_uid,\"0\",timestamp,data2[i].ln,data2[i].rt+1,data2[i].rp);\r\n               break;\r\n           }\r\n        }\r\n        data2.push(m1);\r\n    }\r\n function sendReply(string memory _txt,string memory _data,string memory _image,string memory _type1,string memory _tid,string memory _uid,string memory _mid,string memory extra,string memory timestamp) public\r\n    {\r\n      for(uint i = 0;i<data2.length;i++)\r\n      {\r\n       // if(keccak256(bytes(data2[i].tid))==keccak256(bytes(extra))&&keccak256(bytes(data2[i].rid))==keccak256(bytes(\"0\"))&&keccak256(bytes(data2[i].mid))==keccak256(bytes(\"0\")))\r\n        if(keccak256(bytes(data2[i].tid))==keccak256(bytes(extra)))\r\n        {\r\n          data2[i].rp = data2[i].rp+1;\r\n          break;\r\n        }\r\n      }\r\n        data2.push(model(_txt,_data,_image,_type1,_tid,_uid,timestamp,_mid,extra,0,0,0));\r\n    }\r\n    //function getTweet(string memory _uid) view public returns(model[] memory)\r\n    //{\r\n      //  uint c = 0;\r\n        //for(uint i=0;i<data2.length;i++)\r\n        //{\r\n          //  if(keccak256(bytes(data2[i].uid))==keccak256(bytes(_uid))&&keccak256(bytes(data2[i].mid))==keccak256(bytes(\"0\"))&&keccak256(bytes(data2[i].rid))==keccak256(bytes(\"0\")))\r\n           // {\r\n             //   c++;\r\n            //}\r\n        //}\r\n        //model[] memory hello = new model[](c);\r\n        //uint c1 = 0;\r\n          //for(uint i=0;i<data2.length;i++)\r\n        //{\r\n          //    if(keccak256(bytes(data2[i].uid))==keccak256(bytes(_uid))&&keccak256(bytes(data2[i].mid))==keccak256(bytes(\"0\"))&&keccak256(bytes(data2[i].rid))==keccak256(bytes(\"0\")))\r\n            //  {\r\n              //    hello[c1] = data2[i];\r\n               //   c1++;\r\n              //}\r\n        //}\r\n        //return hello;\r\n    //}\r\n    //function getRetweet(string memory _tid) view public returns(model[] memory)\r\n    //{\r\n       // uint c = 0;\r\n        //for(uint i=0;i<data2.length;i++)\r\n        //{\r\n          //  if(keccak256(bytes(data2[i].tid))==keccak256(bytes(_tid))&&keccak256(bytes(data2[i].mid))==keccak256(bytes(\"0\"))&&keccak256(bytes(data2[i].rid))!=keccak256(bytes(\"0\")))\r\n           // {\r\n             //   c++;\r\n            //}\r\n        //}\r\n        //model[] memory hello = new model[](c);\r\n        //uint c1 = 0;\r\n\r\n          //for(uint i=0;i<data2.length;i++)\r\n        //{\r\n          //     if(keccak256(bytes(data2[i].tid))==keccak256(bytes(_tid))&&keccak256(bytes(data2[i].mid))==keccak256(bytes(\"0\"))&&keccak256(bytes(data2[i].rid))!=keccak256(bytes(\"0\")))\r\n           // {\r\n             //     hello[c1] = data2[i];\r\n              //    c1++;\r\n              //}\r\n        //}\r\n        //return hello;\r\n    //}\r\n   // function getReply(string memory _tid , string memory _uid) view  public returns(model[] memory){\r\n     // uint c = 0;\r\n       // for(uint i=0;i<data2.length;i++)\r\n        //{\r\n          //  if(keccak256(bytes(data2[i].tid))==keccak256(bytes(_tid))&&keccak256(bytes(data2[i].mid))==keccak256(bytes(_uid))&&keccak256(bytes(data2[i].rid))==keccak256(bytes(\"0\")))\r\n           // {\r\n             //   c++;\r\n            //}\r\n        //}\r\n        //model[] memory hello = new model[](c);\r\n        //c=0;\r\n          //for(uint i=0;i<data2.length;i++)\r\n        //{\r\n          //        if(keccak256(bytes(data2[i].tid))==keccak256(bytes(_tid))&&keccak256(bytes(data2[i].mid))==keccak256(bytes(_uid))&&keccak256(bytes(data2[i].rid))==keccak256(bytes(\"0\")))\r\n           // {\r\n             //     hello[c] = data2[i];\r\n               //   c++;\r\n              //}\r\n        //}\r\n        //return hello;\r\n    //}\r\n   // function getFeed(string memory _uid,string[] memory ar,string memory _timestamp) view public returns(model[] memory)\r\n    //{\r\n      //  uint c=0;\r\n       // for(uint i = 0;i<data2.length;i++)\r\n        //{\r\n          //  for(uint j=0;j<ar.length;j++)\r\n            //{\r\n              //  if(keccak256(bytes(ar[j]))==keccak256(bytes(data2[i].uid))&&keccak256(bytes(data2[i].mid))==keccak256(bytes(\"0\"))&&keccak256(bytes(data2[i].rid))==keccak256(bytes(\"0\"))&&stringToUint(_timestamp)<=stringToUint(data2[i].extra))\r\n               // {\r\n                 //   c++;\r\n                //}\r\n            //}\r\n        //}\r\n        //model[] memory hello = new model[](c);\r\n        //c=0;\r\n        //for(uint i = 0;i<data2.length;i++)\r\n        //{\r\n          //  for(uint j=0;j<ar.length;j++)\r\n            //{\r\n              //  if(keccak256(bytes(ar[j]))==keccak256(bytes(data2[i].uid))&&keccak256(bytes(data2[i].mid))==keccak256(bytes(\"0\"))&&keccak256(bytes(data2[i].rid))==keccak256(bytes(\"0\"))&&stringToUint(_timestamp)<=stringToUint(data2[i].extra))\r\n                //{\r\n                  //  for(uint k=0;k<like.length;k++)\r\n                    //{\r\n                      //  if(keccak256(bytes(data2[i].tid))==keccak256(bytes(like[k].tid))&&keccak256(bytes(like[k].uid))==keccak256(bytes(_uid)))\r\n                        //{\r\n                          //  hello[c] = model(data2[i].txt,data2[i].data,data2[i].image,data2[i].type1,data2[i].tid,data2[i].uid,data2[i].rid,\"1\",data2[i].extra,data2[i].ln,data2[i].rt,data2[i].rp);\r\n                            //c++;\r\n                        //}\r\n                        //else\r\n                        //{\r\n                          //  hello[c] = model(data2[i].txt,data2[i].data,data2[i].image,data2[i].type1,data2[i].tid,data2[i].uid,data2[i].rid,\"0\",data2[i].extra,data2[i].ln,data2[i].rt,data2[i].rp);\r\n                            //c++;\r\n                        //}\r\n                    //}\r\n\r\n                //}\r\n            //}\r\n        //}\r\n//}\r\n//function trendingTweet(string memory  timestamp,string memory _uid) public view returns(model[] memory)\r\n  //  {\r\n    //    uint c  = 0;\r\n      //  for(uint i =0;i<data2.length;i++)\r\n        //{\r\n         //   if(stringToUint(data2[i].extra)>=stringToUint(timestamp))\r\n           // {\r\n             //   c++;\r\n\r\n            //}\r\n        //}\r\n        //model[] memory  hello = new model[](c);\r\n        //c=0;\r\n        //for(uint i=0;i<data2.length;i++)\r\n        //{\r\n          //  if(stringToUint(data2[i].extra)>=stringToUint(timestamp))\r\n            //{\r\n              //   for(uint k=0;k<like.length;k++)\r\n                //    {\r\n                  //      if(keccak256(bytes(data2[i].tid))==keccak256(bytes(like[k].tid))&&keccak256(bytes(like[k].uid))==keccak256(bytes(_uid)))\r\n                    //    {\r\n                     //       hello[c] = model(data2[i].txt,data2[i].data,data2[i].image,data2[i].type1,data2[i].tid,data2[i].uid,data2[i].rid,\"1\",data2[i].extra,data2[i].ln,data2[i].rt,data2[i].rp);\r\n                       //     c++;\r\n                        //}\r\n                        //else\r\n                        //{\r\n                          //  hello[c] = model(data2[i].txt,data2[i].data,data2[i].image,data2[i].type1,data2[i].tid,data2[i].uid,data2[i].rid,\"0\",data2[i].extra,data2[i].ln,data2[i].rt,data2[i].rp);\r\n                            //c++;\r\n                        //}\r\n                    //}\r\n            //}\r\n        //}\r\n        //return(hello);\r\n     //}\r\n //    function trendingHashtags(string memory timestamp) view public returns (hashtagf[] memory) \r\n    // {\r\n       //  uint c = 0;\r\n         //string memory lastweet;\r\n         //for(uint i = 0;i<Hashtagf.length;i++)\r\n         //{\r\n            // lastweet = Hashtags[Hashtags.length-1].timestamp;\r\n             //if(stringToUint(lastweet)>=stringToUint(timestamp))\r\n             //{\r\n               //  c++;\r\n            // }\r\n         //}\r\n         //hashtagf[] memory hello = new hashtagf[](c);\r\n         //c=0;\r\n           // for(uint i = 0;i<Hashtagf.length;i++)\r\n         //{\r\n          //   lastweet = Hashtags[Hashtags.length-1].timestamp;\r\n            // if(stringToUint(lastweet)>=stringToUint(timestamp))\r\n             //{\r\n                // hello[c] = Hashtagf[i];\r\n                 //c++;\r\n             //}\r\n         //}\r\n         //return(hello);\r\n     //}\r\n     //function getHashtagsData(string memory hashtag,string memory uid) view public returns(model[] memory)\r\n     //{\r\n       //  uint c=0;\r\n         //for(uint i = 0;i<Hashtags.length;i++)\r\n         //{\r\n            // if(keccak256(bytes(Hashtags[i].hashtag))==keccak256(bytes(Hashtagf[i].hashtag)))\r\n             //{\r\n                // for(uint j=0;j<data2.length;j++)\r\n                 //{\r\n                   //  if(keccak256(bytes(\"\"))==keccak256(bytes(\"\")))\r\n                     //{\r\n                       //  c++;\r\n                     //}\r\n                 //}\r\n             //}\r\n         //}\r\n         //model[] memory hello = new model[](c);\r\n         //c=0;\r\n         //for(uint i = 0;i<Hashtags.length;i++)\r\n         //{\r\n           //  if(keccak256(bytes(Hashtags[i].hashtag))==keccak256(bytes(Hashtagf[i].hashtag)))\r\n             //{\r\n               //  for(uint j=0;j<data2.length;j++)\r\n                 //{\r\n                   //  if(keccak256(bytes(\"\"))==keccak256(bytes(\"\")))\r\n                     //{\r\n                       //   for(uint k=0;k<like.length;k++)\r\n                        //{\r\n                        //if(keccak256(bytes(data2[i].tid))==keccak256(bytes(like[k].tid))&&keccak256(bytes(like[k].uid))==keccak256(bytes(uid)))\r\n                        //{\r\n                          //  hello[c] = model(data2[i].txt,data2[i].data,data2[i].image,data2[i].type1,data2[i].tid,data2[i].uid,data2[i].rid,\"1\",data2[i].extra,data2[i].ln,data2[i].rt,data2[i].rp);\r\n                           // c++;\r\n                        //}\r\n                        //else\r\n                        //{\r\n                          //  hello[c] = model(data2[i].txt,data2[i].data,data2[i].image,data2[i].type1,data2[i].tid,data2[i].uid,data2[i].rid,\"0\",data2[i].extra,data2[i].ln,data2[i].rt,data2[i].rp);\r\n                            //c++;\r\n                        //}\r\n                       //}\r\n                     //}\r\n                 //}\r\n             //}\r\n         //}\r\n          //return(hello);\r\n     //}\r\n  // function stringToUint(string memory s) pure internal returns (uint result) {\r\n    //    bytes memory b = bytes(s);\r\n      //  uint i;\r\n       // result = 0;\r\n        //for (i = 0; i < b.length; i++) {\r\n          //  uint c = uint(uint8(b[i]));\r\n           // if (c >= 48 && c <= 57) {\r\n             //   result = result * 10 + (c - 48);\r\n            //}\r\n        //}\r\n        //return result;/\r\n//}\r\n}",
  "sourcePath": "C:/Users/aadit/tdn1/contracts/tdn.sol",
  "compiler": {
    "name": "solc",
    "version": "0.8.3+commit.8d00100c.Emscripten.clang"
  },
  "schemaVersion": "3.3.4",
  "updatedAt": "2021-05-29T12:46:48.140Z",
  "networkType": "ethereum",
  "devdoc": {
    "kind": "dev",
    "methods": {},
    "version": 1
  },
  "userdoc": {
    "kind": "user",
    "methods": {},
    "version": 1
  }
}